{"contracts/uniswapFeeRouter.sol":{"FeeRouter":{"abi":[{"inputs":[{"internalType":"address","name":"_WETH","type":"address"}],"stateMutability":"nonpayable","type":"constructor"},{"anonymous":false,"inputs":[{"indexed":true,"internalType":"address","name":"previousOwner","type":"address"},{"indexed":true,"internalType":"address","name":"newOwner","type":"address"}],"name":"OwnershipTransferred","type":"event"},{"inputs":[],"name":"WETH","outputs":[{"internalType":"address","name":"","type":"address"}],"stateMutability":"view","type":"function"},{"inputs":[],"name":"feeDenom","outputs":[{"internalType":"uint256","name":"","type":"uint256"}],"stateMutability":"view","type":"function"},{"inputs":[],"name":"owner","outputs":[{"internalType":"address","name":"","type":"address"}],"stateMutability":"view","type":"function"},{"inputs":[],"name":"renounceOwnership","outputs":[],"stateMutability":"nonpayable","type":"function"},{"inputs":[{"internalType":"uint256","name":"amountIn","type":"uint256"},{"internalType":"uint256","name":"amountOutMin","type":"uint256"},{"internalType":"address[]","name":"path","type":"address[]"},{"internalType":"address","name":"to","type":"address"},{"internalType":"uint256","name":"deadline","type":"uint256"},{"internalType":"address","name":"factory","type":"address"},{"internalType":"bytes32","name":"hash","type":"bytes32"}],"name":"swapExactETHForTokens","outputs":[{"internalType":"uint256[]","name":"amounts","type":"uint256[]"}],"stateMutability":"payable","type":"function"},{"inputs":[{"internalType":"uint256","name":"amountIn","type":"uint256"},{"internalType":"uint256","name":"amountOutMin","type":"uint256"},{"internalType":"address[]","name":"path","type":"address[]"},{"internalType":"address","name":"to","type":"address"},{"internalType":"uint256","name":"deadline","type":"uint256"},{"internalType":"address","name":"factory","type":"address"},{"internalType":"bytes32","name":"hash","type":"bytes32"}],"name":"swapExactETHForTokensSupportingFeeOnTransferTokens","outputs":[],"stateMutability":"payable","type":"function"},{"inputs":[{"internalType":"address","name":"newOwner","type":"address"}],"name":"transferOwnership","outputs":[],"stateMutability":"nonpayable","type":"function"},{"stateMutability":"payable","type":"receive"}],"evm":{"bytecode":{"linkReferences":{},"object":"60a06040523480156200001157600080fd5b5060405162002ad038038062002ad08339818101604052810190620000379190620001c8565b620000576200004b6200009260201b60201c565b6200009a60201b60201c565b8073ffffffffffffffffffffffffffffffffffffffff1660808173ffffffffffffffffffffffffffffffffffffffff168152505050620001fa565b600033905090565b60008060009054906101000a900473ffffffffffffffffffffffffffffffffffffffff169050816000806101000a81548173ffffffffffffffffffffffffffffffffffffffff021916908373ffffffffffffffffffffffffffffffffffffffff1602179055508173ffffffffffffffffffffffffffffffffffffffff168173ffffffffffffffffffffffffffffffffffffffff167f8be0079c531659141344cd1fd0a4f28419497f9722a3daafe3b4186f6b6457e060405160405180910390a35050565b600080fd5b600073ffffffffffffffffffffffffffffffffffffffff82169050919050565b6000620001908262000163565b9050919050565b620001a28162000183565b8114620001ae57600080fd5b50565b600081519050620001c28162000197565b92915050565b600060208284031215620001e157620001e06200015e565b5b6000620001f184828501620001b1565b91505092915050565b60805161288a6200024660003960008181607b01528181610237015281816103b30152818161044f015281816106c001528181610783015281816108040152610b1b015261288a6000f3fe6080604052600436106100745760003560e01c80638da5cb5b1161004e5780638da5cb5b1461014e578063950fae9214610179578063ad5c464814610195578063f2fde38b146101c0576100d7565b806319a86577146100dc57806341b2e56e14610107578063715018a614610137576100d7565b366100d7577f000000000000000000000000000000000000000000000000000000000000000073ffffffffffffffffffffffffffffffffffffffff163373ffffffffffffffffffffffffffffffffffffffff16146100d5576100d46118ea565b5b005b600080fd5b3480156100e857600080fd5b506100f16101e9565b6040516100fe9190611932565b60405180910390f35b610121600480360381019061011c9190611a7c565b6101ef565b60405161012e9190611bfc565b60405180910390f35b34801561014357600080fd5b5061014c6105c9565b005b34801561015a57600080fd5b50610163610651565b6040516101709190611c2d565b60405180910390f35b610193600480360381019061018e9190611a7c565b61067a565b005b3480156101a157600080fd5b506101aa610b19565b6040516101b79190611c2d565b60405180910390f35b3480156101cc57600080fd5b506101e760048036038101906101e29190611c48565b610b3d565b005b61271081565b60608342811015610235576040517f08c379a000000000000000000000000000000000000000000000000000000000815260040161022c90611cd2565b60405180910390fd5b7f000000000000000000000000000000000000000000000000000000000000000073ffffffffffffffffffffffffffffffffffffffff16888860008181106102805761027f611cf2565b5b90506020020160208101906102959190611c48565b73ffffffffffffffffffffffffffffffffffffffff16146102eb576040517f08c379a00000000000000000000000000000000000000000000000000000000081526004016102e290611d6d565b60405180910390fd5b348a11156102f857600080fd5b610345848b8a8a80806020026020016040519081016040528093929190818152602001838360200280828437600081840152601f19601f8201169050808301925050505050505086610c34565b91508882600184516103579190611dbc565b8151811061036857610367611cf2565b5b602002602001015110156103b1576040517f08c379a00000000000000000000000000000000000000000000000000000000081526004016103a890611e62565b60405180910390fd5b7f000000000000000000000000000000000000000000000000000000000000000073ffffffffffffffffffffffffffffffffffffffff1663d0e30db08360008151811061040157610400611cf2565b5b60200260200101516040518263ffffffff1660e01b81526004016000604051808303818588803b15801561043457600080fd5b505af1158015610448573d6000803e3d6000fd5b50505050507f000000000000000000000000000000000000000000000000000000000000000073ffffffffffffffffffffffffffffffffffffffff1663a9059cbb6104e5868b8b60008181106104a1576104a0611cf2565b5b90506020020160208101906104b69190611c48565b8c8c60018181106104ca576104c9611cf2565b5b90506020020160208101906104df9190611c48565b88610dc1565b846000815181106104f9576104f8611cf2565b5b60200260200101516040518363ffffffff1660e01b815260040161051e929190611e82565b6020604051808303816000875af115801561053d573d6000803e3d6000fd5b505050506040513d601f19601f820116820180604052508101906105619190611ee3565b61056e5761056d6118ea565b5b6105bc84838a8a80806020026020016040519081016040528093929190818152602001838360200280828437600081840152601f19601f820116905080830192505050505050508987610e36565b5098975050505050505050565b6105d1611053565b73ffffffffffffffffffffffffffffffffffffffff166105ef610651565b73ffffffffffffffffffffffffffffffffffffffff1614610645576040517f08c379a000000000000000000000000000000000000000000000000000000000815260040161063c90611f5c565b60405180910390fd5b61064f600061105b565b565b60008060009054906101000a900473ffffffffffffffffffffffffffffffffffffffff16905090565b82428110156106be576040517f08c379a00000000000000000000000000000000000000000000000000000000081526004016106b590611cd2565b60405180910390fd5b7f000000000000000000000000000000000000000000000000000000000000000073ffffffffffffffffffffffffffffffffffffffff168787600081811061070957610708611cf2565b5b905060200201602081019061071e9190611c48565b73ffffffffffffffffffffffffffffffffffffffff1614610774576040517f08c379a000000000000000000000000000000000000000000000000000000000815260040161076b90611d6d565b60405180910390fd5b3489111561078157600080fd5b7f000000000000000000000000000000000000000000000000000000000000000073ffffffffffffffffffffffffffffffffffffffff1663d0e30db08a6040518263ffffffff1660e01b81526004016000604051808303818588803b1580156107e957600080fd5b505af11580156107fd573d6000803e3d6000fd5b50505050507f000000000000000000000000000000000000000000000000000000000000000073ffffffffffffffffffffffffffffffffffffffff1663a9059cbb61089a858a8a600081811061085657610855611cf2565b5b905060200201602081019061086b9190611c48565b8b8b600181811061087f5761087e611cf2565b5b90506020020160208101906108949190611c48565b87610dc1565b8b6040518363ffffffff1660e01b81526004016108b8929190611e82565b6020604051808303816000875af11580156108d7573d6000803e3d6000fd5b505050506040513d601f19601f820116820180604052508101906108fb9190611ee3565b610908576109076118ea565b5b6000878760018a8a905061091c9190611dbc565b81811061092c5761092b611cf2565b5b90506020020160208101906109419190611c48565b73ffffffffffffffffffffffffffffffffffffffff166370a08231876040518263ffffffff1660e01b81526004016109799190611c2d565b602060405180830381865afa158015610996573d6000803e3d6000fd5b505050506040513d601f19601f820116820180604052508101906109ba9190611f91565b9050610a0984898980806020026020016040519081016040528093929190818152602001838360200280828437600081840152601f19601f82011690508083019250505050505050888661111f565b88610acc828a8a60018d8d9050610a209190611dbc565b818110610a3057610a2f611cf2565b5b9050602002016020810190610a459190611c48565b73ffffffffffffffffffffffffffffffffffffffff166370a082318a6040518263ffffffff1660e01b8152600401610a7d9190611c2d565b602060405180830381865afa158015610a9a573d6000803e3d6000fd5b505050506040513d601f19601f82011682018060405250810190610abe9190611f91565b61149490919063ffffffff16565b1015610b0d576040517f08c379a0000000000000000000000000000000000000000000000000000000008152600401610b0490611e62565b60405180910390fd5b50505050505050505050565b7f000000000000000000000000000000000000000000000000000000000000000081565b610b45611053565b73ffffffffffffffffffffffffffffffffffffffff16610b63610651565b73ffffffffffffffffffffffffffffffffffffffff1614610bb9576040517f08c379a0000000000000000000000000000000000000000000000000000000008152600401610bb090611f5c565b60405180910390fd5b600073ffffffffffffffffffffffffffffffffffffffff168173ffffffffffffffffffffffffffffffffffffffff1603610c28576040517f08c379a0000000000000000000000000000000000000000000000000000000008152600401610c1f90612030565b60405180910390fd5b610c318161105b565b50565b6060600283511015610c7b576040517f08c379a0000000000000000000000000000000000000000000000000000000008152600401610c729061209c565b60405180910390fd5b825167ffffffffffffffff811115610c9657610c956120bc565b5b604051908082528060200260200182016040528015610cc45781602001602082028036833780820191505090505b5090508381600081518110610cdc57610cdb611cf2565b5b60200260200101818152505060005b60018451610cf99190611dbc565b811015610db857600080610d4f88878581518110610d1a57610d19611cf2565b5b602002602001015188600187610d3091906120eb565b81518110610d4157610d40611cf2565b5b6020026020010151886114ed565b91509150610d78848481518110610d6957610d68611cf2565b5b602002602001015183836115f2565b84600185610d8691906120eb565b81518110610d9757610d96611cf2565b5b60200260200101818152505050508080610db09061211f565b915050610ceb565b50949350505050565b6000806000610dd086866116f8565b91509150868282604051602001610de89291906121af565b6040516020818303038152906040528051906020012085604051602001610e1193929190612253565b6040516020818303038152906040528051906020012060001c92505050949350505050565b60005b60018451610e479190611dbc565b81101561104b57600080858381518110610e6457610e63611cf2565b5b602002602001015186600185610e7a91906120eb565b81518110610e8b57610e8a611cf2565b5b6020026020010151915091506000610ea383836116f8565b509050600088600186610eb691906120eb565b81518110610ec757610ec6611cf2565b5b602002602001015190506000808373ffffffffffffffffffffffffffffffffffffffff168673ffffffffffffffffffffffffffffffffffffffff1614610f0f57826000610f13565b6000835b91509150600060028b51610f279190611dbc565b8810610f335789610f66565b610f658d878d60028c610f4691906120eb565b81518110610f5757610f56611cf2565b5b60200260200101518c610dc1565b5b9050610f748d88888c610dc1565b73ffffffffffffffffffffffffffffffffffffffff1663022c0d9f848484600067ffffffffffffffff811115610fad57610fac6120bc565b5b6040519080825280601f01601f191660200182016040528015610fdf5781602001600182028036833780820191505090505b506040518563ffffffff1660e01b8152600401610fff949392919061232b565b600060405180830381600087803b15801561101957600080fd5b505af115801561102d573d6000803e3d6000fd5b505050505050505050505080806110439061211f565b915050610e39565b505050505050565b600033905090565b60008060009054906101000a900473ffffffffffffffffffffffffffffffffffffffff169050816000806101000a81548173ffffffffffffffffffffffffffffffffffffffff021916908373ffffffffffffffffffffffffffffffffffffffff1602179055508173ffffffffffffffffffffffffffffffffffffffff168173ffffffffffffffffffffffffffffffffffffffff167f8be0079c531659141344cd1fd0a4f28419497f9722a3daafe3b4186f6b6457e060405160405180910390a35050565b60005b600184516111309190611dbc565b81101561148d5760008085838151811061114d5761114c611cf2565b5b60200260200101518660018561116391906120eb565b8151811061117457611173611cf2565b5b602002602001015191509150600061118c83836116f8565b509050600061119d89858589610dc1565b90506000806000808473ffffffffffffffffffffffffffffffffffffffff16630902f1ac6040518163ffffffff1660e01b8152600401606060405180830381865afa1580156111f0573d6000803e3d6000fd5b505050506040513d601f19601f8201168201806040525081019061121491906123f9565b506dffffffffffffffffffffffffffff1691506dffffffffffffffffffffffffffff1691506000808773ffffffffffffffffffffffffffffffffffffffff168a73ffffffffffffffffffffffffffffffffffffffff1614611276578284611279565b83835b91509150611309828b73ffffffffffffffffffffffffffffffffffffffff166370a082318a6040518263ffffffff1660e01b81526004016112ba9190611c2d565b602060405180830381865afa1580156112d7573d6000803e3d6000fd5b505050506040513d601f19601f820116820180604052508101906112fb9190611f91565b61149490919063ffffffff16565b95506113168683836115f2565b9450505050506000808573ffffffffffffffffffffffffffffffffffffffff168873ffffffffffffffffffffffffffffffffffffffff161461135a5782600061135e565b6000835b91509150600060028d516113729190611dbc565b8a1061137e578b6113b1565b6113b08e898f60028e61139191906120eb565b815181106113a2576113a1611cf2565b5b60200260200101518e610dc1565b5b90508573ffffffffffffffffffffffffffffffffffffffff1663022c0d9f848484600067ffffffffffffffff8111156113ed576113ec6120bc565b5b6040519080825280601f01601f19166020018201604052801561141f5781602001600182028036833780820191505090505b506040518563ffffffff1660e01b815260040161143f949392919061232b565b600060405180830381600087803b15801561145957600080fd5b505af115801561146d573d6000803e3d6000fd5b5050505050505050505050505080806114859061211f565b915050611122565b5050505050565b60008282846114a39190611dbc565b91508111156114e7576040517f08c379a00000000000000000000000000000000000000000000000000000000081526004016114de90612498565b60405180910390fd5b92915050565b60008060006114fc86866116f8565b50905060008061150e89898989610dc1565b73ffffffffffffffffffffffffffffffffffffffff16630902f1ac6040518163ffffffff1660e01b8152600401606060405180830381865afa158015611558573d6000803e3d6000fd5b505050506040513d601f19601f8201168201806040525081019061157c91906123f9565b506dffffffffffffffffffffffffffff1691506dffffffffffffffffffffffffffff1691508273ffffffffffffffffffffffffffffffffffffffff168873ffffffffffffffffffffffffffffffffffffffff16146115db5780826115de565b81815b809550819650505050505094509492505050565b6000808411611636576040517f08c379a000000000000000000000000000000000000000000000000000000000815260040161162d9061252a565b60405180910390fd5b6000831180156116465750600082115b611685576040517f08c379a000000000000000000000000000000000000000000000000000000000815260040161167c906125bc565b60405180910390fd5b600061169c6103e58661182490919063ffffffff16565b905060006116b3848361182490919063ffffffff16565b905060006116de836116d06103e88961182490919063ffffffff16565b61189190919063ffffffff16565b905080826116ec919061260b565b93505050509392505050565b6000808273ffffffffffffffffffffffffffffffffffffffff168473ffffffffffffffffffffffffffffffffffffffff1603611769576040517f08c379a0000000000000000000000000000000000000000000000000000000008152600401611760906126ae565b60405180910390fd5b8273ffffffffffffffffffffffffffffffffffffffff168473ffffffffffffffffffffffffffffffffffffffff16106117a35782846117a6565b83835b8092508193505050600073ffffffffffffffffffffffffffffffffffffffff168273ffffffffffffffffffffffffffffffffffffffff160361181d576040517f08c379a00000000000000000000000000000000000000000000000000000000081526004016118149061271a565b60405180910390fd5b9250929050565b60008082148061184c57508282838561183d919061273a565b92508261184a919061260b565b145b61188b576040517f08c379a0000000000000000000000000000000000000000000000000000000008152600401611882906127c8565b60405180910390fd5b92915050565b60008282846118a091906120eb565b91508110156118e4576040517f08c379a00000000000000000000000000000000000000000000000000000000081526004016118db90612834565b60405180910390fd5b92915050565b7f4e487b7100000000000000000000000000000000000000000000000000000000600052600160045260246000fd5b6000819050919050565b61192c81611919565b82525050565b60006020820190506119476000830184611923565b92915050565b600080fd5b600080fd5b61196081611919565b811461196b57600080fd5b50565b60008135905061197d81611957565b92915050565b600080fd5b600080fd5b600080fd5b60008083601f8401126119a8576119a7611983565b5b8235905067ffffffffffffffff8111156119c5576119c4611988565b5b6020830191508360208202830111156119e1576119e061198d565b5b9250929050565b600073ffffffffffffffffffffffffffffffffffffffff82169050919050565b6000611a13826119e8565b9050919050565b611a2381611a08565b8114611a2e57600080fd5b50565b600081359050611a4081611a1a565b92915050565b6000819050919050565b611a5981611a46565b8114611a6457600080fd5b50565b600081359050611a7681611a50565b92915050565b60008060008060008060008060e0898b031215611a9c57611a9b61194d565b5b6000611aaa8b828c0161196e565b9850506020611abb8b828c0161196e565b975050604089013567ffffffffffffffff811115611adc57611adb611952565b5b611ae88b828c01611992565b96509650506060611afb8b828c01611a31565b9450506080611b0c8b828c0161196e565b93505060a0611b1d8b828c01611a31565b92505060c0611b2e8b828c01611a67565b9150509295985092959890939650565b600081519050919050565b600082825260208201905092915050565b6000819050602082019050919050565b611b7381611919565b82525050565b6000611b858383611b6a565b60208301905092915050565b6000602082019050919050565b6000611ba982611b3e565b611bb38185611b49565b9350611bbe83611b5a565b8060005b83811015611bef578151611bd68882611b79565b9750611be183611b91565b925050600181019050611bc2565b5085935050505092915050565b60006020820190508181036000830152611c168184611b9e565b905092915050565b611c2781611a08565b82525050565b6000602082019050611c426000830184611c1e565b92915050565b600060208284031215611c5e57611c5d61194d565b5b6000611c6c84828501611a31565b91505092915050565b600082825260208201905092915050565b7f556e69737761705632526f757465723a20455850495245440000000000000000600082015250565b6000611cbc601883611c75565b9150611cc782611c86565b602082019050919050565b60006020820190508181036000830152611ceb81611caf565b9050919050565b7f4e487b7100000000000000000000000000000000000000000000000000000000600052603260045260246000fd5b7f556e69737761705632526f757465723a20494e56414c49445f50415448000000600082015250565b6000611d57601d83611c75565b9150611d6282611d21565b602082019050919050565b60006020820190508181036000830152611d8681611d4a565b9050919050565b7f4e487b7100000000000000000000000000000000000000000000000000000000600052601160045260246000fd5b6000611dc782611919565b9150611dd283611919565b9250828203905081811115611dea57611de9611d8d565b5b92915050565b7f556e69737761705632526f757465723a20494e53554646494349454e545f4f5560008201527f545055545f414d4f554e54000000000000000000000000000000000000000000602082015250565b6000611e4c602b83611c75565b9150611e5782611df0565b604082019050919050565b60006020820190508181036000830152611e7b81611e3f565b9050919050565b6000604082019050611e976000830185611c1e565b611ea46020830184611923565b9392505050565b60008115159050919050565b611ec081611eab565b8114611ecb57600080fd5b50565b600081519050611edd81611eb7565b92915050565b600060208284031215611ef957611ef861194d565b5b6000611f0784828501611ece565b91505092915050565b7f4f776e61626c653a2063616c6c6572206973206e6f7420746865206f776e6572600082015250565b6000611f46602083611c75565b9150611f5182611f10565b602082019050919050565b60006020820190508181036000830152611f7581611f39565b9050919050565b600081519050611f8b81611957565b92915050565b600060208284031215611fa757611fa661194d565b5b6000611fb584828501611f7c565b91505092915050565b7f4f776e61626c653a206e6577206f776e657220697320746865207a65726f206160008201527f6464726573730000000000000000000000000000000000000000000000000000602082015250565b600061201a602683611c75565b915061202582611fbe565b604082019050919050565b600060208201905081810360008301526120498161200d565b9050919050565b7f556e697377617056324c6962726172793a20494e56414c49445f504154480000600082015250565b6000612086601e83611c75565b915061209182612050565b602082019050919050565b600060208201905081810360008301526120b581612079565b9050919050565b7f4e487b7100000000000000000000000000000000000000000000000000000000600052604160045260246000fd5b60006120f682611919565b915061210183611919565b925082820190508082111561211957612118611d8d565b5b92915050565b600061212a82611919565b91507fffffffffffffffffffffffffffffffffffffffffffffffffffffffffffffffff820361215c5761215b611d8d565b5b600182019050919050565b60008160601b9050919050565b600061217f82612167565b9050919050565b600061219182612174565b9050919050565b6121a96121a482611a08565b612186565b82525050565b60006121bb8285612198565b6014820191506121cb8284612198565b6014820191508190509392505050565b600081905092915050565b7fff00000000000000000000000000000000000000000000000000000000000000600082015250565b600061221c6001836121db565b9150612227826121e6565b600182019050919050565b6000819050919050565b61224d61224882611a46565b612232565b82525050565b600061225e8261220f565b915061226a8286612198565b60148201915061227a828561223c565b60208201915061228a828461223c565b602082019150819050949350505050565b600081519050919050565b600082825260208201905092915050565b60005b838110156122d55780820151818401526020810190506122ba565b60008484015250505050565b6000601f19601f8301169050919050565b60006122fd8261229b565b61230781856122a6565b93506123178185602086016122b7565b612320816122e1565b840191505092915050565b60006080820190506123406000830187611923565b61234d6020830186611923565b61235a6040830185611c1e565b818103606083015261236c81846122f2565b905095945050505050565b60006dffffffffffffffffffffffffffff82169050919050565b61239a81612377565b81146123a557600080fd5b50565b6000815190506123b781612391565b92915050565b600063ffffffff82169050919050565b6123d6816123bd565b81146123e157600080fd5b50565b6000815190506123f3816123cd565b92915050565b6000806000606084860312156124125761241161194d565b5b6000612420868287016123a8565b9350506020612431868287016123a8565b9250506040612442868287016123e4565b9150509250925092565b7f64732d6d6174682d7375622d756e646572666c6f770000000000000000000000600082015250565b6000612482601583611c75565b915061248d8261244c565b602082019050919050565b600060208201905081810360008301526124b181612475565b9050919050565b7f556e697377617056324c6962726172793a20494e53554646494349454e545f4960008201527f4e5055545f414d4f554e54000000000000000000000000000000000000000000602082015250565b6000612514602b83611c75565b915061251f826124b8565b604082019050919050565b6000602082019050818103600083015261254381612507565b9050919050565b7f556e697377617056324c6962726172793a20494e53554646494349454e545f4c60008201527f4951554944495459000000000000000000000000000000000000000000000000602082015250565b60006125a6602883611c75565b91506125b18261254a565b604082019050919050565b600060208201905081810360008301526125d581612599565b9050919050565b7f4e487b7100000000000000000000000000000000000000000000000000000000600052601260045260246000fd5b600061261682611919565b915061262183611919565b925082612631576126306125dc565b5b828204905092915050565b7f556e697377617056324c6962726172793a204944454e544943414c5f4144445260008201527f4553534553000000000000000000000000000000000000000000000000000000602082015250565b6000612698602583611c75565b91506126a38261263c565b604082019050919050565b600060208201905081810360008301526126c78161268b565b9050919050565b7f556e697377617056324c6962726172793a205a45524f5f414444524553530000600082015250565b6000612704601e83611c75565b915061270f826126ce565b602082019050919050565b60006020820190508181036000830152612733816126f7565b9050919050565b600061274582611919565b915061275083611919565b925082820261275e81611919565b9150828204841483151761277557612774611d8d565b5b5092915050565b7f64732d6d6174682d6d756c2d6f766572666c6f77000000000000000000000000600082015250565b60006127b2601483611c75565b91506127bd8261277c565b602082019050919050565b600060208201905081810360008301526127e1816127a5565b9050919050565b7f64732d6d6174682d6164642d6f766572666c6f77000000000000000000000000600082015250565b600061281e601483611c75565b9150612829826127e8565b602082019050919050565b6000602082019050818103600083015261284d81612811565b905091905056fea2646970667358221220f3d10ceaa7bf27ae90e4631cceb3630cdbf59921c87d661cd8e6a302c4ac715d64736f6c63430008110033","opcodes":"PUSH1 0xA0 PUSH1 0x40 MSTORE CALLVALUE DUP1 ISZERO PUSH3 0x11 JUMPI PUSH1 0x0 DUP1 REVERT JUMPDEST POP PUSH1 0x40 MLOAD PUSH3 0x2AD0 CODESIZE SUB DUP1 PUSH3 0x2AD0 DUP4 CODECOPY DUP2 DUP2 ADD PUSH1 0x40 MSTORE DUP2 ADD SWAP1 PUSH3 0x37 SWAP2 SWAP1 PUSH3 0x1C8 JUMP JUMPDEST PUSH3 0x57 PUSH3 0x4B PUSH3 0x92 PUSH1 0x20 SHL PUSH1 0x20 SHR JUMP JUMPDEST PUSH3 0x9A PUSH1 0x20 SHL PUSH1 0x20 SHR JUMP JUMPDEST DUP1 PUSH20 0xFFFFFFFFFFFFFFFFFFFFFFFFFFFFFFFFFFFFFFFF AND PUSH1 0x80 DUP2 PUSH20 0xFFFFFFFFFFFFFFFFFFFFFFFFFFFFFFFFFFFFFFFF AND DUP2 MSTORE POP POP POP PUSH3 0x1FA JUMP JUMPDEST PUSH1 0x0 CALLER SWAP1 POP SWAP1 JUMP JUMPDEST PUSH1 0x0 DUP1 PUSH1 0x0 SWAP1 SLOAD SWAP1 PUSH2 0x100 EXP SWAP1 DIV PUSH20 0xFFFFFFFFFFFFFFFFFFFFFFFFFFFFFFFFFFFFFFFF AND SWAP1 POP DUP2 PUSH1 0x0 DUP1 PUSH2 0x100 EXP DUP2 SLOAD DUP2 PUSH20 0xFFFFFFFFFFFFFFFFFFFFFFFFFFFFFFFFFFFFFFFF MUL NOT AND SWAP1 DUP4 PUSH20 0xFFFFFFFFFFFFFFFFFFFFFFFFFFFFFFFFFFFFFFFF AND MUL OR SWAP1 SSTORE POP DUP2 PUSH20 0xFFFFFFFFFFFFFFFFFFFFFFFFFFFFFFFFFFFFFFFF AND DUP2 PUSH20 0xFFFFFFFFFFFFFFFFFFFFFFFFFFFFFFFFFFFFFFFF AND PUSH32 0x8BE0079C531659141344CD1FD0A4F28419497F9722A3DAAFE3B4186F6B6457E0 PUSH1 0x40 MLOAD PUSH1 0x40 MLOAD DUP1 SWAP2 SUB SWAP1 LOG3 POP POP JUMP JUMPDEST PUSH1 0x0 DUP1 REVERT JUMPDEST PUSH1 0x0 PUSH20 0xFFFFFFFFFFFFFFFFFFFFFFFFFFFFFFFFFFFFFFFF DUP3 AND SWAP1 POP SWAP2 SWAP1 POP JUMP JUMPDEST PUSH1 0x0 PUSH3 0x190 DUP3 PUSH3 0x163 JUMP JUMPDEST SWAP1 POP SWAP2 SWAP1 POP JUMP JUMPDEST PUSH3 0x1A2 DUP2 PUSH3 0x183 JUMP JUMPDEST DUP2 EQ PUSH3 0x1AE JUMPI PUSH1 0x0 DUP1 REVERT JUMPDEST POP JUMP JUMPDEST PUSH1 0x0 DUP2 MLOAD SWAP1 POP PUSH3 0x1C2 DUP2 PUSH3 0x197 JUMP JUMPDEST SWAP3 SWAP2 POP POP JUMP JUMPDEST PUSH1 0x0 PUSH1 0x20 DUP3 DUP5 SUB SLT ISZERO PUSH3 0x1E1 JUMPI PUSH3 0x1E0 PUSH3 0x15E JUMP JUMPDEST JUMPDEST PUSH1 0x0 PUSH3 0x1F1 DUP5 DUP3 DUP6 ADD PUSH3 0x1B1 JUMP JUMPDEST SWAP2 POP POP SWAP3 SWAP2 POP POP JUMP JUMPDEST PUSH1 0x80 MLOAD PUSH2 0x288A PUSH3 0x246 PUSH1 0x0 CODECOPY PUSH1 0x0 DUP2 DUP2 PUSH1 0x7B ADD MSTORE DUP2 DUP2 PUSH2 0x237 ADD MSTORE DUP2 DUP2 PUSH2 0x3B3 ADD MSTORE DUP2 DUP2 PUSH2 0x44F ADD MSTORE DUP2 DUP2 PUSH2 0x6C0 ADD MSTORE DUP2 DUP2 PUSH2 0x783 ADD MSTORE DUP2 DUP2 PUSH2 0x804 ADD MSTORE PUSH2 0xB1B ADD MSTORE PUSH2 0x288A PUSH1 0x0 RETURN INVALID PUSH1 0x80 PUSH1 0x40 MSTORE PUSH1 0x4 CALLDATASIZE LT PUSH2 0x74 JUMPI PUSH1 0x0 CALLDATALOAD PUSH1 0xE0 SHR DUP1 PUSH4 0x8DA5CB5B GT PUSH2 0x4E JUMPI DUP1 PUSH4 0x8DA5CB5B EQ PUSH2 0x14E JUMPI DUP1 PUSH4 0x950FAE92 EQ PUSH2 0x179 JUMPI DUP1 PUSH4 0xAD5C4648 EQ PUSH2 0x195 JUMPI DUP1 PUSH4 0xF2FDE38B EQ PUSH2 0x1C0 JUMPI PUSH2 0xD7 JUMP JUMPDEST DUP1 PUSH4 0x19A86577 EQ PUSH2 0xDC JUMPI DUP1 PUSH4 0x41B2E56E EQ PUSH2 0x107 JUMPI DUP1 PUSH4 0x715018A6 EQ PUSH2 0x137 JUMPI PUSH2 0xD7 JUMP JUMPDEST CALLDATASIZE PUSH2 0xD7 JUMPI PUSH32 0x0 PUSH20 0xFFFFFFFFFFFFFFFFFFFFFFFFFFFFFFFFFFFFFFFF AND CALLER PUSH20 0xFFFFFFFFFFFFFFFFFFFFFFFFFFFFFFFFFFFFFFFF AND EQ PUSH2 0xD5 JUMPI PUSH2 0xD4 PUSH2 0x18EA JUMP JUMPDEST JUMPDEST STOP JUMPDEST PUSH1 0x0 DUP1 REVERT JUMPDEST CALLVALUE DUP1 ISZERO PUSH2 0xE8 JUMPI PUSH1 0x0 DUP1 REVERT JUMPDEST POP PUSH2 0xF1 PUSH2 0x1E9 JUMP JUMPDEST PUSH1 0x40 MLOAD PUSH2 0xFE SWAP2 SWAP1 PUSH2 0x1932 JUMP JUMPDEST PUSH1 0x40 MLOAD DUP1 SWAP2 SUB SWAP1 RETURN JUMPDEST PUSH2 0x121 PUSH1 0x4 DUP1 CALLDATASIZE SUB DUP2 ADD SWAP1 PUSH2 0x11C SWAP2 SWAP1 PUSH2 0x1A7C JUMP JUMPDEST PUSH2 0x1EF JUMP JUMPDEST PUSH1 0x40 MLOAD PUSH2 0x12E SWAP2 SWAP1 PUSH2 0x1BFC JUMP JUMPDEST PUSH1 0x40 MLOAD DUP1 SWAP2 SUB SWAP1 RETURN JUMPDEST CALLVALUE DUP1 ISZERO PUSH2 0x143 JUMPI PUSH1 0x0 DUP1 REVERT JUMPDEST POP PUSH2 0x14C PUSH2 0x5C9 JUMP JUMPDEST STOP JUMPDEST CALLVALUE DUP1 ISZERO PUSH2 0x15A JUMPI PUSH1 0x0 DUP1 REVERT JUMPDEST POP PUSH2 0x163 PUSH2 0x651 JUMP JUMPDEST PUSH1 0x40 MLOAD PUSH2 0x170 SWAP2 SWAP1 PUSH2 0x1C2D JUMP JUMPDEST PUSH1 0x40 MLOAD DUP1 SWAP2 SUB SWAP1 RETURN JUMPDEST PUSH2 0x193 PUSH1 0x4 DUP1 CALLDATASIZE SUB DUP2 ADD SWAP1 PUSH2 0x18E SWAP2 SWAP1 PUSH2 0x1A7C JUMP JUMPDEST PUSH2 0x67A JUMP JUMPDEST STOP JUMPDEST CALLVALUE DUP1 ISZERO PUSH2 0x1A1 JUMPI PUSH1 0x0 DUP1 REVERT JUMPDEST POP PUSH2 0x1AA PUSH2 0xB19 JUMP JUMPDEST PUSH1 0x40 MLOAD PUSH2 0x1B7 SWAP2 SWAP1 PUSH2 0x1C2D JUMP JUMPDEST PUSH1 0x40 MLOAD DUP1 SWAP2 SUB SWAP1 RETURN JUMPDEST CALLVALUE DUP1 ISZERO PUSH2 0x1CC JUMPI PUSH1 0x0 DUP1 REVERT JUMPDEST POP PUSH2 0x1E7 PUSH1 0x4 DUP1 CALLDATASIZE SUB DUP2 ADD SWAP1 PUSH2 0x1E2 SWAP2 SWAP1 PUSH2 0x1C48 JUMP JUMPDEST PUSH2 0xB3D JUMP JUMPDEST STOP JUMPDEST PUSH2 0x2710 DUP2 JUMP JUMPDEST PUSH1 0x60 DUP4 TIMESTAMP DUP2 LT ISZERO PUSH2 0x235 JUMPI PUSH1 0x40 MLOAD PUSH32 0x8C379A000000000000000000000000000000000000000000000000000000000 DUP2 MSTORE PUSH1 0x4 ADD PUSH2 0x22C SWAP1 PUSH2 0x1CD2 JUMP JUMPDEST PUSH1 0x40 MLOAD DUP1 SWAP2 SUB SWAP1 REVERT JUMPDEST PUSH32 0x0 PUSH20 0xFFFFFFFFFFFFFFFFFFFFFFFFFFFFFFFFFFFFFFFF AND DUP9 DUP9 PUSH1 0x0 DUP2 DUP2 LT PUSH2 0x280 JUMPI PUSH2 0x27F PUSH2 0x1CF2 JUMP JUMPDEST JUMPDEST SWAP1 POP PUSH1 0x20 MUL ADD PUSH1 0x20 DUP2 ADD SWAP1 PUSH2 0x295 SWAP2 SWAP1 PUSH2 0x1C48 JUMP JUMPDEST PUSH20 0xFFFFFFFFFFFFFFFFFFFFFFFFFFFFFFFFFFFFFFFF AND EQ PUSH2 0x2EB JUMPI PUSH1 0x40 MLOAD PUSH32 0x8C379A000000000000000000000000000000000000000000000000000000000 DUP2 MSTORE PUSH1 0x4 ADD PUSH2 0x2E2 SWAP1 PUSH2 0x1D6D JUMP JUMPDEST PUSH1 0x40 MLOAD DUP1 SWAP2 SUB SWAP1 REVERT JUMPDEST CALLVALUE DUP11 GT ISZERO PUSH2 0x2F8 JUMPI PUSH1 0x0 DUP1 REVERT JUMPDEST PUSH2 0x345 DUP5 DUP12 DUP11 DUP11 DUP1 DUP1 PUSH1 0x20 MUL PUSH1 0x20 ADD PUSH1 0x40 MLOAD SWAP1 DUP2 ADD PUSH1 0x40 MSTORE DUP1 SWAP4 SWAP3 SWAP2 SWAP1 DUP2 DUP2 MSTORE PUSH1 0x20 ADD DUP4 DUP4 PUSH1 0x20 MUL DUP1 DUP3 DUP5 CALLDATACOPY PUSH1 0x0 DUP2 DUP5 ADD MSTORE PUSH1 0x1F NOT PUSH1 0x1F DUP3 ADD AND SWAP1 POP DUP1 DUP4 ADD SWAP3 POP POP POP POP POP POP POP DUP7 PUSH2 0xC34 JUMP JUMPDEST SWAP2 POP DUP9 DUP3 PUSH1 0x1 DUP5 MLOAD PUSH2 0x357 SWAP2 SWAP1 PUSH2 0x1DBC JUMP JUMPDEST DUP2 MLOAD DUP2 LT PUSH2 0x368 JUMPI PUSH2 0x367 PUSH2 0x1CF2 JUMP JUMPDEST JUMPDEST PUSH1 0x20 MUL PUSH1 0x20 ADD ADD MLOAD LT ISZERO PUSH2 0x3B1 JUMPI PUSH1 0x40 MLOAD PUSH32 0x8C379A000000000000000000000000000000000000000000000000000000000 DUP2 MSTORE PUSH1 0x4 ADD PUSH2 0x3A8 SWAP1 PUSH2 0x1E62 JUMP JUMPDEST PUSH1 0x40 MLOAD DUP1 SWAP2 SUB SWAP1 REVERT JUMPDEST PUSH32 0x0 PUSH20 0xFFFFFFFFFFFFFFFFFFFFFFFFFFFFFFFFFFFFFFFF AND PUSH4 0xD0E30DB0 DUP4 PUSH1 0x0 DUP2 MLOAD DUP2 LT PUSH2 0x401 JUMPI PUSH2 0x400 PUSH2 0x1CF2 JUMP JUMPDEST JUMPDEST PUSH1 0x20 MUL PUSH1 0x20 ADD ADD MLOAD PUSH1 0x40 MLOAD DUP3 PUSH4 0xFFFFFFFF AND PUSH1 0xE0 SHL DUP2 MSTORE PUSH1 0x4 ADD PUSH1 0x0 PUSH1 0x40 MLOAD DUP1 DUP4 SUB DUP2 DUP6 DUP9 DUP1 EXTCODESIZE ISZERO DUP1 ISZERO PUSH2 0x434 JUMPI PUSH1 0x0 DUP1 REVERT JUMPDEST POP GAS CALL ISZERO DUP1 ISZERO PUSH2 0x448 JUMPI RETURNDATASIZE PUSH1 0x0 DUP1 RETURNDATACOPY RETURNDATASIZE PUSH1 0x0 REVERT JUMPDEST POP POP POP POP POP PUSH32 0x0 PUSH20 0xFFFFFFFFFFFFFFFFFFFFFFFFFFFFFFFFFFFFFFFF AND PUSH4 0xA9059CBB PUSH2 0x4E5 DUP7 DUP12 DUP12 PUSH1 0x0 DUP2 DUP2 LT PUSH2 0x4A1 JUMPI PUSH2 0x4A0 PUSH2 0x1CF2 JUMP JUMPDEST JUMPDEST SWAP1 POP PUSH1 0x20 MUL ADD PUSH1 0x20 DUP2 ADD SWAP1 PUSH2 0x4B6 SWAP2 SWAP1 PUSH2 0x1C48 JUMP JUMPDEST DUP13 DUP13 PUSH1 0x1 DUP2 DUP2 LT PUSH2 0x4CA JUMPI PUSH2 0x4C9 PUSH2 0x1CF2 JUMP JUMPDEST JUMPDEST SWAP1 POP PUSH1 0x20 MUL ADD PUSH1 0x20 DUP2 ADD SWAP1 PUSH2 0x4DF SWAP2 SWAP1 PUSH2 0x1C48 JUMP JUMPDEST DUP9 PUSH2 0xDC1 JUMP JUMPDEST DUP5 PUSH1 0x0 DUP2 MLOAD DUP2 LT PUSH2 0x4F9 JUMPI PUSH2 0x4F8 PUSH2 0x1CF2 JUMP JUMPDEST JUMPDEST PUSH1 0x20 MUL PUSH1 0x20 ADD ADD MLOAD PUSH1 0x40 MLOAD DUP4 PUSH4 0xFFFFFFFF AND PUSH1 0xE0 SHL DUP2 MSTORE PUSH1 0x4 ADD PUSH2 0x51E SWAP3 SWAP2 SWAP1 PUSH2 0x1E82 JUMP JUMPDEST PUSH1 0x20 PUSH1 0x40 MLOAD DUP1 DUP4 SUB DUP2 PUSH1 0x0 DUP8 GAS CALL ISZERO DUP1 ISZERO PUSH2 0x53D JUMPI RETURNDATASIZE PUSH1 0x0 DUP1 RETURNDATACOPY RETURNDATASIZE PUSH1 0x0 REVERT JUMPDEST POP POP POP POP PUSH1 0x40 MLOAD RETURNDATASIZE PUSH1 0x1F NOT PUSH1 0x1F DUP3 ADD AND DUP3 ADD DUP1 PUSH1 0x40 MSTORE POP DUP2 ADD SWAP1 PUSH2 0x561 SWAP2 SWAP1 PUSH2 0x1EE3 JUMP JUMPDEST PUSH2 0x56E JUMPI PUSH2 0x56D PUSH2 0x18EA JUMP JUMPDEST JUMPDEST PUSH2 0x5BC DUP5 DUP4 DUP11 DUP11 DUP1 DUP1 PUSH1 0x20 MUL PUSH1 0x20 ADD PUSH1 0x40 MLOAD SWAP1 DUP2 ADD PUSH1 0x40 MSTORE DUP1 SWAP4 SWAP3 SWAP2 SWAP1 DUP2 DUP2 MSTORE PUSH1 0x20 ADD DUP4 DUP4 PUSH1 0x20 MUL DUP1 DUP3 DUP5 CALLDATACOPY PUSH1 0x0 DUP2 DUP5 ADD MSTORE PUSH1 0x1F NOT PUSH1 0x1F DUP3 ADD AND SWAP1 POP DUP1 DUP4 ADD SWAP3 POP POP POP POP POP POP POP DUP10 DUP8 PUSH2 0xE36 JUMP JUMPDEST POP SWAP9 SWAP8 POP POP POP POP POP POP POP POP JUMP JUMPDEST PUSH2 0x5D1 PUSH2 0x1053 JUMP JUMPDEST PUSH20 0xFFFFFFFFFFFFFFFFFFFFFFFFFFFFFFFFFFFFFFFF AND PUSH2 0x5EF PUSH2 0x651 JUMP JUMPDEST PUSH20 0xFFFFFFFFFFFFFFFFFFFFFFFFFFFFFFFFFFFFFFFF AND EQ PUSH2 0x645 JUMPI PUSH1 0x40 MLOAD PUSH32 0x8C379A000000000000000000000000000000000000000000000000000000000 DUP2 MSTORE PUSH1 0x4 ADD PUSH2 0x63C SWAP1 PUSH2 0x1F5C JUMP JUMPDEST PUSH1 0x40 MLOAD DUP1 SWAP2 SUB SWAP1 REVERT JUMPDEST PUSH2 0x64F PUSH1 0x0 PUSH2 0x105B JUMP JUMPDEST JUMP JUMPDEST PUSH1 0x0 DUP1 PUSH1 0x0 SWAP1 SLOAD SWAP1 PUSH2 0x100 EXP SWAP1 DIV PUSH20 0xFFFFFFFFFFFFFFFFFFFFFFFFFFFFFFFFFFFFFFFF AND SWAP1 POP SWAP1 JUMP JUMPDEST DUP3 TIMESTAMP DUP2 LT ISZERO PUSH2 0x6BE JUMPI PUSH1 0x40 MLOAD PUSH32 0x8C379A000000000000000000000000000000000000000000000000000000000 DUP2 MSTORE PUSH1 0x4 ADD PUSH2 0x6B5 SWAP1 PUSH2 0x1CD2 JUMP JUMPDEST PUSH1 0x40 MLOAD DUP1 SWAP2 SUB SWAP1 REVERT JUMPDEST PUSH32 0x0 PUSH20 0xFFFFFFFFFFFFFFFFFFFFFFFFFFFFFFFFFFFFFFFF AND DUP8 DUP8 PUSH1 0x0 DUP2 DUP2 LT PUSH2 0x709 JUMPI PUSH2 0x708 PUSH2 0x1CF2 JUMP JUMPDEST JUMPDEST SWAP1 POP PUSH1 0x20 MUL ADD PUSH1 0x20 DUP2 ADD SWAP1 PUSH2 0x71E SWAP2 SWAP1 PUSH2 0x1C48 JUMP JUMPDEST PUSH20 0xFFFFFFFFFFFFFFFFFFFFFFFFFFFFFFFFFFFFFFFF AND EQ PUSH2 0x774 JUMPI PUSH1 0x40 MLOAD PUSH32 0x8C379A000000000000000000000000000000000000000000000000000000000 DUP2 MSTORE PUSH1 0x4 ADD PUSH2 0x76B SWAP1 PUSH2 0x1D6D JUMP JUMPDEST PUSH1 0x40 MLOAD DUP1 SWAP2 SUB SWAP1 REVERT JUMPDEST CALLVALUE DUP10 GT ISZERO PUSH2 0x781 JUMPI PUSH1 0x0 DUP1 REVERT JUMPDEST PUSH32 0x0 PUSH20 0xFFFFFFFFFFFFFFFFFFFFFFFFFFFFFFFFFFFFFFFF AND PUSH4 0xD0E30DB0 DUP11 PUSH1 0x40 MLOAD DUP3 PUSH4 0xFFFFFFFF AND PUSH1 0xE0 SHL DUP2 MSTORE PUSH1 0x4 ADD PUSH1 0x0 PUSH1 0x40 MLOAD DUP1 DUP4 SUB DUP2 DUP6 DUP9 DUP1 EXTCODESIZE ISZERO DUP1 ISZERO PUSH2 0x7E9 JUMPI PUSH1 0x0 DUP1 REVERT JUMPDEST POP GAS CALL ISZERO DUP1 ISZERO PUSH2 0x7FD JUMPI RETURNDATASIZE PUSH1 0x0 DUP1 RETURNDATACOPY RETURNDATASIZE PUSH1 0x0 REVERT JUMPDEST POP POP POP POP POP PUSH32 0x0 PUSH20 0xFFFFFFFFFFFFFFFFFFFFFFFFFFFFFFFFFFFFFFFF AND PUSH4 0xA9059CBB PUSH2 0x89A DUP6 DUP11 DUP11 PUSH1 0x0 DUP2 DUP2 LT PUSH2 0x856 JUMPI PUSH2 0x855 PUSH2 0x1CF2 JUMP JUMPDEST JUMPDEST SWAP1 POP PUSH1 0x20 MUL ADD PUSH1 0x20 DUP2 ADD SWAP1 PUSH2 0x86B SWAP2 SWAP1 PUSH2 0x1C48 JUMP JUMPDEST DUP12 DUP12 PUSH1 0x1 DUP2 DUP2 LT PUSH2 0x87F JUMPI PUSH2 0x87E PUSH2 0x1CF2 JUMP JUMPDEST JUMPDEST SWAP1 POP PUSH1 0x20 MUL ADD PUSH1 0x20 DUP2 ADD SWAP1 PUSH2 0x894 SWAP2 SWAP1 PUSH2 0x1C48 JUMP JUMPDEST DUP8 PUSH2 0xDC1 JUMP JUMPDEST DUP12 PUSH1 0x40 MLOAD DUP4 PUSH4 0xFFFFFFFF AND PUSH1 0xE0 SHL DUP2 MSTORE PUSH1 0x4 ADD PUSH2 0x8B8 SWAP3 SWAP2 SWAP1 PUSH2 0x1E82 JUMP JUMPDEST PUSH1 0x20 PUSH1 0x40 MLOAD DUP1 DUP4 SUB DUP2 PUSH1 0x0 DUP8 GAS CALL ISZERO DUP1 ISZERO PUSH2 0x8D7 JUMPI RETURNDATASIZE PUSH1 0x0 DUP1 RETURNDATACOPY RETURNDATASIZE PUSH1 0x0 REVERT JUMPDEST POP POP POP POP PUSH1 0x40 MLOAD RETURNDATASIZE PUSH1 0x1F NOT PUSH1 0x1F DUP3 ADD AND DUP3 ADD DUP1 PUSH1 0x40 MSTORE POP DUP2 ADD SWAP1 PUSH2 0x8FB SWAP2 SWAP1 PUSH2 0x1EE3 JUMP JUMPDEST PUSH2 0x908 JUMPI PUSH2 0x907 PUSH2 0x18EA JUMP JUMPDEST JUMPDEST PUSH1 0x0 DUP8 DUP8 PUSH1 0x1 DUP11 DUP11 SWAP1 POP PUSH2 0x91C SWAP2 SWAP1 PUSH2 0x1DBC JUMP JUMPDEST DUP2 DUP2 LT PUSH2 0x92C JUMPI PUSH2 0x92B PUSH2 0x1CF2 JUMP JUMPDEST JUMPDEST SWAP1 POP PUSH1 0x20 MUL ADD PUSH1 0x20 DUP2 ADD SWAP1 PUSH2 0x941 SWAP2 SWAP1 PUSH2 0x1C48 JUMP JUMPDEST PUSH20 0xFFFFFFFFFFFFFFFFFFFFFFFFFFFFFFFFFFFFFFFF AND PUSH4 0x70A08231 DUP8 PUSH1 0x40 MLOAD DUP3 PUSH4 0xFFFFFFFF AND PUSH1 0xE0 SHL DUP2 MSTORE PUSH1 0x4 ADD PUSH2 0x979 SWAP2 SWAP1 PUSH2 0x1C2D JUMP JUMPDEST PUSH1 0x20 PUSH1 0x40 MLOAD DUP1 DUP4 SUB DUP2 DUP7 GAS STATICCALL ISZERO DUP1 ISZERO PUSH2 0x996 JUMPI RETURNDATASIZE PUSH1 0x0 DUP1 RETURNDATACOPY RETURNDATASIZE PUSH1 0x0 REVERT JUMPDEST POP POP POP POP PUSH1 0x40 MLOAD RETURNDATASIZE PUSH1 0x1F NOT PUSH1 0x1F DUP3 ADD AND DUP3 ADD DUP1 PUSH1 0x40 MSTORE POP DUP2 ADD SWAP1 PUSH2 0x9BA SWAP2 SWAP1 PUSH2 0x1F91 JUMP JUMPDEST SWAP1 POP PUSH2 0xA09 DUP5 DUP10 DUP10 DUP1 DUP1 PUSH1 0x20 MUL PUSH1 0x20 ADD PUSH1 0x40 MLOAD SWAP1 DUP2 ADD PUSH1 0x40 MSTORE DUP1 SWAP4 SWAP3 SWAP2 SWAP1 DUP2 DUP2 MSTORE PUSH1 0x20 ADD DUP4 DUP4 PUSH1 0x20 MUL DUP1 DUP3 DUP5 CALLDATACOPY PUSH1 0x0 DUP2 DUP5 ADD MSTORE PUSH1 0x1F NOT PUSH1 0x1F DUP3 ADD AND SWAP1 POP DUP1 DUP4 ADD SWAP3 POP POP POP POP POP POP POP DUP9 DUP7 PUSH2 0x111F JUMP JUMPDEST DUP9 PUSH2 0xACC DUP3 DUP11 DUP11 PUSH1 0x1 DUP14 DUP14 SWAP1 POP PUSH2 0xA20 SWAP2 SWAP1 PUSH2 0x1DBC JUMP JUMPDEST DUP2 DUP2 LT PUSH2 0xA30 JUMPI PUSH2 0xA2F PUSH2 0x1CF2 JUMP JUMPDEST JUMPDEST SWAP1 POP PUSH1 0x20 MUL ADD PUSH1 0x20 DUP2 ADD SWAP1 PUSH2 0xA45 SWAP2 SWAP1 PUSH2 0x1C48 JUMP JUMPDEST PUSH20 0xFFFFFFFFFFFFFFFFFFFFFFFFFFFFFFFFFFFFFFFF AND PUSH4 0x70A08231 DUP11 PUSH1 0x40 MLOAD DUP3 PUSH4 0xFFFFFFFF AND PUSH1 0xE0 SHL DUP2 MSTORE PUSH1 0x4 ADD PUSH2 0xA7D SWAP2 SWAP1 PUSH2 0x1C2D JUMP JUMPDEST PUSH1 0x20 PUSH1 0x40 MLOAD DUP1 DUP4 SUB DUP2 DUP7 GAS STATICCALL ISZERO DUP1 ISZERO PUSH2 0xA9A JUMPI RETURNDATASIZE PUSH1 0x0 DUP1 RETURNDATACOPY RETURNDATASIZE PUSH1 0x0 REVERT JUMPDEST POP POP POP POP PUSH1 0x40 MLOAD RETURNDATASIZE PUSH1 0x1F NOT PUSH1 0x1F DUP3 ADD AND DUP3 ADD DUP1 PUSH1 0x40 MSTORE POP DUP2 ADD SWAP1 PUSH2 0xABE SWAP2 SWAP1 PUSH2 0x1F91 JUMP JUMPDEST PUSH2 0x1494 SWAP1 SWAP2 SWAP1 PUSH4 0xFFFFFFFF AND JUMP JUMPDEST LT ISZERO PUSH2 0xB0D JUMPI PUSH1 0x40 MLOAD PUSH32 0x8C379A000000000000000000000000000000000000000000000000000000000 DUP2 MSTORE PUSH1 0x4 ADD PUSH2 0xB04 SWAP1 PUSH2 0x1E62 JUMP JUMPDEST PUSH1 0x40 MLOAD DUP1 SWAP2 SUB SWAP1 REVERT JUMPDEST POP POP POP POP POP POP POP POP POP POP JUMP JUMPDEST PUSH32 0x0 DUP2 JUMP JUMPDEST PUSH2 0xB45 PUSH2 0x1053 JUMP JUMPDEST PUSH20 0xFFFFFFFFFFFFFFFFFFFFFFFFFFFFFFFFFFFFFFFF AND PUSH2 0xB63 PUSH2 0x651 JUMP JUMPDEST PUSH20 0xFFFFFFFFFFFFFFFFFFFFFFFFFFFFFFFFFFFFFFFF AND EQ PUSH2 0xBB9 JUMPI PUSH1 0x40 MLOAD PUSH32 0x8C379A000000000000000000000000000000000000000000000000000000000 DUP2 MSTORE PUSH1 0x4 ADD PUSH2 0xBB0 SWAP1 PUSH2 0x1F5C JUMP JUMPDEST PUSH1 0x40 MLOAD DUP1 SWAP2 SUB SWAP1 REVERT JUMPDEST PUSH1 0x0 PUSH20 0xFFFFFFFFFFFFFFFFFFFFFFFFFFFFFFFFFFFFFFFF AND DUP2 PUSH20 0xFFFFFFFFFFFFFFFFFFFFFFFFFFFFFFFFFFFFFFFF AND SUB PUSH2 0xC28 JUMPI PUSH1 0x40 MLOAD PUSH32 0x8C379A000000000000000000000000000000000000000000000000000000000 DUP2 MSTORE PUSH1 0x4 ADD PUSH2 0xC1F SWAP1 PUSH2 0x2030 JUMP JUMPDEST PUSH1 0x40 MLOAD DUP1 SWAP2 SUB SWAP1 REVERT JUMPDEST PUSH2 0xC31 DUP2 PUSH2 0x105B JUMP JUMPDEST POP JUMP JUMPDEST PUSH1 0x60 PUSH1 0x2 DUP4 MLOAD LT ISZERO PUSH2 0xC7B JUMPI PUSH1 0x40 MLOAD PUSH32 0x8C379A000000000000000000000000000000000000000000000000000000000 DUP2 MSTORE PUSH1 0x4 ADD PUSH2 0xC72 SWAP1 PUSH2 0x209C JUMP JUMPDEST PUSH1 0x40 MLOAD DUP1 SWAP2 SUB SWAP1 REVERT JUMPDEST DUP3 MLOAD PUSH8 0xFFFFFFFFFFFFFFFF DUP2 GT ISZERO PUSH2 0xC96 JUMPI PUSH2 0xC95 PUSH2 0x20BC JUMP JUMPDEST JUMPDEST PUSH1 0x40 MLOAD SWAP1 DUP1 DUP3 MSTORE DUP1 PUSH1 0x20 MUL PUSH1 0x20 ADD DUP3 ADD PUSH1 0x40 MSTORE DUP1 ISZERO PUSH2 0xCC4 JUMPI DUP2 PUSH1 0x20 ADD PUSH1 0x20 DUP3 MUL DUP1 CALLDATASIZE DUP4 CALLDATACOPY DUP1 DUP3 ADD SWAP2 POP POP SWAP1 POP JUMPDEST POP SWAP1 POP DUP4 DUP2 PUSH1 0x0 DUP2 MLOAD DUP2 LT PUSH2 0xCDC JUMPI PUSH2 0xCDB PUSH2 0x1CF2 JUMP JUMPDEST JUMPDEST PUSH1 0x20 MUL PUSH1 0x20 ADD ADD DUP2 DUP2 MSTORE POP POP PUSH1 0x0 JUMPDEST PUSH1 0x1 DUP5 MLOAD PUSH2 0xCF9 SWAP2 SWAP1 PUSH2 0x1DBC JUMP JUMPDEST DUP2 LT ISZERO PUSH2 0xDB8 JUMPI PUSH1 0x0 DUP1 PUSH2 0xD4F DUP9 DUP8 DUP6 DUP2 MLOAD DUP2 LT PUSH2 0xD1A JUMPI PUSH2 0xD19 PUSH2 0x1CF2 JUMP JUMPDEST JUMPDEST PUSH1 0x20 MUL PUSH1 0x20 ADD ADD MLOAD DUP9 PUSH1 0x1 DUP8 PUSH2 0xD30 SWAP2 SWAP1 PUSH2 0x20EB JUMP JUMPDEST DUP2 MLOAD DUP2 LT PUSH2 0xD41 JUMPI PUSH2 0xD40 PUSH2 0x1CF2 JUMP JUMPDEST JUMPDEST PUSH1 0x20 MUL PUSH1 0x20 ADD ADD MLOAD DUP9 PUSH2 0x14ED JUMP JUMPDEST SWAP2 POP SWAP2 POP PUSH2 0xD78 DUP5 DUP5 DUP2 MLOAD DUP2 LT PUSH2 0xD69 JUMPI PUSH2 0xD68 PUSH2 0x1CF2 JUMP JUMPDEST JUMPDEST PUSH1 0x20 MUL PUSH1 0x20 ADD ADD MLOAD DUP4 DUP4 PUSH2 0x15F2 JUMP JUMPDEST DUP5 PUSH1 0x1 DUP6 PUSH2 0xD86 SWAP2 SWAP1 PUSH2 0x20EB JUMP JUMPDEST DUP2 MLOAD DUP2 LT PUSH2 0xD97 JUMPI PUSH2 0xD96 PUSH2 0x1CF2 JUMP JUMPDEST JUMPDEST PUSH1 0x20 MUL PUSH1 0x20 ADD ADD DUP2 DUP2 MSTORE POP POP POP POP DUP1 DUP1 PUSH2 0xDB0 SWAP1 PUSH2 0x211F JUMP JUMPDEST SWAP2 POP POP PUSH2 0xCEB JUMP JUMPDEST POP SWAP5 SWAP4 POP POP POP POP JUMP JUMPDEST PUSH1 0x0 DUP1 PUSH1 0x0 PUSH2 0xDD0 DUP7 DUP7 PUSH2 0x16F8 JUMP JUMPDEST SWAP2 POP SWAP2 POP DUP7 DUP3 DUP3 PUSH1 0x40 MLOAD PUSH1 0x20 ADD PUSH2 0xDE8 SWAP3 SWAP2 SWAP1 PUSH2 0x21AF JUMP JUMPDEST PUSH1 0x40 MLOAD PUSH1 0x20 DUP2 DUP4 SUB SUB DUP2 MSTORE SWAP1 PUSH1 0x40 MSTORE DUP1 MLOAD SWAP1 PUSH1 0x20 ADD KECCAK256 DUP6 PUSH1 0x40 MLOAD PUSH1 0x20 ADD PUSH2 0xE11 SWAP4 SWAP3 SWAP2 SWAP1 PUSH2 0x2253 JUMP JUMPDEST PUSH1 0x40 MLOAD PUSH1 0x20 DUP2 DUP4 SUB SUB DUP2 MSTORE SWAP1 PUSH1 0x40 MSTORE DUP1 MLOAD SWAP1 PUSH1 0x20 ADD KECCAK256 PUSH1 0x0 SHR SWAP3 POP POP POP SWAP5 SWAP4 POP POP POP POP JUMP JUMPDEST PUSH1 0x0 JUMPDEST PUSH1 0x1 DUP5 MLOAD PUSH2 0xE47 SWAP2 SWAP1 PUSH2 0x1DBC JUMP JUMPDEST DUP2 LT ISZERO PUSH2 0x104B JUMPI PUSH1 0x0 DUP1 DUP6 DUP4 DUP2 MLOAD DUP2 LT PUSH2 0xE64 JUMPI PUSH2 0xE63 PUSH2 0x1CF2 JUMP JUMPDEST JUMPDEST PUSH1 0x20 MUL PUSH1 0x20 ADD ADD MLOAD DUP7 PUSH1 0x1 DUP6 PUSH2 0xE7A SWAP2 SWAP1 PUSH2 0x20EB JUMP JUMPDEST DUP2 MLOAD DUP2 LT PUSH2 0xE8B JUMPI PUSH2 0xE8A PUSH2 0x1CF2 JUMP JUMPDEST JUMPDEST PUSH1 0x20 MUL PUSH1 0x20 ADD ADD MLOAD SWAP2 POP SWAP2 POP PUSH1 0x0 PUSH2 0xEA3 DUP4 DUP4 PUSH2 0x16F8 JUMP JUMPDEST POP SWAP1 POP PUSH1 0x0 DUP9 PUSH1 0x1 DUP7 PUSH2 0xEB6 SWAP2 SWAP1 PUSH2 0x20EB JUMP JUMPDEST DUP2 MLOAD DUP2 LT PUSH2 0xEC7 JUMPI PUSH2 0xEC6 PUSH2 0x1CF2 JUMP JUMPDEST JUMPDEST PUSH1 0x20 MUL PUSH1 0x20 ADD ADD MLOAD SWAP1 POP PUSH1 0x0 DUP1 DUP4 PUSH20 0xFFFFFFFFFFFFFFFFFFFFFFFFFFFFFFFFFFFFFFFF AND DUP7 PUSH20 0xFFFFFFFFFFFFFFFFFFFFFFFFFFFFFFFFFFFFFFFF AND EQ PUSH2 0xF0F JUMPI DUP3 PUSH1 0x0 PUSH2 0xF13 JUMP JUMPDEST PUSH1 0x0 DUP4 JUMPDEST SWAP2 POP SWAP2 POP PUSH1 0x0 PUSH1 0x2 DUP12 MLOAD PUSH2 0xF27 SWAP2 SWAP1 PUSH2 0x1DBC JUMP JUMPDEST DUP9 LT PUSH2 0xF33 JUMPI DUP10 PUSH2 0xF66 JUMP JUMPDEST PUSH2 0xF65 DUP14 DUP8 DUP14 PUSH1 0x2 DUP13 PUSH2 0xF46 SWAP2 SWAP1 PUSH2 0x20EB JUMP JUMPDEST DUP2 MLOAD DUP2 LT PUSH2 0xF57 JUMPI PUSH2 0xF56 PUSH2 0x1CF2 JUMP JUMPDEST JUMPDEST PUSH1 0x20 MUL PUSH1 0x20 ADD ADD MLOAD DUP13 PUSH2 0xDC1 JUMP JUMPDEST JUMPDEST SWAP1 POP PUSH2 0xF74 DUP14 DUP9 DUP9 DUP13 PUSH2 0xDC1 JUMP JUMPDEST PUSH20 0xFFFFFFFFFFFFFFFFFFFFFFFFFFFFFFFFFFFFFFFF AND PUSH4 0x22C0D9F DUP5 DUP5 DUP5 PUSH1 0x0 PUSH8 0xFFFFFFFFFFFFFFFF DUP2 GT ISZERO PUSH2 0xFAD JUMPI PUSH2 0xFAC PUSH2 0x20BC JUMP JUMPDEST JUMPDEST PUSH1 0x40 MLOAD SWAP1 DUP1 DUP3 MSTORE DUP1 PUSH1 0x1F ADD PUSH1 0x1F NOT AND PUSH1 0x20 ADD DUP3 ADD PUSH1 0x40 MSTORE DUP1 ISZERO PUSH2 0xFDF JUMPI DUP2 PUSH1 0x20 ADD PUSH1 0x1 DUP3 MUL DUP1 CALLDATASIZE DUP4 CALLDATACOPY DUP1 DUP3 ADD SWAP2 POP POP SWAP1 POP JUMPDEST POP PUSH1 0x40 MLOAD DUP6 PUSH4 0xFFFFFFFF AND PUSH1 0xE0 SHL DUP2 MSTORE PUSH1 0x4 ADD PUSH2 0xFFF SWAP5 SWAP4 SWAP3 SWAP2 SWAP1 PUSH2 0x232B JUMP JUMPDEST PUSH1 0x0 PUSH1 0x40 MLOAD DUP1 DUP4 SUB DUP2 PUSH1 0x0 DUP8 DUP1 EXTCODESIZE ISZERO DUP1 ISZERO PUSH2 0x1019 JUMPI PUSH1 0x0 DUP1 REVERT JUMPDEST POP GAS CALL ISZERO DUP1 ISZERO PUSH2 0x102D JUMPI RETURNDATASIZE PUSH1 0x0 DUP1 RETURNDATACOPY RETURNDATASIZE PUSH1 0x0 REVERT JUMPDEST POP POP POP POP POP POP POP POP POP POP POP DUP1 DUP1 PUSH2 0x1043 SWAP1 PUSH2 0x211F JUMP JUMPDEST SWAP2 POP POP PUSH2 0xE39 JUMP JUMPDEST POP POP POP POP POP POP JUMP JUMPDEST PUSH1 0x0 CALLER SWAP1 POP SWAP1 JUMP JUMPDEST PUSH1 0x0 DUP1 PUSH1 0x0 SWAP1 SLOAD SWAP1 PUSH2 0x100 EXP SWAP1 DIV PUSH20 0xFFFFFFFFFFFFFFFFFFFFFFFFFFFFFFFFFFFFFFFF AND SWAP1 POP DUP2 PUSH1 0x0 DUP1 PUSH2 0x100 EXP DUP2 SLOAD DUP2 PUSH20 0xFFFFFFFFFFFFFFFFFFFFFFFFFFFFFFFFFFFFFFFF MUL NOT AND SWAP1 DUP4 PUSH20 0xFFFFFFFFFFFFFFFFFFFFFFFFFFFFFFFFFFFFFFFF AND MUL OR SWAP1 SSTORE POP DUP2 PUSH20 0xFFFFFFFFFFFFFFFFFFFFFFFFFFFFFFFFFFFFFFFF AND DUP2 PUSH20 0xFFFFFFFFFFFFFFFFFFFFFFFFFFFFFFFFFFFFFFFF AND PUSH32 0x8BE0079C531659141344CD1FD0A4F28419497F9722A3DAAFE3B4186F6B6457E0 PUSH1 0x40 MLOAD PUSH1 0x40 MLOAD DUP1 SWAP2 SUB SWAP1 LOG3 POP POP JUMP JUMPDEST PUSH1 0x0 JUMPDEST PUSH1 0x1 DUP5 MLOAD PUSH2 0x1130 SWAP2 SWAP1 PUSH2 0x1DBC JUMP JUMPDEST DUP2 LT ISZERO PUSH2 0x148D JUMPI PUSH1 0x0 DUP1 DUP6 DUP4 DUP2 MLOAD DUP2 LT PUSH2 0x114D JUMPI PUSH2 0x114C PUSH2 0x1CF2 JUMP JUMPDEST JUMPDEST PUSH1 0x20 MUL PUSH1 0x20 ADD ADD MLOAD DUP7 PUSH1 0x1 DUP6 PUSH2 0x1163 SWAP2 SWAP1 PUSH2 0x20EB JUMP JUMPDEST DUP2 MLOAD DUP2 LT PUSH2 0x1174 JUMPI PUSH2 0x1173 PUSH2 0x1CF2 JUMP JUMPDEST JUMPDEST PUSH1 0x20 MUL PUSH1 0x20 ADD ADD MLOAD SWAP2 POP SWAP2 POP PUSH1 0x0 PUSH2 0x118C DUP4 DUP4 PUSH2 0x16F8 JUMP JUMPDEST POP SWAP1 POP PUSH1 0x0 PUSH2 0x119D DUP10 DUP6 DUP6 DUP10 PUSH2 0xDC1 JUMP JUMPDEST SWAP1 POP PUSH1 0x0 DUP1 PUSH1 0x0 DUP1 DUP5 PUSH20 0xFFFFFFFFFFFFFFFFFFFFFFFFFFFFFFFFFFFFFFFF AND PUSH4 0x902F1AC PUSH1 0x40 MLOAD DUP2 PUSH4 0xFFFFFFFF AND PUSH1 0xE0 SHL DUP2 MSTORE PUSH1 0x4 ADD PUSH1 0x60 PUSH1 0x40 MLOAD DUP1 DUP4 SUB DUP2 DUP7 GAS STATICCALL ISZERO DUP1 ISZERO PUSH2 0x11F0 JUMPI RETURNDATASIZE PUSH1 0x0 DUP1 RETURNDATACOPY RETURNDATASIZE PUSH1 0x0 REVERT JUMPDEST POP POP POP POP PUSH1 0x40 MLOAD RETURNDATASIZE PUSH1 0x1F NOT PUSH1 0x1F DUP3 ADD AND DUP3 ADD DUP1 PUSH1 0x40 MSTORE POP DUP2 ADD SWAP1 PUSH2 0x1214 SWAP2 SWAP1 PUSH2 0x23F9 JUMP JUMPDEST POP PUSH14 0xFFFFFFFFFFFFFFFFFFFFFFFFFFFF AND SWAP2 POP PUSH14 0xFFFFFFFFFFFFFFFFFFFFFFFFFFFF AND SWAP2 POP PUSH1 0x0 DUP1 DUP8 PUSH20 0xFFFFFFFFFFFFFFFFFFFFFFFFFFFFFFFFFFFFFFFF AND DUP11 PUSH20 0xFFFFFFFFFFFFFFFFFFFFFFFFFFFFFFFFFFFFFFFF AND EQ PUSH2 0x1276 JUMPI DUP3 DUP5 PUSH2 0x1279 JUMP JUMPDEST DUP4 DUP4 JUMPDEST SWAP2 POP SWAP2 POP PUSH2 0x1309 DUP3 DUP12 PUSH20 0xFFFFFFFFFFFFFFFFFFFFFFFFFFFFFFFFFFFFFFFF AND PUSH4 0x70A08231 DUP11 PUSH1 0x40 MLOAD DUP3 PUSH4 0xFFFFFFFF AND PUSH1 0xE0 SHL DUP2 MSTORE PUSH1 0x4 ADD PUSH2 0x12BA SWAP2 SWAP1 PUSH2 0x1C2D JUMP JUMPDEST PUSH1 0x20 PUSH1 0x40 MLOAD DUP1 DUP4 SUB DUP2 DUP7 GAS STATICCALL ISZERO DUP1 ISZERO PUSH2 0x12D7 JUMPI RETURNDATASIZE PUSH1 0x0 DUP1 RETURNDATACOPY RETURNDATASIZE PUSH1 0x0 REVERT JUMPDEST POP POP POP POP PUSH1 0x40 MLOAD RETURNDATASIZE PUSH1 0x1F NOT PUSH1 0x1F DUP3 ADD AND DUP3 ADD DUP1 PUSH1 0x40 MSTORE POP DUP2 ADD SWAP1 PUSH2 0x12FB SWAP2 SWAP1 PUSH2 0x1F91 JUMP JUMPDEST PUSH2 0x1494 SWAP1 SWAP2 SWAP1 PUSH4 0xFFFFFFFF AND JUMP JUMPDEST SWAP6 POP PUSH2 0x1316 DUP7 DUP4 DUP4 PUSH2 0x15F2 JUMP JUMPDEST SWAP5 POP POP POP POP POP PUSH1 0x0 DUP1 DUP6 PUSH20 0xFFFFFFFFFFFFFFFFFFFFFFFFFFFFFFFFFFFFFFFF AND DUP9 PUSH20 0xFFFFFFFFFFFFFFFFFFFFFFFFFFFFFFFFFFFFFFFF AND EQ PUSH2 0x135A JUMPI DUP3 PUSH1 0x0 PUSH2 0x135E JUMP JUMPDEST PUSH1 0x0 DUP4 JUMPDEST SWAP2 POP SWAP2 POP PUSH1 0x0 PUSH1 0x2 DUP14 MLOAD PUSH2 0x1372 SWAP2 SWAP1 PUSH2 0x1DBC JUMP JUMPDEST DUP11 LT PUSH2 0x137E JUMPI DUP12 PUSH2 0x13B1 JUMP JUMPDEST PUSH2 0x13B0 DUP15 DUP10 DUP16 PUSH1 0x2 DUP15 PUSH2 0x1391 SWAP2 SWAP1 PUSH2 0x20EB JUMP JUMPDEST DUP2 MLOAD DUP2 LT PUSH2 0x13A2 JUMPI PUSH2 0x13A1 PUSH2 0x1CF2 JUMP JUMPDEST JUMPDEST PUSH1 0x20 MUL PUSH1 0x20 ADD ADD MLOAD DUP15 PUSH2 0xDC1 JUMP JUMPDEST JUMPDEST SWAP1 POP DUP6 PUSH20 0xFFFFFFFFFFFFFFFFFFFFFFFFFFFFFFFFFFFFFFFF AND PUSH4 0x22C0D9F DUP5 DUP5 DUP5 PUSH1 0x0 PUSH8 0xFFFFFFFFFFFFFFFF DUP2 GT ISZERO PUSH2 0x13ED JUMPI PUSH2 0x13EC PUSH2 0x20BC JUMP JUMPDEST JUMPDEST PUSH1 0x40 MLOAD SWAP1 DUP1 DUP3 MSTORE DUP1 PUSH1 0x1F ADD PUSH1 0x1F NOT AND PUSH1 0x20 ADD DUP3 ADD PUSH1 0x40 MSTORE DUP1 ISZERO PUSH2 0x141F JUMPI DUP2 PUSH1 0x20 ADD PUSH1 0x1 DUP3 MUL DUP1 CALLDATASIZE DUP4 CALLDATACOPY DUP1 DUP3 ADD SWAP2 POP POP SWAP1 POP JUMPDEST POP PUSH1 0x40 MLOAD DUP6 PUSH4 0xFFFFFFFF AND PUSH1 0xE0 SHL DUP2 MSTORE PUSH1 0x4 ADD PUSH2 0x143F SWAP5 SWAP4 SWAP3 SWAP2 SWAP1 PUSH2 0x232B JUMP JUMPDEST PUSH1 0x0 PUSH1 0x40 MLOAD DUP1 DUP4 SUB DUP2 PUSH1 0x0 DUP8 DUP1 EXTCODESIZE ISZERO DUP1 ISZERO PUSH2 0x1459 JUMPI PUSH1 0x0 DUP1 REVERT JUMPDEST POP GAS CALL ISZERO DUP1 ISZERO PUSH2 0x146D JUMPI RETURNDATASIZE PUSH1 0x0 DUP1 RETURNDATACOPY RETURNDATASIZE PUSH1 0x0 REVERT JUMPDEST POP POP POP POP POP POP POP POP POP POP POP POP POP DUP1 DUP1 PUSH2 0x1485 SWAP1 PUSH2 0x211F JUMP JUMPDEST SWAP2 POP POP PUSH2 0x1122 JUMP JUMPDEST POP POP POP POP POP JUMP JUMPDEST PUSH1 0x0 DUP3 DUP3 DUP5 PUSH2 0x14A3 SWAP2 SWAP1 PUSH2 0x1DBC JUMP JUMPDEST SWAP2 POP DUP2 GT ISZERO PUSH2 0x14E7 JUMPI PUSH1 0x40 MLOAD PUSH32 0x8C379A000000000000000000000000000000000000000000000000000000000 DUP2 MSTORE PUSH1 0x4 ADD PUSH2 0x14DE SWAP1 PUSH2 0x2498 JUMP JUMPDEST PUSH1 0x40 MLOAD DUP1 SWAP2 SUB SWAP1 REVERT JUMPDEST SWAP3 SWAP2 POP POP JUMP JUMPDEST PUSH1 0x0 DUP1 PUSH1 0x0 PUSH2 0x14FC DUP7 DUP7 PUSH2 0x16F8 JUMP JUMPDEST POP SWAP1 POP PUSH1 0x0 DUP1 PUSH2 0x150E DUP10 DUP10 DUP10 DUP10 PUSH2 0xDC1 JUMP JUMPDEST PUSH20 0xFFFFFFFFFFFFFFFFFFFFFFFFFFFFFFFFFFFFFFFF AND PUSH4 0x902F1AC PUSH1 0x40 MLOAD DUP2 PUSH4 0xFFFFFFFF AND PUSH1 0xE0 SHL DUP2 MSTORE PUSH1 0x4 ADD PUSH1 0x60 PUSH1 0x40 MLOAD DUP1 DUP4 SUB DUP2 DUP7 GAS STATICCALL ISZERO DUP1 ISZERO PUSH2 0x1558 JUMPI RETURNDATASIZE PUSH1 0x0 DUP1 RETURNDATACOPY RETURNDATASIZE PUSH1 0x0 REVERT JUMPDEST POP POP POP POP PUSH1 0x40 MLOAD RETURNDATASIZE PUSH1 0x1F NOT PUSH1 0x1F DUP3 ADD AND DUP3 ADD DUP1 PUSH1 0x40 MSTORE POP DUP2 ADD SWAP1 PUSH2 0x157C SWAP2 SWAP1 PUSH2 0x23F9 JUMP JUMPDEST POP PUSH14 0xFFFFFFFFFFFFFFFFFFFFFFFFFFFF AND SWAP2 POP PUSH14 0xFFFFFFFFFFFFFFFFFFFFFFFFFFFF AND SWAP2 POP DUP3 PUSH20 0xFFFFFFFFFFFFFFFFFFFFFFFFFFFFFFFFFFFFFFFF AND DUP9 PUSH20 0xFFFFFFFFFFFFFFFFFFFFFFFFFFFFFFFFFFFFFFFF AND EQ PUSH2 0x15DB JUMPI DUP1 DUP3 PUSH2 0x15DE JUMP JUMPDEST DUP2 DUP2 JUMPDEST DUP1 SWAP6 POP DUP2 SWAP7 POP POP POP POP POP POP SWAP5 POP SWAP5 SWAP3 POP POP POP JUMP JUMPDEST PUSH1 0x0 DUP1 DUP5 GT PUSH2 0x1636 JUMPI PUSH1 0x40 MLOAD PUSH32 0x8C379A000000000000000000000000000000000000000000000000000000000 DUP2 MSTORE PUSH1 0x4 ADD PUSH2 0x162D SWAP1 PUSH2 0x252A JUMP JUMPDEST PUSH1 0x40 MLOAD DUP1 SWAP2 SUB SWAP1 REVERT JUMPDEST PUSH1 0x0 DUP4 GT DUP1 ISZERO PUSH2 0x1646 JUMPI POP PUSH1 0x0 DUP3 GT JUMPDEST PUSH2 0x1685 JUMPI PUSH1 0x40 MLOAD PUSH32 0x8C379A000000000000000000000000000000000000000000000000000000000 DUP2 MSTORE PUSH1 0x4 ADD PUSH2 0x167C SWAP1 PUSH2 0x25BC JUMP JUMPDEST PUSH1 0x40 MLOAD DUP1 SWAP2 SUB SWAP1 REVERT JUMPDEST PUSH1 0x0 PUSH2 0x169C PUSH2 0x3E5 DUP7 PUSH2 0x1824 SWAP1 SWAP2 SWAP1 PUSH4 0xFFFFFFFF AND JUMP JUMPDEST SWAP1 POP PUSH1 0x0 PUSH2 0x16B3 DUP5 DUP4 PUSH2 0x1824 SWAP1 SWAP2 SWAP1 PUSH4 0xFFFFFFFF AND JUMP JUMPDEST SWAP1 POP PUSH1 0x0 PUSH2 0x16DE DUP4 PUSH2 0x16D0 PUSH2 0x3E8 DUP10 PUSH2 0x1824 SWAP1 SWAP2 SWAP1 PUSH4 0xFFFFFFFF AND JUMP JUMPDEST PUSH2 0x1891 SWAP1 SWAP2 SWAP1 PUSH4 0xFFFFFFFF AND JUMP JUMPDEST SWAP1 POP DUP1 DUP3 PUSH2 0x16EC SWAP2 SWAP1 PUSH2 0x260B JUMP JUMPDEST SWAP4 POP POP POP POP SWAP4 SWAP3 POP POP POP JUMP JUMPDEST PUSH1 0x0 DUP1 DUP3 PUSH20 0xFFFFFFFFFFFFFFFFFFFFFFFFFFFFFFFFFFFFFFFF AND DUP5 PUSH20 0xFFFFFFFFFFFFFFFFFFFFFFFFFFFFFFFFFFFFFFFF AND SUB PUSH2 0x1769 JUMPI PUSH1 0x40 MLOAD PUSH32 0x8C379A000000000000000000000000000000000000000000000000000000000 DUP2 MSTORE PUSH1 0x4 ADD PUSH2 0x1760 SWAP1 PUSH2 0x26AE JUMP JUMPDEST PUSH1 0x40 MLOAD DUP1 SWAP2 SUB SWAP1 REVERT JUMPDEST DUP3 PUSH20 0xFFFFFFFFFFFFFFFFFFFFFFFFFFFFFFFFFFFFFFFF AND DUP5 PUSH20 0xFFFFFFFFFFFFFFFFFFFFFFFFFFFFFFFFFFFFFFFF AND LT PUSH2 0x17A3 JUMPI DUP3 DUP5 PUSH2 0x17A6 JUMP JUMPDEST DUP4 DUP4 JUMPDEST DUP1 SWAP3 POP DUP2 SWAP4 POP POP POP PUSH1 0x0 PUSH20 0xFFFFFFFFFFFFFFFFFFFFFFFFFFFFFFFFFFFFFFFF AND DUP3 PUSH20 0xFFFFFFFFFFFFFFFFFFFFFFFFFFFFFFFFFFFFFFFF AND SUB PUSH2 0x181D JUMPI PUSH1 0x40 MLOAD PUSH32 0x8C379A000000000000000000000000000000000000000000000000000000000 DUP2 MSTORE PUSH1 0x4 ADD PUSH2 0x1814 SWAP1 PUSH2 0x271A JUMP JUMPDEST PUSH1 0x40 MLOAD DUP1 SWAP2 SUB SWAP1 REVERT JUMPDEST SWAP3 POP SWAP3 SWAP1 POP JUMP JUMPDEST PUSH1 0x0 DUP1 DUP3 EQ DUP1 PUSH2 0x184C JUMPI POP DUP3 DUP3 DUP4 DUP6 PUSH2 0x183D SWAP2 SWAP1 PUSH2 0x273A JUMP JUMPDEST SWAP3 POP DUP3 PUSH2 0x184A SWAP2 SWAP1 PUSH2 0x260B JUMP JUMPDEST EQ JUMPDEST PUSH2 0x188B JUMPI PUSH1 0x40 MLOAD PUSH32 0x8C379A000000000000000000000000000000000000000000000000000000000 DUP2 MSTORE PUSH1 0x4 ADD PUSH2 0x1882 SWAP1 PUSH2 0x27C8 JUMP JUMPDEST PUSH1 0x40 MLOAD DUP1 SWAP2 SUB SWAP1 REVERT JUMPDEST SWAP3 SWAP2 POP POP JUMP JUMPDEST PUSH1 0x0 DUP3 DUP3 DUP5 PUSH2 0x18A0 SWAP2 SWAP1 PUSH2 0x20EB JUMP JUMPDEST SWAP2 POP DUP2 LT ISZERO PUSH2 0x18E4 JUMPI PUSH1 0x40 MLOAD PUSH32 0x8C379A000000000000000000000000000000000000000000000000000000000 DUP2 MSTORE PUSH1 0x4 ADD PUSH2 0x18DB SWAP1 PUSH2 0x2834 JUMP JUMPDEST PUSH1 0x40 MLOAD DUP1 SWAP2 SUB SWAP1 REVERT JUMPDEST SWAP3 SWAP2 POP POP JUMP JUMPDEST PUSH32 0x4E487B7100000000000000000000000000000000000000000000000000000000 PUSH1 0x0 MSTORE PUSH1 0x1 PUSH1 0x4 MSTORE PUSH1 0x24 PUSH1 0x0 REVERT JUMPDEST PUSH1 0x0 DUP2 SWAP1 POP SWAP2 SWAP1 POP JUMP JUMPDEST PUSH2 0x192C DUP2 PUSH2 0x1919 JUMP JUMPDEST DUP3 MSTORE POP POP JUMP JUMPDEST PUSH1 0x0 PUSH1 0x20 DUP3 ADD SWAP1 POP PUSH2 0x1947 PUSH1 0x0 DUP4 ADD DUP5 PUSH2 0x1923 JUMP JUMPDEST SWAP3 SWAP2 POP POP JUMP JUMPDEST PUSH1 0x0 DUP1 REVERT JUMPDEST PUSH1 0x0 DUP1 REVERT JUMPDEST PUSH2 0x1960 DUP2 PUSH2 0x1919 JUMP JUMPDEST DUP2 EQ PUSH2 0x196B JUMPI PUSH1 0x0 DUP1 REVERT JUMPDEST POP JUMP JUMPDEST PUSH1 0x0 DUP2 CALLDATALOAD SWAP1 POP PUSH2 0x197D DUP2 PUSH2 0x1957 JUMP JUMPDEST SWAP3 SWAP2 POP POP JUMP JUMPDEST PUSH1 0x0 DUP1 REVERT JUMPDEST PUSH1 0x0 DUP1 REVERT JUMPDEST PUSH1 0x0 DUP1 REVERT JUMPDEST PUSH1 0x0 DUP1 DUP4 PUSH1 0x1F DUP5 ADD SLT PUSH2 0x19A8 JUMPI PUSH2 0x19A7 PUSH2 0x1983 JUMP JUMPDEST JUMPDEST DUP3 CALLDATALOAD SWAP1 POP PUSH8 0xFFFFFFFFFFFFFFFF DUP2 GT ISZERO PUSH2 0x19C5 JUMPI PUSH2 0x19C4 PUSH2 0x1988 JUMP JUMPDEST JUMPDEST PUSH1 0x20 DUP4 ADD SWAP2 POP DUP4 PUSH1 0x20 DUP3 MUL DUP4 ADD GT ISZERO PUSH2 0x19E1 JUMPI PUSH2 0x19E0 PUSH2 0x198D JUMP JUMPDEST JUMPDEST SWAP3 POP SWAP3 SWAP1 POP JUMP JUMPDEST PUSH1 0x0 PUSH20 0xFFFFFFFFFFFFFFFFFFFFFFFFFFFFFFFFFFFFFFFF DUP3 AND SWAP1 POP SWAP2 SWAP1 POP JUMP JUMPDEST PUSH1 0x0 PUSH2 0x1A13 DUP3 PUSH2 0x19E8 JUMP JUMPDEST SWAP1 POP SWAP2 SWAP1 POP JUMP JUMPDEST PUSH2 0x1A23 DUP2 PUSH2 0x1A08 JUMP JUMPDEST DUP2 EQ PUSH2 0x1A2E JUMPI PUSH1 0x0 DUP1 REVERT JUMPDEST POP JUMP JUMPDEST PUSH1 0x0 DUP2 CALLDATALOAD SWAP1 POP PUSH2 0x1A40 DUP2 PUSH2 0x1A1A JUMP JUMPDEST SWAP3 SWAP2 POP POP JUMP JUMPDEST PUSH1 0x0 DUP2 SWAP1 POP SWAP2 SWAP1 POP JUMP JUMPDEST PUSH2 0x1A59 DUP2 PUSH2 0x1A46 JUMP JUMPDEST DUP2 EQ PUSH2 0x1A64 JUMPI PUSH1 0x0 DUP1 REVERT JUMPDEST POP JUMP JUMPDEST PUSH1 0x0 DUP2 CALLDATALOAD SWAP1 POP PUSH2 0x1A76 DUP2 PUSH2 0x1A50 JUMP JUMPDEST SWAP3 SWAP2 POP POP JUMP JUMPDEST PUSH1 0x0 DUP1 PUSH1 0x0 DUP1 PUSH1 0x0 DUP1 PUSH1 0x0 DUP1 PUSH1 0xE0 DUP10 DUP12 SUB SLT ISZERO PUSH2 0x1A9C JUMPI PUSH2 0x1A9B PUSH2 0x194D JUMP JUMPDEST JUMPDEST PUSH1 0x0 PUSH2 0x1AAA DUP12 DUP3 DUP13 ADD PUSH2 0x196E JUMP JUMPDEST SWAP9 POP POP PUSH1 0x20 PUSH2 0x1ABB DUP12 DUP3 DUP13 ADD PUSH2 0x196E JUMP JUMPDEST SWAP8 POP POP PUSH1 0x40 DUP10 ADD CALLDATALOAD PUSH8 0xFFFFFFFFFFFFFFFF DUP2 GT ISZERO PUSH2 0x1ADC JUMPI PUSH2 0x1ADB PUSH2 0x1952 JUMP JUMPDEST JUMPDEST PUSH2 0x1AE8 DUP12 DUP3 DUP13 ADD PUSH2 0x1992 JUMP JUMPDEST SWAP7 POP SWAP7 POP POP PUSH1 0x60 PUSH2 0x1AFB DUP12 DUP3 DUP13 ADD PUSH2 0x1A31 JUMP JUMPDEST SWAP5 POP POP PUSH1 0x80 PUSH2 0x1B0C DUP12 DUP3 DUP13 ADD PUSH2 0x196E JUMP JUMPDEST SWAP4 POP POP PUSH1 0xA0 PUSH2 0x1B1D DUP12 DUP3 DUP13 ADD PUSH2 0x1A31 JUMP JUMPDEST SWAP3 POP POP PUSH1 0xC0 PUSH2 0x1B2E DUP12 DUP3 DUP13 ADD PUSH2 0x1A67 JUMP JUMPDEST SWAP2 POP POP SWAP3 SWAP6 SWAP9 POP SWAP3 SWAP6 SWAP9 SWAP1 SWAP4 SWAP7 POP JUMP JUMPDEST PUSH1 0x0 DUP2 MLOAD SWAP1 POP SWAP2 SWAP1 POP JUMP JUMPDEST PUSH1 0x0 DUP3 DUP3 MSTORE PUSH1 0x20 DUP3 ADD SWAP1 POP SWAP3 SWAP2 POP POP JUMP JUMPDEST PUSH1 0x0 DUP2 SWAP1 POP PUSH1 0x20 DUP3 ADD SWAP1 POP SWAP2 SWAP1 POP JUMP JUMPDEST PUSH2 0x1B73 DUP2 PUSH2 0x1919 JUMP JUMPDEST DUP3 MSTORE POP POP JUMP JUMPDEST PUSH1 0x0 PUSH2 0x1B85 DUP4 DUP4 PUSH2 0x1B6A JUMP JUMPDEST PUSH1 0x20 DUP4 ADD SWAP1 POP SWAP3 SWAP2 POP POP JUMP JUMPDEST PUSH1 0x0 PUSH1 0x20 DUP3 ADD SWAP1 POP SWAP2 SWAP1 POP JUMP JUMPDEST PUSH1 0x0 PUSH2 0x1BA9 DUP3 PUSH2 0x1B3E JUMP JUMPDEST PUSH2 0x1BB3 DUP2 DUP6 PUSH2 0x1B49 JUMP JUMPDEST SWAP4 POP PUSH2 0x1BBE DUP4 PUSH2 0x1B5A JUMP JUMPDEST DUP1 PUSH1 0x0 JUMPDEST DUP4 DUP2 LT ISZERO PUSH2 0x1BEF JUMPI DUP2 MLOAD PUSH2 0x1BD6 DUP9 DUP3 PUSH2 0x1B79 JUMP JUMPDEST SWAP8 POP PUSH2 0x1BE1 DUP4 PUSH2 0x1B91 JUMP JUMPDEST SWAP3 POP POP PUSH1 0x1 DUP2 ADD SWAP1 POP PUSH2 0x1BC2 JUMP JUMPDEST POP DUP6 SWAP4 POP POP POP POP SWAP3 SWAP2 POP POP JUMP JUMPDEST PUSH1 0x0 PUSH1 0x20 DUP3 ADD SWAP1 POP DUP2 DUP2 SUB PUSH1 0x0 DUP4 ADD MSTORE PUSH2 0x1C16 DUP2 DUP5 PUSH2 0x1B9E JUMP JUMPDEST SWAP1 POP SWAP3 SWAP2 POP POP JUMP JUMPDEST PUSH2 0x1C27 DUP2 PUSH2 0x1A08 JUMP JUMPDEST DUP3 MSTORE POP POP JUMP JUMPDEST PUSH1 0x0 PUSH1 0x20 DUP3 ADD SWAP1 POP PUSH2 0x1C42 PUSH1 0x0 DUP4 ADD DUP5 PUSH2 0x1C1E JUMP JUMPDEST SWAP3 SWAP2 POP POP JUMP JUMPDEST PUSH1 0x0 PUSH1 0x20 DUP3 DUP5 SUB SLT ISZERO PUSH2 0x1C5E JUMPI PUSH2 0x1C5D PUSH2 0x194D JUMP JUMPDEST JUMPDEST PUSH1 0x0 PUSH2 0x1C6C DUP5 DUP3 DUP6 ADD PUSH2 0x1A31 JUMP JUMPDEST SWAP2 POP POP SWAP3 SWAP2 POP POP JUMP JUMPDEST PUSH1 0x0 DUP3 DUP3 MSTORE PUSH1 0x20 DUP3 ADD SWAP1 POP SWAP3 SWAP2 POP POP JUMP JUMPDEST PUSH32 0x556E69737761705632526F757465723A20455850495245440000000000000000 PUSH1 0x0 DUP3 ADD MSTORE POP JUMP JUMPDEST PUSH1 0x0 PUSH2 0x1CBC PUSH1 0x18 DUP4 PUSH2 0x1C75 JUMP JUMPDEST SWAP2 POP PUSH2 0x1CC7 DUP3 PUSH2 0x1C86 JUMP JUMPDEST PUSH1 0x20 DUP3 ADD SWAP1 POP SWAP2 SWAP1 POP JUMP JUMPDEST PUSH1 0x0 PUSH1 0x20 DUP3 ADD SWAP1 POP DUP2 DUP2 SUB PUSH1 0x0 DUP4 ADD MSTORE PUSH2 0x1CEB DUP2 PUSH2 0x1CAF JUMP JUMPDEST SWAP1 POP SWAP2 SWAP1 POP JUMP JUMPDEST PUSH32 0x4E487B7100000000000000000000000000000000000000000000000000000000 PUSH1 0x0 MSTORE PUSH1 0x32 PUSH1 0x4 MSTORE PUSH1 0x24 PUSH1 0x0 REVERT JUMPDEST PUSH32 0x556E69737761705632526F757465723A20494E56414C49445F50415448000000 PUSH1 0x0 DUP3 ADD MSTORE POP JUMP JUMPDEST PUSH1 0x0 PUSH2 0x1D57 PUSH1 0x1D DUP4 PUSH2 0x1C75 JUMP JUMPDEST SWAP2 POP PUSH2 0x1D62 DUP3 PUSH2 0x1D21 JUMP JUMPDEST PUSH1 0x20 DUP3 ADD SWAP1 POP SWAP2 SWAP1 POP JUMP JUMPDEST PUSH1 0x0 PUSH1 0x20 DUP3 ADD SWAP1 POP DUP2 DUP2 SUB PUSH1 0x0 DUP4 ADD MSTORE PUSH2 0x1D86 DUP2 PUSH2 0x1D4A JUMP JUMPDEST SWAP1 POP SWAP2 SWAP1 POP JUMP JUMPDEST PUSH32 0x4E487B7100000000000000000000000000000000000000000000000000000000 PUSH1 0x0 MSTORE PUSH1 0x11 PUSH1 0x4 MSTORE PUSH1 0x24 PUSH1 0x0 REVERT JUMPDEST PUSH1 0x0 PUSH2 0x1DC7 DUP3 PUSH2 0x1919 JUMP JUMPDEST SWAP2 POP PUSH2 0x1DD2 DUP4 PUSH2 0x1919 JUMP JUMPDEST SWAP3 POP DUP3 DUP3 SUB SWAP1 POP DUP2 DUP2 GT ISZERO PUSH2 0x1DEA JUMPI PUSH2 0x1DE9 PUSH2 0x1D8D JUMP JUMPDEST JUMPDEST SWAP3 SWAP2 POP POP JUMP JUMPDEST PUSH32 0x556E69737761705632526F757465723A20494E53554646494349454E545F4F55 PUSH1 0x0 DUP3 ADD MSTORE PUSH32 0x545055545F414D4F554E54000000000000000000000000000000000000000000 PUSH1 0x20 DUP3 ADD MSTORE POP JUMP JUMPDEST PUSH1 0x0 PUSH2 0x1E4C PUSH1 0x2B DUP4 PUSH2 0x1C75 JUMP JUMPDEST SWAP2 POP PUSH2 0x1E57 DUP3 PUSH2 0x1DF0 JUMP JUMPDEST PUSH1 0x40 DUP3 ADD SWAP1 POP SWAP2 SWAP1 POP JUMP JUMPDEST PUSH1 0x0 PUSH1 0x20 DUP3 ADD SWAP1 POP DUP2 DUP2 SUB PUSH1 0x0 DUP4 ADD MSTORE PUSH2 0x1E7B DUP2 PUSH2 0x1E3F JUMP JUMPDEST SWAP1 POP SWAP2 SWAP1 POP JUMP JUMPDEST PUSH1 0x0 PUSH1 0x40 DUP3 ADD SWAP1 POP PUSH2 0x1E97 PUSH1 0x0 DUP4 ADD DUP6 PUSH2 0x1C1E JUMP JUMPDEST PUSH2 0x1EA4 PUSH1 0x20 DUP4 ADD DUP5 PUSH2 0x1923 JUMP JUMPDEST SWAP4 SWAP3 POP POP POP JUMP JUMPDEST PUSH1 0x0 DUP2 ISZERO ISZERO SWAP1 POP SWAP2 SWAP1 POP JUMP JUMPDEST PUSH2 0x1EC0 DUP2 PUSH2 0x1EAB JUMP JUMPDEST DUP2 EQ PUSH2 0x1ECB JUMPI PUSH1 0x0 DUP1 REVERT JUMPDEST POP JUMP JUMPDEST PUSH1 0x0 DUP2 MLOAD SWAP1 POP PUSH2 0x1EDD DUP2 PUSH2 0x1EB7 JUMP JUMPDEST SWAP3 SWAP2 POP POP JUMP JUMPDEST PUSH1 0x0 PUSH1 0x20 DUP3 DUP5 SUB SLT ISZERO PUSH2 0x1EF9 JUMPI PUSH2 0x1EF8 PUSH2 0x194D JUMP JUMPDEST JUMPDEST PUSH1 0x0 PUSH2 0x1F07 DUP5 DUP3 DUP6 ADD PUSH2 0x1ECE JUMP JUMPDEST SWAP2 POP POP SWAP3 SWAP2 POP POP JUMP JUMPDEST PUSH32 0x4F776E61626C653A2063616C6C6572206973206E6F7420746865206F776E6572 PUSH1 0x0 DUP3 ADD MSTORE POP JUMP JUMPDEST PUSH1 0x0 PUSH2 0x1F46 PUSH1 0x20 DUP4 PUSH2 0x1C75 JUMP JUMPDEST SWAP2 POP PUSH2 0x1F51 DUP3 PUSH2 0x1F10 JUMP JUMPDEST PUSH1 0x20 DUP3 ADD SWAP1 POP SWAP2 SWAP1 POP JUMP JUMPDEST PUSH1 0x0 PUSH1 0x20 DUP3 ADD SWAP1 POP DUP2 DUP2 SUB PUSH1 0x0 DUP4 ADD MSTORE PUSH2 0x1F75 DUP2 PUSH2 0x1F39 JUMP JUMPDEST SWAP1 POP SWAP2 SWAP1 POP JUMP JUMPDEST PUSH1 0x0 DUP2 MLOAD SWAP1 POP PUSH2 0x1F8B DUP2 PUSH2 0x1957 JUMP JUMPDEST SWAP3 SWAP2 POP POP JUMP JUMPDEST PUSH1 0x0 PUSH1 0x20 DUP3 DUP5 SUB SLT ISZERO PUSH2 0x1FA7 JUMPI PUSH2 0x1FA6 PUSH2 0x194D JUMP JUMPDEST JUMPDEST PUSH1 0x0 PUSH2 0x1FB5 DUP5 DUP3 DUP6 ADD PUSH2 0x1F7C JUMP JUMPDEST SWAP2 POP POP SWAP3 SWAP2 POP POP JUMP JUMPDEST PUSH32 0x4F776E61626C653A206E6577206F776E657220697320746865207A65726F2061 PUSH1 0x0 DUP3 ADD MSTORE PUSH32 0x6464726573730000000000000000000000000000000000000000000000000000 PUSH1 0x20 DUP3 ADD MSTORE POP JUMP JUMPDEST PUSH1 0x0 PUSH2 0x201A PUSH1 0x26 DUP4 PUSH2 0x1C75 JUMP JUMPDEST SWAP2 POP PUSH2 0x2025 DUP3 PUSH2 0x1FBE JUMP JUMPDEST PUSH1 0x40 DUP3 ADD SWAP1 POP SWAP2 SWAP1 POP JUMP JUMPDEST PUSH1 0x0 PUSH1 0x20 DUP3 ADD SWAP1 POP DUP2 DUP2 SUB PUSH1 0x0 DUP4 ADD MSTORE PUSH2 0x2049 DUP2 PUSH2 0x200D JUMP JUMPDEST SWAP1 POP SWAP2 SWAP1 POP JUMP JUMPDEST PUSH32 0x556E697377617056324C6962726172793A20494E56414C49445F504154480000 PUSH1 0x0 DUP3 ADD MSTORE POP JUMP JUMPDEST PUSH1 0x0 PUSH2 0x2086 PUSH1 0x1E DUP4 PUSH2 0x1C75 JUMP JUMPDEST SWAP2 POP PUSH2 0x2091 DUP3 PUSH2 0x2050 JUMP JUMPDEST PUSH1 0x20 DUP3 ADD SWAP1 POP SWAP2 SWAP1 POP JUMP JUMPDEST PUSH1 0x0 PUSH1 0x20 DUP3 ADD SWAP1 POP DUP2 DUP2 SUB PUSH1 0x0 DUP4 ADD MSTORE PUSH2 0x20B5 DUP2 PUSH2 0x2079 JUMP JUMPDEST SWAP1 POP SWAP2 SWAP1 POP JUMP JUMPDEST PUSH32 0x4E487B7100000000000000000000000000000000000000000000000000000000 PUSH1 0x0 MSTORE PUSH1 0x41 PUSH1 0x4 MSTORE PUSH1 0x24 PUSH1 0x0 REVERT JUMPDEST PUSH1 0x0 PUSH2 0x20F6 DUP3 PUSH2 0x1919 JUMP JUMPDEST SWAP2 POP PUSH2 0x2101 DUP4 PUSH2 0x1919 JUMP JUMPDEST SWAP3 POP DUP3 DUP3 ADD SWAP1 POP DUP1 DUP3 GT ISZERO PUSH2 0x2119 JUMPI PUSH2 0x2118 PUSH2 0x1D8D JUMP JUMPDEST JUMPDEST SWAP3 SWAP2 POP POP JUMP JUMPDEST PUSH1 0x0 PUSH2 0x212A DUP3 PUSH2 0x1919 JUMP JUMPDEST SWAP2 POP PUSH32 0xFFFFFFFFFFFFFFFFFFFFFFFFFFFFFFFFFFFFFFFFFFFFFFFFFFFFFFFFFFFFFFFF DUP3 SUB PUSH2 0x215C JUMPI PUSH2 0x215B PUSH2 0x1D8D JUMP JUMPDEST JUMPDEST PUSH1 0x1 DUP3 ADD SWAP1 POP SWAP2 SWAP1 POP JUMP JUMPDEST PUSH1 0x0 DUP2 PUSH1 0x60 SHL SWAP1 POP SWAP2 SWAP1 POP JUMP JUMPDEST PUSH1 0x0 PUSH2 0x217F DUP3 PUSH2 0x2167 JUMP JUMPDEST SWAP1 POP SWAP2 SWAP1 POP JUMP JUMPDEST PUSH1 0x0 PUSH2 0x2191 DUP3 PUSH2 0x2174 JUMP JUMPDEST SWAP1 POP SWAP2 SWAP1 POP JUMP JUMPDEST PUSH2 0x21A9 PUSH2 0x21A4 DUP3 PUSH2 0x1A08 JUMP JUMPDEST PUSH2 0x2186 JUMP JUMPDEST DUP3 MSTORE POP POP JUMP JUMPDEST PUSH1 0x0 PUSH2 0x21BB DUP3 DUP6 PUSH2 0x2198 JUMP JUMPDEST PUSH1 0x14 DUP3 ADD SWAP2 POP PUSH2 0x21CB DUP3 DUP5 PUSH2 0x2198 JUMP JUMPDEST PUSH1 0x14 DUP3 ADD SWAP2 POP DUP2 SWAP1 POP SWAP4 SWAP3 POP POP POP JUMP JUMPDEST PUSH1 0x0 DUP2 SWAP1 POP SWAP3 SWAP2 POP POP JUMP JUMPDEST PUSH32 0xFF00000000000000000000000000000000000000000000000000000000000000 PUSH1 0x0 DUP3 ADD MSTORE POP JUMP JUMPDEST PUSH1 0x0 PUSH2 0x221C PUSH1 0x1 DUP4 PUSH2 0x21DB JUMP JUMPDEST SWAP2 POP PUSH2 0x2227 DUP3 PUSH2 0x21E6 JUMP JUMPDEST PUSH1 0x1 DUP3 ADD SWAP1 POP SWAP2 SWAP1 POP JUMP JUMPDEST PUSH1 0x0 DUP2 SWAP1 POP SWAP2 SWAP1 POP JUMP JUMPDEST PUSH2 0x224D PUSH2 0x2248 DUP3 PUSH2 0x1A46 JUMP JUMPDEST PUSH2 0x2232 JUMP JUMPDEST DUP3 MSTORE POP POP JUMP JUMPDEST PUSH1 0x0 PUSH2 0x225E DUP3 PUSH2 0x220F JUMP JUMPDEST SWAP2 POP PUSH2 0x226A DUP3 DUP7 PUSH2 0x2198 JUMP JUMPDEST PUSH1 0x14 DUP3 ADD SWAP2 POP PUSH2 0x227A DUP3 DUP6 PUSH2 0x223C JUMP JUMPDEST PUSH1 0x20 DUP3 ADD SWAP2 POP PUSH2 0x228A DUP3 DUP5 PUSH2 0x223C JUMP JUMPDEST PUSH1 0x20 DUP3 ADD SWAP2 POP DUP2 SWAP1 POP SWAP5 SWAP4 POP POP POP POP JUMP JUMPDEST PUSH1 0x0 DUP2 MLOAD SWAP1 POP SWAP2 SWAP1 POP JUMP JUMPDEST PUSH1 0x0 DUP3 DUP3 MSTORE PUSH1 0x20 DUP3 ADD SWAP1 POP SWAP3 SWAP2 POP POP JUMP JUMPDEST PUSH1 0x0 JUMPDEST DUP4 DUP2 LT ISZERO PUSH2 0x22D5 JUMPI DUP1 DUP3 ADD MLOAD DUP2 DUP5 ADD MSTORE PUSH1 0x20 DUP2 ADD SWAP1 POP PUSH2 0x22BA JUMP JUMPDEST PUSH1 0x0 DUP5 DUP5 ADD MSTORE POP POP POP POP JUMP JUMPDEST PUSH1 0x0 PUSH1 0x1F NOT PUSH1 0x1F DUP4 ADD AND SWAP1 POP SWAP2 SWAP1 POP JUMP JUMPDEST PUSH1 0x0 PUSH2 0x22FD DUP3 PUSH2 0x229B JUMP JUMPDEST PUSH2 0x2307 DUP2 DUP6 PUSH2 0x22A6 JUMP JUMPDEST SWAP4 POP PUSH2 0x2317 DUP2 DUP6 PUSH1 0x20 DUP7 ADD PUSH2 0x22B7 JUMP JUMPDEST PUSH2 0x2320 DUP2 PUSH2 0x22E1 JUMP JUMPDEST DUP5 ADD SWAP2 POP POP SWAP3 SWAP2 POP POP JUMP JUMPDEST PUSH1 0x0 PUSH1 0x80 DUP3 ADD SWAP1 POP PUSH2 0x2340 PUSH1 0x0 DUP4 ADD DUP8 PUSH2 0x1923 JUMP JUMPDEST PUSH2 0x234D PUSH1 0x20 DUP4 ADD DUP7 PUSH2 0x1923 JUMP JUMPDEST PUSH2 0x235A PUSH1 0x40 DUP4 ADD DUP6 PUSH2 0x1C1E JUMP JUMPDEST DUP2 DUP2 SUB PUSH1 0x60 DUP4 ADD MSTORE PUSH2 0x236C DUP2 DUP5 PUSH2 0x22F2 JUMP JUMPDEST SWAP1 POP SWAP6 SWAP5 POP POP POP POP POP JUMP JUMPDEST PUSH1 0x0 PUSH14 0xFFFFFFFFFFFFFFFFFFFFFFFFFFFF DUP3 AND SWAP1 POP SWAP2 SWAP1 POP JUMP JUMPDEST PUSH2 0x239A DUP2 PUSH2 0x2377 JUMP JUMPDEST DUP2 EQ PUSH2 0x23A5 JUMPI PUSH1 0x0 DUP1 REVERT JUMPDEST POP JUMP JUMPDEST PUSH1 0x0 DUP2 MLOAD SWAP1 POP PUSH2 0x23B7 DUP2 PUSH2 0x2391 JUMP JUMPDEST SWAP3 SWAP2 POP POP JUMP JUMPDEST PUSH1 0x0 PUSH4 0xFFFFFFFF DUP3 AND SWAP1 POP SWAP2 SWAP1 POP JUMP JUMPDEST PUSH2 0x23D6 DUP2 PUSH2 0x23BD JUMP JUMPDEST DUP2 EQ PUSH2 0x23E1 JUMPI PUSH1 0x0 DUP1 REVERT JUMPDEST POP JUMP JUMPDEST PUSH1 0x0 DUP2 MLOAD SWAP1 POP PUSH2 0x23F3 DUP2 PUSH2 0x23CD JUMP JUMPDEST SWAP3 SWAP2 POP POP JUMP JUMPDEST PUSH1 0x0 DUP1 PUSH1 0x0 PUSH1 0x60 DUP5 DUP7 SUB SLT ISZERO PUSH2 0x2412 JUMPI PUSH2 0x2411 PUSH2 0x194D JUMP JUMPDEST JUMPDEST PUSH1 0x0 PUSH2 0x2420 DUP7 DUP3 DUP8 ADD PUSH2 0x23A8 JUMP JUMPDEST SWAP4 POP POP PUSH1 0x20 PUSH2 0x2431 DUP7 DUP3 DUP8 ADD PUSH2 0x23A8 JUMP JUMPDEST SWAP3 POP POP PUSH1 0x40 PUSH2 0x2442 DUP7 DUP3 DUP8 ADD PUSH2 0x23E4 JUMP JUMPDEST SWAP2 POP POP SWAP3 POP SWAP3 POP SWAP3 JUMP JUMPDEST PUSH32 0x64732D6D6174682D7375622D756E646572666C6F770000000000000000000000 PUSH1 0x0 DUP3 ADD MSTORE POP JUMP JUMPDEST PUSH1 0x0 PUSH2 0x2482 PUSH1 0x15 DUP4 PUSH2 0x1C75 JUMP JUMPDEST SWAP2 POP PUSH2 0x248D DUP3 PUSH2 0x244C JUMP JUMPDEST PUSH1 0x20 DUP3 ADD SWAP1 POP SWAP2 SWAP1 POP JUMP JUMPDEST PUSH1 0x0 PUSH1 0x20 DUP3 ADD SWAP1 POP DUP2 DUP2 SUB PUSH1 0x0 DUP4 ADD MSTORE PUSH2 0x24B1 DUP2 PUSH2 0x2475 JUMP JUMPDEST SWAP1 POP SWAP2 SWAP1 POP JUMP JUMPDEST PUSH32 0x556E697377617056324C6962726172793A20494E53554646494349454E545F49 PUSH1 0x0 DUP3 ADD MSTORE PUSH32 0x4E5055545F414D4F554E54000000000000000000000000000000000000000000 PUSH1 0x20 DUP3 ADD MSTORE POP JUMP JUMPDEST PUSH1 0x0 PUSH2 0x2514 PUSH1 0x2B DUP4 PUSH2 0x1C75 JUMP JUMPDEST SWAP2 POP PUSH2 0x251F DUP3 PUSH2 0x24B8 JUMP JUMPDEST PUSH1 0x40 DUP3 ADD SWAP1 POP SWAP2 SWAP1 POP JUMP JUMPDEST PUSH1 0x0 PUSH1 0x20 DUP3 ADD SWAP1 POP DUP2 DUP2 SUB PUSH1 0x0 DUP4 ADD MSTORE PUSH2 0x2543 DUP2 PUSH2 0x2507 JUMP JUMPDEST SWAP1 POP SWAP2 SWAP1 POP JUMP JUMPDEST PUSH32 0x556E697377617056324C6962726172793A20494E53554646494349454E545F4C PUSH1 0x0 DUP3 ADD MSTORE PUSH32 0x4951554944495459000000000000000000000000000000000000000000000000 PUSH1 0x20 DUP3 ADD MSTORE POP JUMP JUMPDEST PUSH1 0x0 PUSH2 0x25A6 PUSH1 0x28 DUP4 PUSH2 0x1C75 JUMP JUMPDEST SWAP2 POP PUSH2 0x25B1 DUP3 PUSH2 0x254A JUMP JUMPDEST PUSH1 0x40 DUP3 ADD SWAP1 POP SWAP2 SWAP1 POP JUMP JUMPDEST PUSH1 0x0 PUSH1 0x20 DUP3 ADD SWAP1 POP DUP2 DUP2 SUB PUSH1 0x0 DUP4 ADD MSTORE PUSH2 0x25D5 DUP2 PUSH2 0x2599 JUMP JUMPDEST SWAP1 POP SWAP2 SWAP1 POP JUMP JUMPDEST PUSH32 0x4E487B7100000000000000000000000000000000000000000000000000000000 PUSH1 0x0 MSTORE PUSH1 0x12 PUSH1 0x4 MSTORE PUSH1 0x24 PUSH1 0x0 REVERT JUMPDEST PUSH1 0x0 PUSH2 0x2616 DUP3 PUSH2 0x1919 JUMP JUMPDEST SWAP2 POP PUSH2 0x2621 DUP4 PUSH2 0x1919 JUMP JUMPDEST SWAP3 POP DUP3 PUSH2 0x2631 JUMPI PUSH2 0x2630 PUSH2 0x25DC JUMP JUMPDEST JUMPDEST DUP3 DUP3 DIV SWAP1 POP SWAP3 SWAP2 POP POP JUMP JUMPDEST PUSH32 0x556E697377617056324C6962726172793A204944454E544943414C5F41444452 PUSH1 0x0 DUP3 ADD MSTORE PUSH32 0x4553534553000000000000000000000000000000000000000000000000000000 PUSH1 0x20 DUP3 ADD MSTORE POP JUMP JUMPDEST PUSH1 0x0 PUSH2 0x2698 PUSH1 0x25 DUP4 PUSH2 0x1C75 JUMP JUMPDEST SWAP2 POP PUSH2 0x26A3 DUP3 PUSH2 0x263C JUMP JUMPDEST PUSH1 0x40 DUP3 ADD SWAP1 POP SWAP2 SWAP1 POP JUMP JUMPDEST PUSH1 0x0 PUSH1 0x20 DUP3 ADD SWAP1 POP DUP2 DUP2 SUB PUSH1 0x0 DUP4 ADD MSTORE PUSH2 0x26C7 DUP2 PUSH2 0x268B JUMP JUMPDEST SWAP1 POP SWAP2 SWAP1 POP JUMP JUMPDEST PUSH32 0x556E697377617056324C6962726172793A205A45524F5F414444524553530000 PUSH1 0x0 DUP3 ADD MSTORE POP JUMP JUMPDEST PUSH1 0x0 PUSH2 0x2704 PUSH1 0x1E DUP4 PUSH2 0x1C75 JUMP JUMPDEST SWAP2 POP PUSH2 0x270F DUP3 PUSH2 0x26CE JUMP JUMPDEST PUSH1 0x20 DUP3 ADD SWAP1 POP SWAP2 SWAP1 POP JUMP JUMPDEST PUSH1 0x0 PUSH1 0x20 DUP3 ADD SWAP1 POP DUP2 DUP2 SUB PUSH1 0x0 DUP4 ADD MSTORE PUSH2 0x2733 DUP2 PUSH2 0x26F7 JUMP JUMPDEST SWAP1 POP SWAP2 SWAP1 POP JUMP JUMPDEST PUSH1 0x0 PUSH2 0x2745 DUP3 PUSH2 0x1919 JUMP JUMPDEST SWAP2 POP PUSH2 0x2750 DUP4 PUSH2 0x1919 JUMP JUMPDEST SWAP3 POP DUP3 DUP3 MUL PUSH2 0x275E DUP2 PUSH2 0x1919 JUMP JUMPDEST SWAP2 POP DUP3 DUP3 DIV DUP5 EQ DUP4 ISZERO OR PUSH2 0x2775 JUMPI PUSH2 0x2774 PUSH2 0x1D8D JUMP JUMPDEST JUMPDEST POP SWAP3 SWAP2 POP POP JUMP JUMPDEST PUSH32 0x64732D6D6174682D6D756C2D6F766572666C6F77000000000000000000000000 PUSH1 0x0 DUP3 ADD MSTORE POP JUMP JUMPDEST PUSH1 0x0 PUSH2 0x27B2 PUSH1 0x14 DUP4 PUSH2 0x1C75 JUMP JUMPDEST SWAP2 POP PUSH2 0x27BD DUP3 PUSH2 0x277C JUMP JUMPDEST PUSH1 0x20 DUP3 ADD SWAP1 POP SWAP2 SWAP1 POP JUMP JUMPDEST PUSH1 0x0 PUSH1 0x20 DUP3 ADD SWAP1 POP DUP2 DUP2 SUB PUSH1 0x0 DUP4 ADD MSTORE PUSH2 0x27E1 DUP2 PUSH2 0x27A5 JUMP JUMPDEST SWAP1 POP SWAP2 SWAP1 POP JUMP JUMPDEST PUSH32 0x64732D6D6174682D6164642D6F766572666C6F77000000000000000000000000 PUSH1 0x0 DUP3 ADD MSTORE POP JUMP JUMPDEST PUSH1 0x0 PUSH2 0x281E PUSH1 0x14 DUP4 PUSH2 0x1C75 JUMP JUMPDEST SWAP2 POP PUSH2 0x2829 DUP3 PUSH2 0x27E8 JUMP JUMPDEST PUSH1 0x20 DUP3 ADD SWAP1 POP SWAP2 SWAP1 POP JUMP JUMPDEST PUSH1 0x0 PUSH1 0x20 DUP3 ADD SWAP1 POP DUP2 DUP2 SUB PUSH1 0x0 DUP4 ADD MSTORE PUSH2 0x284D DUP2 PUSH2 0x2811 JUMP JUMPDEST SWAP1 POP SWAP2 SWAP1 POP JUMP INVALID LOG2 PUSH5 0x6970667358 0x22 SLT KECCAK256 RETURN 0xD1 0xC 0xEA 0xA7 0xBF 0x27 0xAE SWAP1 0xE4 PUSH4 0x1CCEB363 0xC 0xDB CREATE2 SWAP10 0x21 0xC8 PUSH30 0x661CD8E6A302C4AC715D64736F6C63430008110033000000000000000000 "},"methodIdentifiers":{"WETH()":"ad5c4648","feeDenom()":"19a86577","owner()":"8da5cb5b","renounceOwnership()":"715018a6","swapExactETHForTokens(uint256,uint256,address[],address,uint256,address,bytes32)":"41b2e56e","swapExactETHForTokensSupportingFeeOnTransferTokens(uint256,uint256,address[],address,uint256,address,bytes32)":"950fae92","transferOwnership(address)":"f2fde38b"}}}}}