{"contracts/rewards.sol":{"rewardPool":{"abi":[{"inputs":[{"internalType":"address","name":"_token","type":"address"},{"internalType":"address","name":"_stackingAddress","type":"address"},{"internalType":"address","name":"_exchange","type":"address"},{"internalType":"address","name":"_usdt","type":"address"},{"internalType":"address","name":"_treasury","type":"address"}],"stateMutability":"nonpayable","type":"constructor"},{"anonymous":false,"inputs":[{"indexed":true,"internalType":"address","name":"previousOwner","type":"address"},{"indexed":true,"internalType":"address","name":"newOwner","type":"address"}],"name":"OwnershipTransferred","type":"event"},{"inputs":[{"internalType":"uint256","name":"","type":"uint256"}],"name":"ACCUMALATED_REWARDS","outputs":[{"internalType":"uint256","name":"","type":"uint256"}],"stateMutability":"view","type":"function"},{"inputs":[{"internalType":"uint256","name":"","type":"uint256"}],"name":"CLAIMABLE_REWARDS","outputs":[{"internalType":"uint256","name":"","type":"uint256"}],"stateMutability":"view","type":"function"},{"inputs":[{"internalType":"uint256","name":"","type":"uint256"}],"name":"CLAIMED_REWARDS","outputs":[{"internalType":"uint256","name":"","type":"uint256"}],"stateMutability":"view","type":"function"},{"inputs":[],"name":"CURRENT_EPOCH","outputs":[{"internalType":"uint256","name":"","type":"uint256"}],"stateMutability":"view","type":"function"},{"inputs":[],"name":"DISTRIBUTION_CYCLE","outputs":[{"internalType":"uint256","name":"","type":"uint256"}],"stateMutability":"view","type":"function"},{"inputs":[{"internalType":"uint256","name":"","type":"uint256"}],"name":"EPOCH_START_BALANCE","outputs":[{"internalType":"uint256","name":"","type":"uint256"}],"stateMutability":"view","type":"function"},{"inputs":[{"internalType":"uint256","name":"","type":"uint256"}],"name":"EPOCH_TO_START_TIME","outputs":[{"internalType":"uint256","name":"","type":"uint256"}],"stateMutability":"view","type":"function"},{"inputs":[],"name":"POOL_START_TIME","outputs":[{"internalType":"uint256","name":"","type":"uint256"}],"stateMutability":"view","type":"function"},{"inputs":[{"internalType":"uint256","name":"_stakeId","type":"uint256"},{"internalType":"uint256","name":"_rewardToClaim","type":"uint256"}],"name":"claimRewards","outputs":[{"internalType":"bool","name":"","type":"bool"}],"stateMutability":"nonpayable","type":"function"},{"inputs":[],"name":"finishEpoch","outputs":[{"internalType":"bool","name":"","type":"bool"}],"stateMutability":"nonpayable","type":"function"},{"inputs":[],"name":"getChainId","outputs":[{"internalType":"uint256","name":"","type":"uint256"}],"stateMutability":"view","type":"function"},{"inputs":[],"name":"getCurrentEpoch","outputs":[{"internalType":"uint256","name":"","type":"uint256"}],"stateMutability":"view","type":"function"},{"inputs":[{"internalType":"uint256","name":"_stakeId","type":"uint256"}],"name":"getDuration","outputs":[{"internalType":"uint256","name":"","type":"uint256"}],"stateMutability":"view","type":"function"},{"inputs":[{"internalType":"uint256","name":"_rewards","type":"uint256"},{"internalType":"uint256","name":"stakedPeriod","type":"uint256"},{"internalType":"uint256","name":"_removedStake","type":"uint256"},{"internalType":"uint256","name":"_totalStake","type":"uint256"}],"name":"getRewardPenalty","outputs":[{"internalType":"uint256","name":"penalty","type":"uint256"}],"stateMutability":"view","type":"function"},{"inputs":[{"internalType":"uint256","name":"_stakeId","type":"uint256"},{"internalType":"uint256","name":"stakedPeriod","type":"uint256"},{"internalType":"uint256","name":"_removedStake","type":"uint256"},{"internalType":"uint256","name":"_totalStake","type":"uint256"}],"name":"imposeRewardPenalty","outputs":[{"internalType":"bool","name":"","type":"bool"}],"stateMutability":"nonpayable","type":"function"},{"inputs":[],"name":"owner","outputs":[{"internalType":"address","name":"","type":"address"}],"stateMutability":"view","type":"function"},{"inputs":[],"name":"renounceOwnership","outputs":[],"stateMutability":"nonpayable","type":"function"},{"inputs":[{"internalType":"uint256","name":"_rewards","type":"uint256"},{"internalType":"uint256","name":"_stakeId","type":"uint256"},{"internalType":"bytes","name":"signature","type":"bytes"}],"name":"rewardOfStake","outputs":[{"internalType":"bool","name":"","type":"bool"}],"stateMutability":"nonpayable","type":"function"},{"inputs":[{"internalType":"uint256","name":"_stakeId","type":"uint256"},{"internalType":"uint256","name":"_rewards","type":"uint256"},{"internalType":"uint256","name":"_gasFeePenalty","type":"uint256"}],"name":"rewardOfStakeByAdmin","outputs":[{"internalType":"bool","name":"","type":"bool"}],"stateMutability":"nonpayable","type":"function"},{"inputs":[{"internalType":"bytes","name":"sig","type":"bytes"}],"name":"splitSignature","outputs":[{"internalType":"bytes32","name":"r","type":"bytes32"},{"internalType":"bytes32","name":"s","type":"bytes32"},{"internalType":"uint8","name":"v","type":"uint8"}],"stateMutability":"pure","type":"function"},{"inputs":[],"name":"startPool","outputs":[{"internalType":"bool","name":"","type":"bool"}],"stateMutability":"nonpayable","type":"function"},{"inputs":[{"internalType":"uint256","name":"_stakeId","type":"uint256"}],"name":"totalStakeRemoved","outputs":[{"internalType":"bool","name":"","type":"bool"}],"stateMutability":"nonpayable","type":"function"},{"inputs":[{"internalType":"address","name":"newOwner","type":"address"}],"name":"transferOwnership","outputs":[],"stateMutability":"nonpayable","type":"function"},{"inputs":[{"internalType":"bytes","name":"sig","type":"bytes"},{"internalType":"uint256","name":"rewards","type":"uint256"},{"internalType":"uint256","name":"stakeId","type":"uint256"},{"internalType":"uint256","name":"currentEpoch","type":"uint256"}],"name":"verifySign","outputs":[{"internalType":"address","name":"","type":"address"}],"stateMutability":"view","type":"function"}],"evm":{"bytecode":{"linkReferences":{},"object":"60806040526224ea0060035562cb070060045564021d2e357a6016553480156200002857600080fd5b50604051620037f9380380620037f983398181016040528101906200004e919062000304565b6200006e62000062620001ce60201b60201c565b620001d660201b60201c565b84600560006101000a81548173ffffffffffffffffffffffffffffffffffffffff021916908373ffffffffffffffffffffffffffffffffffffffff1602179055506000600781905550600060028190555083600660006101000a81548173ffffffffffffffffffffffffffffffffffffffff021916908373ffffffffffffffffffffffffffffffffffffffff16021790555082600860006101000a81548173ffffffffffffffffffffffffffffffffffffffff021916908373ffffffffffffffffffffffffffffffffffffffff16021790555081600960006101000a81548173ffffffffffffffffffffffffffffffffffffffff021916908373ffffffffffffffffffffffffffffffffffffffff16021790555080601160006101000a81548173ffffffffffffffffffffffffffffffffffffffff021916908373ffffffffffffffffffffffffffffffffffffffff16021790555050505050506200038c565b600033905090565b60008060009054906101000a900473ffffffffffffffffffffffffffffffffffffffff169050816000806101000a81548173ffffffffffffffffffffffffffffffffffffffff021916908373ffffffffffffffffffffffffffffffffffffffff1602179055508173ffffffffffffffffffffffffffffffffffffffff168173ffffffffffffffffffffffffffffffffffffffff167f8be0079c531659141344cd1fd0a4f28419497f9722a3daafe3b4186f6b6457e060405160405180910390a35050565b600080fd5b600073ffffffffffffffffffffffffffffffffffffffff82169050919050565b6000620002cc826200029f565b9050919050565b620002de81620002bf565b8114620002ea57600080fd5b50565b600081519050620002fe81620002d3565b92915050565b600080600080600060a086880312156200032357620003226200029a565b5b60006200033388828901620002ed565b95505060206200034688828901620002ed565b94505060406200035988828901620002ed565b93505060606200036c88828901620002ed565b92505060806200037f88828901620002ed565b9150509295509295909350565b61345d806200039c6000396000f3fe608060405234801561001057600080fd5b50600436106101585760003560e01c80638da5cb5b116100c3578063de6fbc2d1161007c578063de6fbc2d1461041b578063e27087661461044b578063ef03b5121461047b578063ef7ea095146104ab578063f2fde38b146104db578063fa08c908146104f757610158565b80638da5cb5b146103415780638f38450a1461035f578063a7bb58031461037d578063b3cbdf91146103af578063b97dd9e2146103cd578063db020315146103eb57610158565b8063594dd43211610115578063594dd43214610247578063697af86314610277578063715018a6146102a757806372217c62146102b15780638513a671146102e15780638bb126a71461031157610158565b80631d4151521461015d57806322987d6b1461018d57806329624207146101bd5780632b299cbe146101db5780633408e4701461020b57806348e72aa914610229575b600080fd5b61017760048036038101906101729190612337565b610515565b60405161018491906123c1565b60405180910390f35b6101a760048036038101906101a291906123dc565b610aac565b6040516101b49190612418565b60405180910390f35b6101c5610ac4565b6040516101d29190612418565b60405180910390f35b6101f560048036038101906101f09190612433565b610aca565b60405161020291906123c1565b60405180910390f35b610213610e34565b6040516102209190612418565b60405180910390f35b610231610e41565b60405161023e91906123c1565b60405180910390f35b610261600480360381019061025c919061249a565b611074565b60405161026e91906123c1565b60405180910390f35b610291600480360381019061028c91906123dc565b6112d4565b60405161029e91906123c1565b60405180910390f35b6102af6113ac565b005b6102cb60048036038101906102c69190612433565b6113c0565b6040516102d89190612418565b60405180910390f35b6102fb60048036038101906102f691906123dc565b611519565b6040516103089190612418565b60405180910390f35b61032b600480360381019061032691906123dc565b611531565b6040516103389190612418565b60405180910390f35b61034961154e565b604051610356919061251b565b60405180910390f35b610367611577565b6040516103749190612418565b60405180910390f35b61039760048036038101906103929190612536565b61157d565b6040516103a6939291906125b4565b60405180910390f35b6103b76115e5565b6040516103c49190612418565b60405180910390f35b6103d56115eb565b6040516103e29190612418565b60405180910390f35b610405600480360381019061040091906123dc565b6115f5565b6040516104129190612418565b60405180910390f35b610435600480360381019061043091906123dc565b61160d565b6040516104429190612418565b60405180910390f35b610465600480360381019061046091906123dc565b611625565b6040516104729190612418565b60405180910390f35b610495600480360381019061049091906125eb565b61163d565b6040516104a2919061251b565b60405180910390f35b6104c560048036038101906104c0919061266e565b611806565b6040516104d291906123c1565b60405180910390f35b6104f560048036038101906104f091906126ed565b611c35565b005b6104ff611cb8565b60405161050c91906123c1565b60405180910390f35b6000806007541415801561052c5750600060025414155b61056b576040517f08c379a000000000000000000000000000000000000000000000000000000000815260040161056290612777565b60405180910390fd5b600062093a80600a600060075481526020019081526020016000205461059191906127c6565b90508042101580156105b1575062015180816105ad91906127c6565b4211155b6105f0576040517f08c379a00000000000000000000000000000000000000000000000000000000081526004016105e790612846565b60405180910390fd5b60158360405161060091906128d7565b908152602001604051809103902060009054906101000a900460ff161561065c576040517f08c379a00000000000000000000000000000000000000000000000000000000081526004016106539061293a565b60405180910390fd5b600660009054906101000a900473ffffffffffffffffffffffffffffffffffffffff1673ffffffffffffffffffffffffffffffffffffffff1663263b59a4856040518263ffffffff1660e01b81526004016106b79190612418565b602060405180830381865afa1580156106d4573d6000803e3d6000fd5b505050506040513d601f19601f820116820180604052508101906106f8919061296f565b73ffffffffffffffffffffffffffffffffffffffff163373ffffffffffffffffffffffffffffffffffffffff1614610765576040517f08c379a000000000000000000000000000000000000000000000000000000000815260040161075c906129e8565b60405180910390fd5b601460008581526020019081526020016000206000600754815260200190815260200160002060009054906101000a900460ff16156107d9576040517f08c379a00000000000000000000000000000000000000000000000000000000081526004016107d090612a54565b60405180910390fd5b6000600660009054906101000a900473ffffffffffffffffffffffffffffffffffffffff1673ffffffffffffffffffffffffffffffffffffffff1663c293fe1c866040518263ffffffff1660e01b81526004016108369190612418565b602060405180830381865afa158015610853573d6000803e3d6000fd5b505050506040513d601f19601f820116820180604052508101906108779190612a89565b116108b7576040517f08c379a00000000000000000000000000000000000000000000000000000000081526004016108ae90612b02565b60405180910390fd5b60006108c784878760075461163d565b90506108d161154e565b73ffffffffffffffffffffffffffffffffffffffff168173ffffffffffffffffffffffffffffffffffffffff161461093e576040517f08c379a000000000000000000000000000000000000000000000000000000000815260040161093590612b6e565b60405180910390fd5b85600c60008781526020019081526020016000205461095d91906127c6565b600c6000878152602001908152602001600020819055506001601460008781526020019081526020016000206000600754815260200190815260200160002060006101000a81548160ff021916908315150217905550600060026007546109c49190612bbd565b1480156109d45750600060075414155b15610a3d5760006109e486611e32565b905080600e6000888152602001908152602001600020819055506010600087815260200190815260200160002054600e60008881526020019081526020016000206000828254610a349190612bee565b92505081905550505b6012600060075481526020019081526020016000206000815480929190610a6390612c22565b91905055506001601585604051610a7a91906128d7565b908152602001604051809103902060006101000a81548160ff0219169083151502179055506001925050509392505050565b600e6020528060005260406000206000915090505481565b60075481565b6000600660009054906101000a900473ffffffffffffffffffffffffffffffffffffffff1673ffffffffffffffffffffffffffffffffffffffff163373ffffffffffffffffffffffffffffffffffffffff1614610b5c576040517f08c379a0000000000000000000000000000000000000000000000000000000008152600401610b5390612cdc565b60405180910390fd5b6000600c600087815260200190815260200160002054905060006064610b84838888886113c0565b610b8e9190612cfc565b905060008486600c60008b815260200190815260200160002054610bb29190612d2d565b610bbc9190612cfc565b90508181610bca9190612bee565b9050600560009054906101000a900473ffffffffffffffffffffffffffffffffffffffff1673ffffffffffffffffffffffffffffffffffffffff1663a9059cbb601160009054906101000a900473ffffffffffffffffffffffffffffffffffffffff16846040518363ffffffff1660e01b8152600401610c4b929190612d6f565b6020604051808303816000875af1158015610c6a573d6000803e3d6000fd5b505050506040513d601f19601f82011682018060405250810190610c8e9190612dc4565b5080600c60008a81526020019081526020016000206000828254610cb29190612bee565b9250508190555081600c60008a81526020019081526020016000206000828254610cdc9190612bee565b925050819055506000600660009054906101000a900473ffffffffffffffffffffffffffffffffffffffff1673ffffffffffffffffffffffffffffffffffffffff1663263b59a48a6040518263ffffffff1660e01b8152600401610d409190612418565b602060405180830381865afa158015610d5d573d6000803e3d6000fd5b505050506040513d601f19601f82011682018060405250810190610d81919061296f565b9050600560009054906101000a900473ffffffffffffffffffffffffffffffffffffffff1673ffffffffffffffffffffffffffffffffffffffff1663a9059cbb82846040518363ffffffff1660e01b8152600401610de0929190612d6f565b6020604051808303816000875af1158015610dff573d6000803e3d6000fd5b505050506040513d601f19601f82011682018060405250810190610e239190612dc4565b506001945050505050949350505050565b6000804690508091505090565b6000610e4b61205d565b62093a80600a6000600754815260200190815260200160002054610e6f91906127c6565b421015610eb1576040517f08c379a0000000000000000000000000000000000000000000000000000000008152600401610ea890612e3d565b60405180910390fd5b600660009054906101000a900473ffffffffffffffffffffffffffffffffffffffff1673ffffffffffffffffffffffffffffffffffffffff16633b7daa966007546040518263ffffffff1660e01b8152600401610f0e9190612418565b602060405180830381865afa158015610f2b573d6000803e3d6000fd5b505050506040513d601f19601f82011682018060405250810190610f4f9190612a89565b6012600060075481526020019081526020016000205414610fa5576040517f08c379a0000000000000000000000000000000000000000000000000000000008152600401610f9c90612ecf565b60405180910390fd5b6001600754610fb491906127c6565b60078190555062093a80600a60006001600754610fd19190612bee565b815260200190815260200160002054610fea91906127c6565b600a6000600754815260200190815260200160002081905550600060026007546110149190612bbd565b1480156110245750600060075414155b1561106d57600160025461103891906127c6565b6002819055506001600d6000600254815260200190815260200160002060006101000a81548160ff0219169083151502179055505b6001905090565b6000600660009054906101000a900473ffffffffffffffffffffffffffffffffffffffff1673ffffffffffffffffffffffffffffffffffffffff1663263b59a4846040518263ffffffff1660e01b81526004016110d19190612418565b602060405180830381865afa1580156110ee573d6000803e3d6000fd5b505050506040513d601f19601f82011682018060405250810190611112919061296f565b73ffffffffffffffffffffffffffffffffffffffff163373ffffffffffffffffffffffffffffffffffffffff161461117f576040517f08c379a000000000000000000000000000000000000000000000000000000000815260040161117690612f3b565b60405180910390fd5b600e6000848152602001908152602001600020548211156111d5576040517f08c379a00000000000000000000000000000000000000000000000000000000081526004016111cc90612fcd565b60405180910390fd5b816010600085815260200190815260200160002060008282546111f891906127c6565b9250508190555081600e600085815260200190815260200160002060008282546112229190612bee565b92505081905550600560009054906101000a900473ffffffffffffffffffffffffffffffffffffffff1673ffffffffffffffffffffffffffffffffffffffff1663a9059cbb33846040518363ffffffff1660e01b8152600401611286929190612d6f565b6020604051808303816000875af11580156112a5573d6000803e3d6000fd5b505050506040513d601f19601f820116820180604052508101906112c99190612dc4565b506001905092915050565b6000600660009054906101000a900473ffffffffffffffffffffffffffffffffffffffff1673ffffffffffffffffffffffffffffffffffffffff163373ffffffffffffffffffffffffffffffffffffffff1614611366576040517f08c379a000000000000000000000000000000000000000000000000000000000815260040161135d90613039565b60405180910390fd5b600c600083815260200190815260200160002054600e6000848152602001908152602001600020600082825461139c91906127c6565b9250508190555060019050919050565b6113b461205d565b6113be60006120db565b565b600060035484101580156113e1575060035460026113de9190612d2d565b84105b15611410578183603c876113f59190612d2d565b6113ff9190612d2d565b6114099190612cfc565b9050611511565b600354600261141f9190612d2d565b841015801561143b575060035460036114389190612d2d565b84105b1561146a578183601e8761144f9190612d2d565b6114599190612d2d565b6114639190612cfc565b9050611510565b60035460036114799190612d2d565b8410158015611495575060035460046114929190612d2d565b84105b156114c45781836014876114a99190612d2d565b6114b39190612d2d565b6114bd9190612cfc565b905061150f565b60035460046114d39190612d2d565b84101580156114e3575060045484105b1561150e578183600a876114f79190612d2d565b6115019190612d2d565b61150b9190612cfc565b90505b5b5b5b949350505050565b600a6020528060005260406000206000915090505481565b6000600f6000838152602001908152602001600020549050919050565b60008060009054906101000a900473ffffffffffffffffffffffffffffffffffffffff16905090565b60025481565b600080600060418451146115c6576040517f08c379a00000000000000000000000000000000000000000000000000000000081526004016115bd906130a5565b60405180910390fd5b6020840151925060408401519150606084015160001a90509193909250565b60015481565b6000600754905090565b60106020528060005260406000206000915090505481565b600c6020528060005260406000206000915090505481565b600b6020528060005260406000206000915090505481565b60008046905060007f8b73c3c69bb8fe3d512ecc4cf759cc79239f7b179b0ffacaa9a75d522b39400f6040518060400160405280601081526020017f766f6c617279546f6b656e6f6d69637300000000000000000000000000000000815250805190602001206040518060400160405280600181526020017f31000000000000000000000000000000000000000000000000000000000000008152508051906020012084306040516020016116f69594939291906130c5565b60405160208183030381529060405280519060200120905060007f6653e7cd3a1a9aef96921d5ab438ed1c97f8b2a810f0757ef37ab483d678681c8787876040516020016117479493929190613118565b604051602081830303815290604052805190602001209050600082826040516020016117749291906131d5565b604051602081830303815290604052805190602001209050600080600061179a8c61157d565b9250925092506000600185838686604051600081526020016040526040516117c5949392919061320c565b6020604051602081039080840390855afa1580156117e7573d6000803e3d6000fd5b5050506020604051035190508098505050505050505050949350505050565b600061181061205d565b6000600754141580156118265750600060025414155b611865576040517f08c379a000000000000000000000000000000000000000000000000000000000815260040161185c90612777565b60405180910390fd5b60006201518062093a80600a600060075481526020019081526020016000205461188f91906127c6565b61189991906127c6565b905080421180156118b8575062015180816118b491906127c6565b4211155b6118f7576040517f08c379a00000000000000000000000000000000000000000000000000000000081526004016118ee9061329d565b60405180910390fd5b601460008681526020019081526020016000206000600754815260200190815260200160002060009054906101000a900460ff161561196b576040517f08c379a000000000000000000000000000000000000000000000000000000000815260040161196290612a54565b60405180910390fd5b6000600660009054906101000a900473ffffffffffffffffffffffffffffffffffffffff1673ffffffffffffffffffffffffffffffffffffffff1663c293fe1c876040518263ffffffff1660e01b81526004016119c89190612418565b602060405180830381865afa1580156119e5573d6000803e3d6000fd5b505050506040513d601f19601f82011682018060405250810190611a099190612a89565b11611a49576040517f08c379a0000000000000000000000000000000000000000000000000000000008152600401611a4090612b02565b60405180910390fd5b8284611a559190612bee565b9350600560009054906101000a900473ffffffffffffffffffffffffffffffffffffffff1673ffffffffffffffffffffffffffffffffffffffff1663a9059cbb611a9d61154e565b856040518363ffffffff1660e01b8152600401611abb929190612d6f565b6020604051808303816000875af1158015611ada573d6000803e3d6000fd5b505050506040513d601f19601f82011682018060405250810190611afe9190612dc4565b5083600c600087815260200190815260200160002054611b1e91906127c6565b600c6000878152602001908152602001600020819055506001601460008781526020019081526020016000206000600754815260200190815260200160002060006101000a81548160ff02191690831515021790555060006002600754611b859190612bbd565b148015611b955750600060075414155b15611bfe576000611ba586611e32565b905080600e6000888152602001908152602001600020819055506010600087815260200190815260200160002054600e60008881526020019081526020016000206000828254611bf59190612bee565b92505081905550505b6012600060075481526020019081526020016000206000815480929190611c2490612c22565b919050555060019150509392505050565b611c3d61205d565b600073ffffffffffffffffffffffffffffffffffffffff168173ffffffffffffffffffffffffffffffffffffffff1603611cac576040517f08c379a0000000000000000000000000000000000000000000000000000000008152600401611ca39061332f565b60405180910390fd5b611cb5816120db565b50565b6000611cc261205d565b6000600754148015611cd657506000600254145b611d15576040517f08c379a0000000000000000000000000000000000000000000000000000000008152600401611d0c9061339b565b60405180910390fd5b6001600781905550600160028190555042600181905550600154600a6000600754815260200190815260200160002081905550600560009054906101000a900473ffffffffffffffffffffffffffffffffffffffff1673ffffffffffffffffffffffffffffffffffffffff166370a08231306040518263ffffffff1660e01b8152600401611da3919061251b565b602060405180830381865afa158015611dc0573d6000803e3d6000fd5b505050506040513d601f19601f82011682018060405250810190611de49190612a89565b600b60006007548152602001908152602001600020819055506001600d6000600254815260200190815260200160002060006101000a81548160ff0219169083151502179055506001905090565b600080600c60008481526020019081526020016000205490506000600660009054906101000a900473ffffffffffffffffffffffffffffffffffffffff1673ffffffffffffffffffffffffffffffffffffffff16635ab01187856040518263ffffffff1660e01b8152600401611ea89190612418565b602060405180830381865afa158015611ec5573d6000803e3d6000fd5b505050506040513d601f19601f82011682018060405250810190611ee99190612a89565b42611ef49190612bee565b9050600354811015611f22576064603283611f0f9190612d2d565b611f199190612cfc565b92505050612058565b6003548110158015611f4157506003546002611f3e9190612d2d565b81105b15611f68576064603c83611f559190612d2d565b611f5f9190612cfc565b92505050612058565b6003546002611f779190612d2d565b8110158015611f9357506003546003611f909190612d2d565b81105b15611fba576064604683611fa79190612d2d565b611fb19190612cfc565b92505050612058565b6003546003611fc99190612d2d565b8110158015611fe557506003546004611fe29190612d2d565b81105b1561200c576064605083611ff99190612d2d565b6120039190612cfc565b92505050612058565b600354600461201b9190612d2d565b811015801561202b575060045481105b15612052576064605a8361203f9190612d2d565b6120499190612cfc565b92505050612058565b81925050505b919050565b61206561219f565b73ffffffffffffffffffffffffffffffffffffffff1661208361154e565b73ffffffffffffffffffffffffffffffffffffffff16146120d9576040517f08c379a00000000000000000000000000000000000000000000000000000000081526004016120d090613407565b60405180910390fd5b565b60008060009054906101000a900473ffffffffffffffffffffffffffffffffffffffff169050816000806101000a81548173ffffffffffffffffffffffffffffffffffffffff021916908373ffffffffffffffffffffffffffffffffffffffff1602179055508173ffffffffffffffffffffffffffffffffffffffff168173ffffffffffffffffffffffffffffffffffffffff167f8be0079c531659141344cd1fd0a4f28419497f9722a3daafe3b4186f6b6457e060405160405180910390a35050565b600033905090565b6000604051905090565b600080fd5b600080fd5b6000819050919050565b6121ce816121bb565b81146121d957600080fd5b50565b6000813590506121eb816121c5565b92915050565b600080fd5b600080fd5b6000601f19601f8301169050919050565b7f4e487b7100000000000000000000000000000000000000000000000000000000600052604160045260246000fd5b612244826121fb565b810181811067ffffffffffffffff821117156122635761226261220c565b5b80604052505050565b60006122766121a7565b9050612282828261223b565b919050565b600067ffffffffffffffff8211156122a2576122a161220c565b5b6122ab826121fb565b9050602081019050919050565b82818337600083830152505050565b60006122da6122d584612287565b61226c565b9050828152602081018484840111156122f6576122f56121f6565b5b6123018482856122b8565b509392505050565b600082601f83011261231e5761231d6121f1565b5b813561232e8482602086016122c7565b91505092915050565b6000806000606084860312156123505761234f6121b1565b5b600061235e868287016121dc565b935050602061236f868287016121dc565b925050604084013567ffffffffffffffff8111156123905761238f6121b6565b5b61239c86828701612309565b9150509250925092565b60008115159050919050565b6123bb816123a6565b82525050565b60006020820190506123d660008301846123b2565b92915050565b6000602082840312156123f2576123f16121b1565b5b6000612400848285016121dc565b91505092915050565b612412816121bb565b82525050565b600060208201905061242d6000830184612409565b92915050565b6000806000806080858703121561244d5761244c6121b1565b5b600061245b878288016121dc565b945050602061246c878288016121dc565b935050604061247d878288016121dc565b925050606061248e878288016121dc565b91505092959194509250565b600080604083850312156124b1576124b06121b1565b5b60006124bf858286016121dc565b92505060206124d0858286016121dc565b9150509250929050565b600073ffffffffffffffffffffffffffffffffffffffff82169050919050565b6000612505826124da565b9050919050565b612515816124fa565b82525050565b6000602082019050612530600083018461250c565b92915050565b60006020828403121561254c5761254b6121b1565b5b600082013567ffffffffffffffff81111561256a576125696121b6565b5b61257684828501612309565b91505092915050565b6000819050919050565b6125928161257f565b82525050565b600060ff82169050919050565b6125ae81612598565b82525050565b60006060820190506125c96000830186612589565b6125d66020830185612589565b6125e360408301846125a5565b949350505050565b60008060008060808587031215612605576126046121b1565b5b600085013567ffffffffffffffff811115612623576126226121b6565b5b61262f87828801612309565b9450506020612640878288016121dc565b9350506040612651878288016121dc565b9250506060612662878288016121dc565b91505092959194509250565b600080600060608486031215612687576126866121b1565b5b6000612695868287016121dc565b93505060206126a6868287016121dc565b92505060406126b7868287016121dc565b9150509250925092565b6126ca816124fa565b81146126d557600080fd5b50565b6000813590506126e7816126c1565b92915050565b600060208284031215612703576127026121b1565b5b6000612711848285016126d8565b91505092915050565b600082825260208201905092915050565b7f504f4f4c204e4f54205354415254454400000000000000000000000000000000600082015250565b600061276160108361271a565b915061276c8261272b565b602082019050919050565b6000602082019050818103600083015261279081612754565b9050919050565b7f4e487b7100000000000000000000000000000000000000000000000000000000600052601160045260246000fd5b60006127d1826121bb565b91506127dc836121bb565b92508282019050808211156127f4576127f3612797565b5b92915050565b7f414343455353205245535452494354454420464f52205553455253204e4f5700600082015250565b6000612830601f8361271a565b915061283b826127fa565b602082019050919050565b6000602082019050818103600083015261285f81612823565b9050919050565b600081519050919050565b600081905092915050565b60005b8381101561289a57808201518184015260208101905061287f565b60008484015250505050565b60006128b182612866565b6128bb8185612871565b93506128cb81856020860161287c565b80840191505092915050565b60006128e382846128a6565b915081905092915050565b7f7369676e61747572652063616e2062652075736564206f6e6c79206f6e636500600082015250565b6000612924601f8361271a565b915061292f826128ee565b602082019050919050565b6000602082019050818103600083015261295381612917565b9050919050565b600081519050612969816126c1565b92915050565b600060208284031215612985576129846121b1565b5b60006129938482850161295a565b91505092915050565b7f6e6f74207374616b6520686f6c64657200000000000000000000000000000000600082015250565b60006129d260108361271a565b91506129dd8261299c565b602082019050919050565b60006020820190508181036000830152612a01816129c5565b9050919050565b7f52455741524420464f5220544849532045504f43482049532053455400000000600082015250565b6000612a3e601c8361271a565b9150612a4982612a08565b602082019050919050565b60006020820190508181036000830152612a6d81612a31565b9050919050565b600081519050612a83816121c5565b92915050565b600060208284031215612a9f57612a9e6121b1565b5b6000612aad84828501612a74565b91505092915050565b7f5354414b4520444f45534e542045584953545300000000000000000000000000600082015250565b6000612aec60138361271a565b9150612af782612ab6565b602082019050919050565b60006020820190508181036000830152612b1b81612adf565b9050919050565b7f7369676e6174757265206d69736d617463680000000000000000000000000000600082015250565b6000612b5860128361271a565b9150612b6382612b22565b602082019050919050565b60006020820190508181036000830152612b8781612b4b565b9050919050565b7f4e487b7100000000000000000000000000000000000000000000000000000000600052601260045260246000fd5b6000612bc8826121bb565b9150612bd3836121bb565b925082612be357612be2612b8e565b5b828206905092915050565b6000612bf9826121bb565b9150612c04836121bb565b9250828203905081811115612c1c57612c1b612797565b5b92915050565b6000612c2d826121bb565b91507fffffffffffffffffffffffffffffffffffffffffffffffffffffffffffffffff8203612c5f57612c5e612797565b5b600182019050919050565b7f4f6e6c7920737461636b696e6720636f6e74726163742063616e20696d706f7360008201527f652070656e616c74790000000000000000000000000000000000000000000000602082015250565b6000612cc660298361271a565b9150612cd182612c6a565b604082019050919050565b60006020820190508181036000830152612cf581612cb9565b9050919050565b6000612d07826121bb565b9150612d12836121bb565b925082612d2257612d21612b8e565b5b828204905092915050565b6000612d38826121bb565b9150612d43836121bb565b9250828202612d51816121bb565b91508282048414831517612d6857612d67612797565b5b5092915050565b6000604082019050612d84600083018561250c565b612d916020830184612409565b9392505050565b612da1816123a6565b8114612dac57600080fd5b50565b600081519050612dbe81612d98565b92915050565b600060208284031215612dda57612dd96121b1565b5b6000612de884828501612daf565b91505092915050565b7f2065706f6368206e6f7420636f6d706c65746564000000000000000000000000600082015250565b6000612e2760148361271a565b9150612e3282612df1565b602082019050919050565b60006020820190508181036000830152612e5681612e1a565b9050919050565b7f414c4c205354414b45205245574152445320415245204e4f542043414c43554c60008201527f4154454400000000000000000000000000000000000000000000000000000000602082015250565b6000612eb960248361271a565b9150612ec482612e5d565b604082019050919050565b60006020820190508181036000830152612ee881612eac565b9050919050565b7f4f4e4c5920484f4c44455220434c41494d205245574152445300000000000000600082015250565b6000612f2560198361271a565b9150612f3082612eef565b602082019050919050565b60006020820190508181036000830152612f5481612f18565b9050919050565b7f63616e74207769746864726177206d6f7265207468616e20636c61696d626c6560008201527f2072657761726473000000000000000000000000000000000000000000000000602082015250565b6000612fb760288361271a565b9150612fc282612f5b565b604082019050919050565b60006020820190508181036000830152612fe681612faa565b9050919050565b7f6e6f7420737461636b696e6720636f6e74726163740000000000000000000000600082015250565b600061302360158361271a565b915061302e82612fed565b602082019050919050565b6000602082019050818103600083015261305281613016565b9050919050565b7f696e76616c6964207369676e6174757265206c656e6774680000000000000000600082015250565b600061308f60188361271a565b915061309a82613059565b602082019050919050565b600060208201905081810360008301526130be81613082565b9050919050565b600060a0820190506130da6000830188612589565b6130e76020830187612589565b6130f46040830186612589565b6131016060830185612409565b61310e608083018461250c565b9695505050505050565b600060808201905061312d6000830187612589565b61313a6020830186612409565b6131476040830185612409565b6131546060830184612409565b95945050505050565b600081905092915050565b7f1901000000000000000000000000000000000000000000000000000000000000600082015250565b600061319e60028361315d565b91506131a982613168565b600282019050919050565b6000819050919050565b6131cf6131ca8261257f565b6131b4565b82525050565b60006131e082613191565b91506131ec82856131be565b6020820191506131fc82846131be565b6020820191508190509392505050565b60006080820190506132216000830187612589565b61322e60208301866125a5565b61323b6040830185612589565b6132486060830184612589565b95945050505050565b7f414343455353205245535452494354454420464f522041444d494e204e4f5700600082015250565b6000613287601f8361271a565b915061329282613251565b602082019050919050565b600060208201905081810360008301526132b68161327a565b9050919050565b7f4f776e61626c653a206e6577206f776e657220697320746865207a65726f206160008201527f6464726573730000000000000000000000000000000000000000000000000000602082015250565b600061331960268361271a565b9150613324826132bd565b604082019050919050565b600060208201905081810360008301526133488161330c565b9050919050565b7f504f4f4c20414c52454144592053544152544544000000000000000000000000600082015250565b600061338560148361271a565b91506133908261334f565b602082019050919050565b600060208201905081810360008301526133b481613378565b9050919050565b7f4f776e61626c653a2063616c6c6572206973206e6f7420746865206f776e6572600082015250565b60006133f160208361271a565b91506133fc826133bb565b602082019050919050565b60006020820190508181036000830152613420816133e4565b905091905056fea26469706673582212204991ac093637171ffb5ad3e3140427011eeac80e38c8d4328a40755891b6aba264736f6c63430008110033","opcodes":"PUSH1 0x80 PUSH1 0x40 MSTORE PUSH3 0x24EA00 PUSH1 0x3 SSTORE PUSH3 0xCB0700 PUSH1 0x4 SSTORE PUSH5 0x21D2E357A PUSH1 0x16 SSTORE CALLVALUE DUP1 ISZERO PUSH3 0x28 JUMPI PUSH1 0x0 DUP1 REVERT JUMPDEST POP PUSH1 0x40 MLOAD PUSH3 0x37F9 CODESIZE SUB DUP1 PUSH3 0x37F9 DUP4 CODECOPY DUP2 DUP2 ADD PUSH1 0x40 MSTORE DUP2 ADD SWAP1 PUSH3 0x4E SWAP2 SWAP1 PUSH3 0x304 JUMP JUMPDEST PUSH3 0x6E PUSH3 0x62 PUSH3 0x1CE PUSH1 0x20 SHL PUSH1 0x20 SHR JUMP JUMPDEST PUSH3 0x1D6 PUSH1 0x20 SHL PUSH1 0x20 SHR JUMP JUMPDEST DUP5 PUSH1 0x5 PUSH1 0x0 PUSH2 0x100 EXP DUP2 SLOAD DUP2 PUSH20 0xFFFFFFFFFFFFFFFFFFFFFFFFFFFFFFFFFFFFFFFF MUL NOT AND SWAP1 DUP4 PUSH20 0xFFFFFFFFFFFFFFFFFFFFFFFFFFFFFFFFFFFFFFFF AND MUL OR SWAP1 SSTORE POP PUSH1 0x0 PUSH1 0x7 DUP2 SWAP1 SSTORE POP PUSH1 0x0 PUSH1 0x2 DUP2 SWAP1 SSTORE POP DUP4 PUSH1 0x6 PUSH1 0x0 PUSH2 0x100 EXP DUP2 SLOAD DUP2 PUSH20 0xFFFFFFFFFFFFFFFFFFFFFFFFFFFFFFFFFFFFFFFF MUL NOT AND SWAP1 DUP4 PUSH20 0xFFFFFFFFFFFFFFFFFFFFFFFFFFFFFFFFFFFFFFFF AND MUL OR SWAP1 SSTORE POP DUP3 PUSH1 0x8 PUSH1 0x0 PUSH2 0x100 EXP DUP2 SLOAD DUP2 PUSH20 0xFFFFFFFFFFFFFFFFFFFFFFFFFFFFFFFFFFFFFFFF MUL NOT AND SWAP1 DUP4 PUSH20 0xFFFFFFFFFFFFFFFFFFFFFFFFFFFFFFFFFFFFFFFF AND MUL OR SWAP1 SSTORE POP DUP2 PUSH1 0x9 PUSH1 0x0 PUSH2 0x100 EXP DUP2 SLOAD DUP2 PUSH20 0xFFFFFFFFFFFFFFFFFFFFFFFFFFFFFFFFFFFFFFFF MUL NOT AND SWAP1 DUP4 PUSH20 0xFFFFFFFFFFFFFFFFFFFFFFFFFFFFFFFFFFFFFFFF AND MUL OR SWAP1 SSTORE POP DUP1 PUSH1 0x11 PUSH1 0x0 PUSH2 0x100 EXP DUP2 SLOAD DUP2 PUSH20 0xFFFFFFFFFFFFFFFFFFFFFFFFFFFFFFFFFFFFFFFF MUL NOT AND SWAP1 DUP4 PUSH20 0xFFFFFFFFFFFFFFFFFFFFFFFFFFFFFFFFFFFFFFFF AND MUL OR SWAP1 SSTORE POP POP POP POP POP POP PUSH3 0x38C JUMP JUMPDEST PUSH1 0x0 CALLER SWAP1 POP SWAP1 JUMP JUMPDEST PUSH1 0x0 DUP1 PUSH1 0x0 SWAP1 SLOAD SWAP1 PUSH2 0x100 EXP SWAP1 DIV PUSH20 0xFFFFFFFFFFFFFFFFFFFFFFFFFFFFFFFFFFFFFFFF AND SWAP1 POP DUP2 PUSH1 0x0 DUP1 PUSH2 0x100 EXP DUP2 SLOAD DUP2 PUSH20 0xFFFFFFFFFFFFFFFFFFFFFFFFFFFFFFFFFFFFFFFF MUL NOT AND SWAP1 DUP4 PUSH20 0xFFFFFFFFFFFFFFFFFFFFFFFFFFFFFFFFFFFFFFFF AND MUL OR SWAP1 SSTORE POP DUP2 PUSH20 0xFFFFFFFFFFFFFFFFFFFFFFFFFFFFFFFFFFFFFFFF AND DUP2 PUSH20 0xFFFFFFFFFFFFFFFFFFFFFFFFFFFFFFFFFFFFFFFF AND PUSH32 0x8BE0079C531659141344CD1FD0A4F28419497F9722A3DAAFE3B4186F6B6457E0 PUSH1 0x40 MLOAD PUSH1 0x40 MLOAD DUP1 SWAP2 SUB SWAP1 LOG3 POP POP JUMP JUMPDEST PUSH1 0x0 DUP1 REVERT JUMPDEST PUSH1 0x0 PUSH20 0xFFFFFFFFFFFFFFFFFFFFFFFFFFFFFFFFFFFFFFFF DUP3 AND SWAP1 POP SWAP2 SWAP1 POP JUMP JUMPDEST PUSH1 0x0 PUSH3 0x2CC DUP3 PUSH3 0x29F JUMP JUMPDEST SWAP1 POP SWAP2 SWAP1 POP JUMP JUMPDEST PUSH3 0x2DE DUP2 PUSH3 0x2BF JUMP JUMPDEST DUP2 EQ PUSH3 0x2EA JUMPI PUSH1 0x0 DUP1 REVERT JUMPDEST POP JUMP JUMPDEST PUSH1 0x0 DUP2 MLOAD SWAP1 POP PUSH3 0x2FE DUP2 PUSH3 0x2D3 JUMP JUMPDEST SWAP3 SWAP2 POP POP JUMP JUMPDEST PUSH1 0x0 DUP1 PUSH1 0x0 DUP1 PUSH1 0x0 PUSH1 0xA0 DUP7 DUP9 SUB SLT ISZERO PUSH3 0x323 JUMPI PUSH3 0x322 PUSH3 0x29A JUMP JUMPDEST JUMPDEST PUSH1 0x0 PUSH3 0x333 DUP9 DUP3 DUP10 ADD PUSH3 0x2ED JUMP JUMPDEST SWAP6 POP POP PUSH1 0x20 PUSH3 0x346 DUP9 DUP3 DUP10 ADD PUSH3 0x2ED JUMP JUMPDEST SWAP5 POP POP PUSH1 0x40 PUSH3 0x359 DUP9 DUP3 DUP10 ADD PUSH3 0x2ED JUMP JUMPDEST SWAP4 POP POP PUSH1 0x60 PUSH3 0x36C DUP9 DUP3 DUP10 ADD PUSH3 0x2ED JUMP JUMPDEST SWAP3 POP POP PUSH1 0x80 PUSH3 0x37F DUP9 DUP3 DUP10 ADD PUSH3 0x2ED JUMP JUMPDEST SWAP2 POP POP SWAP3 SWAP6 POP SWAP3 SWAP6 SWAP1 SWAP4 POP JUMP JUMPDEST PUSH2 0x345D DUP1 PUSH3 0x39C PUSH1 0x0 CODECOPY PUSH1 0x0 RETURN INVALID PUSH1 0x80 PUSH1 0x40 MSTORE CALLVALUE DUP1 ISZERO PUSH2 0x10 JUMPI PUSH1 0x0 DUP1 REVERT JUMPDEST POP PUSH1 0x4 CALLDATASIZE LT PUSH2 0x158 JUMPI PUSH1 0x0 CALLDATALOAD PUSH1 0xE0 SHR DUP1 PUSH4 0x8DA5CB5B GT PUSH2 0xC3 JUMPI DUP1 PUSH4 0xDE6FBC2D GT PUSH2 0x7C JUMPI DUP1 PUSH4 0xDE6FBC2D EQ PUSH2 0x41B JUMPI DUP1 PUSH4 0xE2708766 EQ PUSH2 0x44B JUMPI DUP1 PUSH4 0xEF03B512 EQ PUSH2 0x47B JUMPI DUP1 PUSH4 0xEF7EA095 EQ PUSH2 0x4AB JUMPI DUP1 PUSH4 0xF2FDE38B EQ PUSH2 0x4DB JUMPI DUP1 PUSH4 0xFA08C908 EQ PUSH2 0x4F7 JUMPI PUSH2 0x158 JUMP JUMPDEST DUP1 PUSH4 0x8DA5CB5B EQ PUSH2 0x341 JUMPI DUP1 PUSH4 0x8F38450A EQ PUSH2 0x35F JUMPI DUP1 PUSH4 0xA7BB5803 EQ PUSH2 0x37D JUMPI DUP1 PUSH4 0xB3CBDF91 EQ PUSH2 0x3AF JUMPI DUP1 PUSH4 0xB97DD9E2 EQ PUSH2 0x3CD JUMPI DUP1 PUSH4 0xDB020315 EQ PUSH2 0x3EB JUMPI PUSH2 0x158 JUMP JUMPDEST DUP1 PUSH4 0x594DD432 GT PUSH2 0x115 JUMPI DUP1 PUSH4 0x594DD432 EQ PUSH2 0x247 JUMPI DUP1 PUSH4 0x697AF863 EQ PUSH2 0x277 JUMPI DUP1 PUSH4 0x715018A6 EQ PUSH2 0x2A7 JUMPI DUP1 PUSH4 0x72217C62 EQ PUSH2 0x2B1 JUMPI DUP1 PUSH4 0x8513A671 EQ PUSH2 0x2E1 JUMPI DUP1 PUSH4 0x8BB126A7 EQ PUSH2 0x311 JUMPI PUSH2 0x158 JUMP JUMPDEST DUP1 PUSH4 0x1D415152 EQ PUSH2 0x15D JUMPI DUP1 PUSH4 0x22987D6B EQ PUSH2 0x18D JUMPI DUP1 PUSH4 0x29624207 EQ PUSH2 0x1BD JUMPI DUP1 PUSH4 0x2B299CBE EQ PUSH2 0x1DB JUMPI DUP1 PUSH4 0x3408E470 EQ PUSH2 0x20B JUMPI DUP1 PUSH4 0x48E72AA9 EQ PUSH2 0x229 JUMPI JUMPDEST PUSH1 0x0 DUP1 REVERT JUMPDEST PUSH2 0x177 PUSH1 0x4 DUP1 CALLDATASIZE SUB DUP2 ADD SWAP1 PUSH2 0x172 SWAP2 SWAP1 PUSH2 0x2337 JUMP JUMPDEST PUSH2 0x515 JUMP JUMPDEST PUSH1 0x40 MLOAD PUSH2 0x184 SWAP2 SWAP1 PUSH2 0x23C1 JUMP JUMPDEST PUSH1 0x40 MLOAD DUP1 SWAP2 SUB SWAP1 RETURN JUMPDEST PUSH2 0x1A7 PUSH1 0x4 DUP1 CALLDATASIZE SUB DUP2 ADD SWAP1 PUSH2 0x1A2 SWAP2 SWAP1 PUSH2 0x23DC JUMP JUMPDEST PUSH2 0xAAC JUMP JUMPDEST PUSH1 0x40 MLOAD PUSH2 0x1B4 SWAP2 SWAP1 PUSH2 0x2418 JUMP JUMPDEST PUSH1 0x40 MLOAD DUP1 SWAP2 SUB SWAP1 RETURN JUMPDEST PUSH2 0x1C5 PUSH2 0xAC4 JUMP JUMPDEST PUSH1 0x40 MLOAD PUSH2 0x1D2 SWAP2 SWAP1 PUSH2 0x2418 JUMP JUMPDEST PUSH1 0x40 MLOAD DUP1 SWAP2 SUB SWAP1 RETURN JUMPDEST PUSH2 0x1F5 PUSH1 0x4 DUP1 CALLDATASIZE SUB DUP2 ADD SWAP1 PUSH2 0x1F0 SWAP2 SWAP1 PUSH2 0x2433 JUMP JUMPDEST PUSH2 0xACA JUMP JUMPDEST PUSH1 0x40 MLOAD PUSH2 0x202 SWAP2 SWAP1 PUSH2 0x23C1 JUMP JUMPDEST PUSH1 0x40 MLOAD DUP1 SWAP2 SUB SWAP1 RETURN JUMPDEST PUSH2 0x213 PUSH2 0xE34 JUMP JUMPDEST PUSH1 0x40 MLOAD PUSH2 0x220 SWAP2 SWAP1 PUSH2 0x2418 JUMP JUMPDEST PUSH1 0x40 MLOAD DUP1 SWAP2 SUB SWAP1 RETURN JUMPDEST PUSH2 0x231 PUSH2 0xE41 JUMP JUMPDEST PUSH1 0x40 MLOAD PUSH2 0x23E SWAP2 SWAP1 PUSH2 0x23C1 JUMP JUMPDEST PUSH1 0x40 MLOAD DUP1 SWAP2 SUB SWAP1 RETURN JUMPDEST PUSH2 0x261 PUSH1 0x4 DUP1 CALLDATASIZE SUB DUP2 ADD SWAP1 PUSH2 0x25C SWAP2 SWAP1 PUSH2 0x249A JUMP JUMPDEST PUSH2 0x1074 JUMP JUMPDEST PUSH1 0x40 MLOAD PUSH2 0x26E SWAP2 SWAP1 PUSH2 0x23C1 JUMP JUMPDEST PUSH1 0x40 MLOAD DUP1 SWAP2 SUB SWAP1 RETURN JUMPDEST PUSH2 0x291 PUSH1 0x4 DUP1 CALLDATASIZE SUB DUP2 ADD SWAP1 PUSH2 0x28C SWAP2 SWAP1 PUSH2 0x23DC JUMP JUMPDEST PUSH2 0x12D4 JUMP JUMPDEST PUSH1 0x40 MLOAD PUSH2 0x29E SWAP2 SWAP1 PUSH2 0x23C1 JUMP JUMPDEST PUSH1 0x40 MLOAD DUP1 SWAP2 SUB SWAP1 RETURN JUMPDEST PUSH2 0x2AF PUSH2 0x13AC JUMP JUMPDEST STOP JUMPDEST PUSH2 0x2CB PUSH1 0x4 DUP1 CALLDATASIZE SUB DUP2 ADD SWAP1 PUSH2 0x2C6 SWAP2 SWAP1 PUSH2 0x2433 JUMP JUMPDEST PUSH2 0x13C0 JUMP JUMPDEST PUSH1 0x40 MLOAD PUSH2 0x2D8 SWAP2 SWAP1 PUSH2 0x2418 JUMP JUMPDEST PUSH1 0x40 MLOAD DUP1 SWAP2 SUB SWAP1 RETURN JUMPDEST PUSH2 0x2FB PUSH1 0x4 DUP1 CALLDATASIZE SUB DUP2 ADD SWAP1 PUSH2 0x2F6 SWAP2 SWAP1 PUSH2 0x23DC JUMP JUMPDEST PUSH2 0x1519 JUMP JUMPDEST PUSH1 0x40 MLOAD PUSH2 0x308 SWAP2 SWAP1 PUSH2 0x2418 JUMP JUMPDEST PUSH1 0x40 MLOAD DUP1 SWAP2 SUB SWAP1 RETURN JUMPDEST PUSH2 0x32B PUSH1 0x4 DUP1 CALLDATASIZE SUB DUP2 ADD SWAP1 PUSH2 0x326 SWAP2 SWAP1 PUSH2 0x23DC JUMP JUMPDEST PUSH2 0x1531 JUMP JUMPDEST PUSH1 0x40 MLOAD PUSH2 0x338 SWAP2 SWAP1 PUSH2 0x2418 JUMP JUMPDEST PUSH1 0x40 MLOAD DUP1 SWAP2 SUB SWAP1 RETURN JUMPDEST PUSH2 0x349 PUSH2 0x154E JUMP JUMPDEST PUSH1 0x40 MLOAD PUSH2 0x356 SWAP2 SWAP1 PUSH2 0x251B JUMP JUMPDEST PUSH1 0x40 MLOAD DUP1 SWAP2 SUB SWAP1 RETURN JUMPDEST PUSH2 0x367 PUSH2 0x1577 JUMP JUMPDEST PUSH1 0x40 MLOAD PUSH2 0x374 SWAP2 SWAP1 PUSH2 0x2418 JUMP JUMPDEST PUSH1 0x40 MLOAD DUP1 SWAP2 SUB SWAP1 RETURN JUMPDEST PUSH2 0x397 PUSH1 0x4 DUP1 CALLDATASIZE SUB DUP2 ADD SWAP1 PUSH2 0x392 SWAP2 SWAP1 PUSH2 0x2536 JUMP JUMPDEST PUSH2 0x157D JUMP JUMPDEST PUSH1 0x40 MLOAD PUSH2 0x3A6 SWAP4 SWAP3 SWAP2 SWAP1 PUSH2 0x25B4 JUMP JUMPDEST PUSH1 0x40 MLOAD DUP1 SWAP2 SUB SWAP1 RETURN JUMPDEST PUSH2 0x3B7 PUSH2 0x15E5 JUMP JUMPDEST PUSH1 0x40 MLOAD PUSH2 0x3C4 SWAP2 SWAP1 PUSH2 0x2418 JUMP JUMPDEST PUSH1 0x40 MLOAD DUP1 SWAP2 SUB SWAP1 RETURN JUMPDEST PUSH2 0x3D5 PUSH2 0x15EB JUMP JUMPDEST PUSH1 0x40 MLOAD PUSH2 0x3E2 SWAP2 SWAP1 PUSH2 0x2418 JUMP JUMPDEST PUSH1 0x40 MLOAD DUP1 SWAP2 SUB SWAP1 RETURN JUMPDEST PUSH2 0x405 PUSH1 0x4 DUP1 CALLDATASIZE SUB DUP2 ADD SWAP1 PUSH2 0x400 SWAP2 SWAP1 PUSH2 0x23DC JUMP JUMPDEST PUSH2 0x15F5 JUMP JUMPDEST PUSH1 0x40 MLOAD PUSH2 0x412 SWAP2 SWAP1 PUSH2 0x2418 JUMP JUMPDEST PUSH1 0x40 MLOAD DUP1 SWAP2 SUB SWAP1 RETURN JUMPDEST PUSH2 0x435 PUSH1 0x4 DUP1 CALLDATASIZE SUB DUP2 ADD SWAP1 PUSH2 0x430 SWAP2 SWAP1 PUSH2 0x23DC JUMP JUMPDEST PUSH2 0x160D JUMP JUMPDEST PUSH1 0x40 MLOAD PUSH2 0x442 SWAP2 SWAP1 PUSH2 0x2418 JUMP JUMPDEST PUSH1 0x40 MLOAD DUP1 SWAP2 SUB SWAP1 RETURN JUMPDEST PUSH2 0x465 PUSH1 0x4 DUP1 CALLDATASIZE SUB DUP2 ADD SWAP1 PUSH2 0x460 SWAP2 SWAP1 PUSH2 0x23DC JUMP JUMPDEST PUSH2 0x1625 JUMP JUMPDEST PUSH1 0x40 MLOAD PUSH2 0x472 SWAP2 SWAP1 PUSH2 0x2418 JUMP JUMPDEST PUSH1 0x40 MLOAD DUP1 SWAP2 SUB SWAP1 RETURN JUMPDEST PUSH2 0x495 PUSH1 0x4 DUP1 CALLDATASIZE SUB DUP2 ADD SWAP1 PUSH2 0x490 SWAP2 SWAP1 PUSH2 0x25EB JUMP JUMPDEST PUSH2 0x163D JUMP JUMPDEST PUSH1 0x40 MLOAD PUSH2 0x4A2 SWAP2 SWAP1 PUSH2 0x251B JUMP JUMPDEST PUSH1 0x40 MLOAD DUP1 SWAP2 SUB SWAP1 RETURN JUMPDEST PUSH2 0x4C5 PUSH1 0x4 DUP1 CALLDATASIZE SUB DUP2 ADD SWAP1 PUSH2 0x4C0 SWAP2 SWAP1 PUSH2 0x266E JUMP JUMPDEST PUSH2 0x1806 JUMP JUMPDEST PUSH1 0x40 MLOAD PUSH2 0x4D2 SWAP2 SWAP1 PUSH2 0x23C1 JUMP JUMPDEST PUSH1 0x40 MLOAD DUP1 SWAP2 SUB SWAP1 RETURN JUMPDEST PUSH2 0x4F5 PUSH1 0x4 DUP1 CALLDATASIZE SUB DUP2 ADD SWAP1 PUSH2 0x4F0 SWAP2 SWAP1 PUSH2 0x26ED JUMP JUMPDEST PUSH2 0x1C35 JUMP JUMPDEST STOP JUMPDEST PUSH2 0x4FF PUSH2 0x1CB8 JUMP JUMPDEST PUSH1 0x40 MLOAD PUSH2 0x50C SWAP2 SWAP1 PUSH2 0x23C1 JUMP JUMPDEST PUSH1 0x40 MLOAD DUP1 SWAP2 SUB SWAP1 RETURN JUMPDEST PUSH1 0x0 DUP1 PUSH1 0x7 SLOAD EQ ISZERO DUP1 ISZERO PUSH2 0x52C JUMPI POP PUSH1 0x0 PUSH1 0x2 SLOAD EQ ISZERO JUMPDEST PUSH2 0x56B JUMPI PUSH1 0x40 MLOAD PUSH32 0x8C379A000000000000000000000000000000000000000000000000000000000 DUP2 MSTORE PUSH1 0x4 ADD PUSH2 0x562 SWAP1 PUSH2 0x2777 JUMP JUMPDEST PUSH1 0x40 MLOAD DUP1 SWAP2 SUB SWAP1 REVERT JUMPDEST PUSH1 0x0 PUSH3 0x93A80 PUSH1 0xA PUSH1 0x0 PUSH1 0x7 SLOAD DUP2 MSTORE PUSH1 0x20 ADD SWAP1 DUP2 MSTORE PUSH1 0x20 ADD PUSH1 0x0 KECCAK256 SLOAD PUSH2 0x591 SWAP2 SWAP1 PUSH2 0x27C6 JUMP JUMPDEST SWAP1 POP DUP1 TIMESTAMP LT ISZERO DUP1 ISZERO PUSH2 0x5B1 JUMPI POP PUSH3 0x15180 DUP2 PUSH2 0x5AD SWAP2 SWAP1 PUSH2 0x27C6 JUMP JUMPDEST TIMESTAMP GT ISZERO JUMPDEST PUSH2 0x5F0 JUMPI PUSH1 0x40 MLOAD PUSH32 0x8C379A000000000000000000000000000000000000000000000000000000000 DUP2 MSTORE PUSH1 0x4 ADD PUSH2 0x5E7 SWAP1 PUSH2 0x2846 JUMP JUMPDEST PUSH1 0x40 MLOAD DUP1 SWAP2 SUB SWAP1 REVERT JUMPDEST PUSH1 0x15 DUP4 PUSH1 0x40 MLOAD PUSH2 0x600 SWAP2 SWAP1 PUSH2 0x28D7 JUMP JUMPDEST SWAP1 DUP2 MSTORE PUSH1 0x20 ADD PUSH1 0x40 MLOAD DUP1 SWAP2 SUB SWAP1 KECCAK256 PUSH1 0x0 SWAP1 SLOAD SWAP1 PUSH2 0x100 EXP SWAP1 DIV PUSH1 0xFF AND ISZERO PUSH2 0x65C JUMPI PUSH1 0x40 MLOAD PUSH32 0x8C379A000000000000000000000000000000000000000000000000000000000 DUP2 MSTORE PUSH1 0x4 ADD PUSH2 0x653 SWAP1 PUSH2 0x293A JUMP JUMPDEST PUSH1 0x40 MLOAD DUP1 SWAP2 SUB SWAP1 REVERT JUMPDEST PUSH1 0x6 PUSH1 0x0 SWAP1 SLOAD SWAP1 PUSH2 0x100 EXP SWAP1 DIV PUSH20 0xFFFFFFFFFFFFFFFFFFFFFFFFFFFFFFFFFFFFFFFF AND PUSH20 0xFFFFFFFFFFFFFFFFFFFFFFFFFFFFFFFFFFFFFFFF AND PUSH4 0x263B59A4 DUP6 PUSH1 0x40 MLOAD DUP3 PUSH4 0xFFFFFFFF AND PUSH1 0xE0 SHL DUP2 MSTORE PUSH1 0x4 ADD PUSH2 0x6B7 SWAP2 SWAP1 PUSH2 0x2418 JUMP JUMPDEST PUSH1 0x20 PUSH1 0x40 MLOAD DUP1 DUP4 SUB DUP2 DUP7 GAS STATICCALL ISZERO DUP1 ISZERO PUSH2 0x6D4 JUMPI RETURNDATASIZE PUSH1 0x0 DUP1 RETURNDATACOPY RETURNDATASIZE PUSH1 0x0 REVERT JUMPDEST POP POP POP POP PUSH1 0x40 MLOAD RETURNDATASIZE PUSH1 0x1F NOT PUSH1 0x1F DUP3 ADD AND DUP3 ADD DUP1 PUSH1 0x40 MSTORE POP DUP2 ADD SWAP1 PUSH2 0x6F8 SWAP2 SWAP1 PUSH2 0x296F JUMP JUMPDEST PUSH20 0xFFFFFFFFFFFFFFFFFFFFFFFFFFFFFFFFFFFFFFFF AND CALLER PUSH20 0xFFFFFFFFFFFFFFFFFFFFFFFFFFFFFFFFFFFFFFFF AND EQ PUSH2 0x765 JUMPI PUSH1 0x40 MLOAD PUSH32 0x8C379A000000000000000000000000000000000000000000000000000000000 DUP2 MSTORE PUSH1 0x4 ADD PUSH2 0x75C SWAP1 PUSH2 0x29E8 JUMP JUMPDEST PUSH1 0x40 MLOAD DUP1 SWAP2 SUB SWAP1 REVERT JUMPDEST PUSH1 0x14 PUSH1 0x0 DUP6 DUP2 MSTORE PUSH1 0x20 ADD SWAP1 DUP2 MSTORE PUSH1 0x20 ADD PUSH1 0x0 KECCAK256 PUSH1 0x0 PUSH1 0x7 SLOAD DUP2 MSTORE PUSH1 0x20 ADD SWAP1 DUP2 MSTORE PUSH1 0x20 ADD PUSH1 0x0 KECCAK256 PUSH1 0x0 SWAP1 SLOAD SWAP1 PUSH2 0x100 EXP SWAP1 DIV PUSH1 0xFF AND ISZERO PUSH2 0x7D9 JUMPI PUSH1 0x40 MLOAD PUSH32 0x8C379A000000000000000000000000000000000000000000000000000000000 DUP2 MSTORE PUSH1 0x4 ADD PUSH2 0x7D0 SWAP1 PUSH2 0x2A54 JUMP JUMPDEST PUSH1 0x40 MLOAD DUP1 SWAP2 SUB SWAP1 REVERT JUMPDEST PUSH1 0x0 PUSH1 0x6 PUSH1 0x0 SWAP1 SLOAD SWAP1 PUSH2 0x100 EXP SWAP1 DIV PUSH20 0xFFFFFFFFFFFFFFFFFFFFFFFFFFFFFFFFFFFFFFFF AND PUSH20 0xFFFFFFFFFFFFFFFFFFFFFFFFFFFFFFFFFFFFFFFF AND PUSH4 0xC293FE1C DUP7 PUSH1 0x40 MLOAD DUP3 PUSH4 0xFFFFFFFF AND PUSH1 0xE0 SHL DUP2 MSTORE PUSH1 0x4 ADD PUSH2 0x836 SWAP2 SWAP1 PUSH2 0x2418 JUMP JUMPDEST PUSH1 0x20 PUSH1 0x40 MLOAD DUP1 DUP4 SUB DUP2 DUP7 GAS STATICCALL ISZERO DUP1 ISZERO PUSH2 0x853 JUMPI RETURNDATASIZE PUSH1 0x0 DUP1 RETURNDATACOPY RETURNDATASIZE PUSH1 0x0 REVERT JUMPDEST POP POP POP POP PUSH1 0x40 MLOAD RETURNDATASIZE PUSH1 0x1F NOT PUSH1 0x1F DUP3 ADD AND DUP3 ADD DUP1 PUSH1 0x40 MSTORE POP DUP2 ADD SWAP1 PUSH2 0x877 SWAP2 SWAP1 PUSH2 0x2A89 JUMP JUMPDEST GT PUSH2 0x8B7 JUMPI PUSH1 0x40 MLOAD PUSH32 0x8C379A000000000000000000000000000000000000000000000000000000000 DUP2 MSTORE PUSH1 0x4 ADD PUSH2 0x8AE SWAP1 PUSH2 0x2B02 JUMP JUMPDEST PUSH1 0x40 MLOAD DUP1 SWAP2 SUB SWAP1 REVERT JUMPDEST PUSH1 0x0 PUSH2 0x8C7 DUP5 DUP8 DUP8 PUSH1 0x7 SLOAD PUSH2 0x163D JUMP JUMPDEST SWAP1 POP PUSH2 0x8D1 PUSH2 0x154E JUMP JUMPDEST PUSH20 0xFFFFFFFFFFFFFFFFFFFFFFFFFFFFFFFFFFFFFFFF AND DUP2 PUSH20 0xFFFFFFFFFFFFFFFFFFFFFFFFFFFFFFFFFFFFFFFF AND EQ PUSH2 0x93E JUMPI PUSH1 0x40 MLOAD PUSH32 0x8C379A000000000000000000000000000000000000000000000000000000000 DUP2 MSTORE PUSH1 0x4 ADD PUSH2 0x935 SWAP1 PUSH2 0x2B6E JUMP JUMPDEST PUSH1 0x40 MLOAD DUP1 SWAP2 SUB SWAP1 REVERT JUMPDEST DUP6 PUSH1 0xC PUSH1 0x0 DUP8 DUP2 MSTORE PUSH1 0x20 ADD SWAP1 DUP2 MSTORE PUSH1 0x20 ADD PUSH1 0x0 KECCAK256 SLOAD PUSH2 0x95D SWAP2 SWAP1 PUSH2 0x27C6 JUMP JUMPDEST PUSH1 0xC PUSH1 0x0 DUP8 DUP2 MSTORE PUSH1 0x20 ADD SWAP1 DUP2 MSTORE PUSH1 0x20 ADD PUSH1 0x0 KECCAK256 DUP2 SWAP1 SSTORE POP PUSH1 0x1 PUSH1 0x14 PUSH1 0x0 DUP8 DUP2 MSTORE PUSH1 0x20 ADD SWAP1 DUP2 MSTORE PUSH1 0x20 ADD PUSH1 0x0 KECCAK256 PUSH1 0x0 PUSH1 0x7 SLOAD DUP2 MSTORE PUSH1 0x20 ADD SWAP1 DUP2 MSTORE PUSH1 0x20 ADD PUSH1 0x0 KECCAK256 PUSH1 0x0 PUSH2 0x100 EXP DUP2 SLOAD DUP2 PUSH1 0xFF MUL NOT AND SWAP1 DUP4 ISZERO ISZERO MUL OR SWAP1 SSTORE POP PUSH1 0x0 PUSH1 0x2 PUSH1 0x7 SLOAD PUSH2 0x9C4 SWAP2 SWAP1 PUSH2 0x2BBD JUMP JUMPDEST EQ DUP1 ISZERO PUSH2 0x9D4 JUMPI POP PUSH1 0x0 PUSH1 0x7 SLOAD EQ ISZERO JUMPDEST ISZERO PUSH2 0xA3D JUMPI PUSH1 0x0 PUSH2 0x9E4 DUP7 PUSH2 0x1E32 JUMP JUMPDEST SWAP1 POP DUP1 PUSH1 0xE PUSH1 0x0 DUP9 DUP2 MSTORE PUSH1 0x20 ADD SWAP1 DUP2 MSTORE PUSH1 0x20 ADD PUSH1 0x0 KECCAK256 DUP2 SWAP1 SSTORE POP PUSH1 0x10 PUSH1 0x0 DUP8 DUP2 MSTORE PUSH1 0x20 ADD SWAP1 DUP2 MSTORE PUSH1 0x20 ADD PUSH1 0x0 KECCAK256 SLOAD PUSH1 0xE PUSH1 0x0 DUP9 DUP2 MSTORE PUSH1 0x20 ADD SWAP1 DUP2 MSTORE PUSH1 0x20 ADD PUSH1 0x0 KECCAK256 PUSH1 0x0 DUP3 DUP3 SLOAD PUSH2 0xA34 SWAP2 SWAP1 PUSH2 0x2BEE JUMP JUMPDEST SWAP3 POP POP DUP2 SWAP1 SSTORE POP POP JUMPDEST PUSH1 0x12 PUSH1 0x0 PUSH1 0x7 SLOAD DUP2 MSTORE PUSH1 0x20 ADD SWAP1 DUP2 MSTORE PUSH1 0x20 ADD PUSH1 0x0 KECCAK256 PUSH1 0x0 DUP2 SLOAD DUP1 SWAP3 SWAP2 SWAP1 PUSH2 0xA63 SWAP1 PUSH2 0x2C22 JUMP JUMPDEST SWAP2 SWAP1 POP SSTORE POP PUSH1 0x1 PUSH1 0x15 DUP6 PUSH1 0x40 MLOAD PUSH2 0xA7A SWAP2 SWAP1 PUSH2 0x28D7 JUMP JUMPDEST SWAP1 DUP2 MSTORE PUSH1 0x20 ADD PUSH1 0x40 MLOAD DUP1 SWAP2 SUB SWAP1 KECCAK256 PUSH1 0x0 PUSH2 0x100 EXP DUP2 SLOAD DUP2 PUSH1 0xFF MUL NOT AND SWAP1 DUP4 ISZERO ISZERO MUL OR SWAP1 SSTORE POP PUSH1 0x1 SWAP3 POP POP POP SWAP4 SWAP3 POP POP POP JUMP JUMPDEST PUSH1 0xE PUSH1 0x20 MSTORE DUP1 PUSH1 0x0 MSTORE PUSH1 0x40 PUSH1 0x0 KECCAK256 PUSH1 0x0 SWAP2 POP SWAP1 POP SLOAD DUP2 JUMP JUMPDEST PUSH1 0x7 SLOAD DUP2 JUMP JUMPDEST PUSH1 0x0 PUSH1 0x6 PUSH1 0x0 SWAP1 SLOAD SWAP1 PUSH2 0x100 EXP SWAP1 DIV PUSH20 0xFFFFFFFFFFFFFFFFFFFFFFFFFFFFFFFFFFFFFFFF AND PUSH20 0xFFFFFFFFFFFFFFFFFFFFFFFFFFFFFFFFFFFFFFFF AND CALLER PUSH20 0xFFFFFFFFFFFFFFFFFFFFFFFFFFFFFFFFFFFFFFFF AND EQ PUSH2 0xB5C JUMPI PUSH1 0x40 MLOAD PUSH32 0x8C379A000000000000000000000000000000000000000000000000000000000 DUP2 MSTORE PUSH1 0x4 ADD PUSH2 0xB53 SWAP1 PUSH2 0x2CDC JUMP JUMPDEST PUSH1 0x40 MLOAD DUP1 SWAP2 SUB SWAP1 REVERT JUMPDEST PUSH1 0x0 PUSH1 0xC PUSH1 0x0 DUP8 DUP2 MSTORE PUSH1 0x20 ADD SWAP1 DUP2 MSTORE PUSH1 0x20 ADD PUSH1 0x0 KECCAK256 SLOAD SWAP1 POP PUSH1 0x0 PUSH1 0x64 PUSH2 0xB84 DUP4 DUP9 DUP9 DUP9 PUSH2 0x13C0 JUMP JUMPDEST PUSH2 0xB8E SWAP2 SWAP1 PUSH2 0x2CFC JUMP JUMPDEST SWAP1 POP PUSH1 0x0 DUP5 DUP7 PUSH1 0xC PUSH1 0x0 DUP12 DUP2 MSTORE PUSH1 0x20 ADD SWAP1 DUP2 MSTORE PUSH1 0x20 ADD PUSH1 0x0 KECCAK256 SLOAD PUSH2 0xBB2 SWAP2 SWAP1 PUSH2 0x2D2D JUMP JUMPDEST PUSH2 0xBBC SWAP2 SWAP1 PUSH2 0x2CFC JUMP JUMPDEST SWAP1 POP DUP2 DUP2 PUSH2 0xBCA SWAP2 SWAP1 PUSH2 0x2BEE JUMP JUMPDEST SWAP1 POP PUSH1 0x5 PUSH1 0x0 SWAP1 SLOAD SWAP1 PUSH2 0x100 EXP SWAP1 DIV PUSH20 0xFFFFFFFFFFFFFFFFFFFFFFFFFFFFFFFFFFFFFFFF AND PUSH20 0xFFFFFFFFFFFFFFFFFFFFFFFFFFFFFFFFFFFFFFFF AND PUSH4 0xA9059CBB PUSH1 0x11 PUSH1 0x0 SWAP1 SLOAD SWAP1 PUSH2 0x100 EXP SWAP1 DIV PUSH20 0xFFFFFFFFFFFFFFFFFFFFFFFFFFFFFFFFFFFFFFFF AND DUP5 PUSH1 0x40 MLOAD DUP4 PUSH4 0xFFFFFFFF AND PUSH1 0xE0 SHL DUP2 MSTORE PUSH1 0x4 ADD PUSH2 0xC4B SWAP3 SWAP2 SWAP1 PUSH2 0x2D6F JUMP JUMPDEST PUSH1 0x20 PUSH1 0x40 MLOAD DUP1 DUP4 SUB DUP2 PUSH1 0x0 DUP8 GAS CALL ISZERO DUP1 ISZERO PUSH2 0xC6A JUMPI RETURNDATASIZE PUSH1 0x0 DUP1 RETURNDATACOPY RETURNDATASIZE PUSH1 0x0 REVERT JUMPDEST POP POP POP POP PUSH1 0x40 MLOAD RETURNDATASIZE PUSH1 0x1F NOT PUSH1 0x1F DUP3 ADD AND DUP3 ADD DUP1 PUSH1 0x40 MSTORE POP DUP2 ADD SWAP1 PUSH2 0xC8E SWAP2 SWAP1 PUSH2 0x2DC4 JUMP JUMPDEST POP DUP1 PUSH1 0xC PUSH1 0x0 DUP11 DUP2 MSTORE PUSH1 0x20 ADD SWAP1 DUP2 MSTORE PUSH1 0x20 ADD PUSH1 0x0 KECCAK256 PUSH1 0x0 DUP3 DUP3 SLOAD PUSH2 0xCB2 SWAP2 SWAP1 PUSH2 0x2BEE JUMP JUMPDEST SWAP3 POP POP DUP2 SWAP1 SSTORE POP DUP2 PUSH1 0xC PUSH1 0x0 DUP11 DUP2 MSTORE PUSH1 0x20 ADD SWAP1 DUP2 MSTORE PUSH1 0x20 ADD PUSH1 0x0 KECCAK256 PUSH1 0x0 DUP3 DUP3 SLOAD PUSH2 0xCDC SWAP2 SWAP1 PUSH2 0x2BEE JUMP JUMPDEST SWAP3 POP POP DUP2 SWAP1 SSTORE POP PUSH1 0x0 PUSH1 0x6 PUSH1 0x0 SWAP1 SLOAD SWAP1 PUSH2 0x100 EXP SWAP1 DIV PUSH20 0xFFFFFFFFFFFFFFFFFFFFFFFFFFFFFFFFFFFFFFFF AND PUSH20 0xFFFFFFFFFFFFFFFFFFFFFFFFFFFFFFFFFFFFFFFF AND PUSH4 0x263B59A4 DUP11 PUSH1 0x40 MLOAD DUP3 PUSH4 0xFFFFFFFF AND PUSH1 0xE0 SHL DUP2 MSTORE PUSH1 0x4 ADD PUSH2 0xD40 SWAP2 SWAP1 PUSH2 0x2418 JUMP JUMPDEST PUSH1 0x20 PUSH1 0x40 MLOAD DUP1 DUP4 SUB DUP2 DUP7 GAS STATICCALL ISZERO DUP1 ISZERO PUSH2 0xD5D JUMPI RETURNDATASIZE PUSH1 0x0 DUP1 RETURNDATACOPY RETURNDATASIZE PUSH1 0x0 REVERT JUMPDEST POP POP POP POP PUSH1 0x40 MLOAD RETURNDATASIZE PUSH1 0x1F NOT PUSH1 0x1F DUP3 ADD AND DUP3 ADD DUP1 PUSH1 0x40 MSTORE POP DUP2 ADD SWAP1 PUSH2 0xD81 SWAP2 SWAP1 PUSH2 0x296F JUMP JUMPDEST SWAP1 POP PUSH1 0x5 PUSH1 0x0 SWAP1 SLOAD SWAP1 PUSH2 0x100 EXP SWAP1 DIV PUSH20 0xFFFFFFFFFFFFFFFFFFFFFFFFFFFFFFFFFFFFFFFF AND PUSH20 0xFFFFFFFFFFFFFFFFFFFFFFFFFFFFFFFFFFFFFFFF AND PUSH4 0xA9059CBB DUP3 DUP5 PUSH1 0x40 MLOAD DUP4 PUSH4 0xFFFFFFFF AND PUSH1 0xE0 SHL DUP2 MSTORE PUSH1 0x4 ADD PUSH2 0xDE0 SWAP3 SWAP2 SWAP1 PUSH2 0x2D6F JUMP JUMPDEST PUSH1 0x20 PUSH1 0x40 MLOAD DUP1 DUP4 SUB DUP2 PUSH1 0x0 DUP8 GAS CALL ISZERO DUP1 ISZERO PUSH2 0xDFF JUMPI RETURNDATASIZE PUSH1 0x0 DUP1 RETURNDATACOPY RETURNDATASIZE PUSH1 0x0 REVERT JUMPDEST POP POP POP POP PUSH1 0x40 MLOAD RETURNDATASIZE PUSH1 0x1F NOT PUSH1 0x1F DUP3 ADD AND DUP3 ADD DUP1 PUSH1 0x40 MSTORE POP DUP2 ADD SWAP1 PUSH2 0xE23 SWAP2 SWAP1 PUSH2 0x2DC4 JUMP JUMPDEST POP PUSH1 0x1 SWAP5 POP POP POP POP POP SWAP5 SWAP4 POP POP POP POP JUMP JUMPDEST PUSH1 0x0 DUP1 CHAINID SWAP1 POP DUP1 SWAP2 POP POP SWAP1 JUMP JUMPDEST PUSH1 0x0 PUSH2 0xE4B PUSH2 0x205D JUMP JUMPDEST PUSH3 0x93A80 PUSH1 0xA PUSH1 0x0 PUSH1 0x7 SLOAD DUP2 MSTORE PUSH1 0x20 ADD SWAP1 DUP2 MSTORE PUSH1 0x20 ADD PUSH1 0x0 KECCAK256 SLOAD PUSH2 0xE6F SWAP2 SWAP1 PUSH2 0x27C6 JUMP JUMPDEST TIMESTAMP LT ISZERO PUSH2 0xEB1 JUMPI PUSH1 0x40 MLOAD PUSH32 0x8C379A000000000000000000000000000000000000000000000000000000000 DUP2 MSTORE PUSH1 0x4 ADD PUSH2 0xEA8 SWAP1 PUSH2 0x2E3D JUMP JUMPDEST PUSH1 0x40 MLOAD DUP1 SWAP2 SUB SWAP1 REVERT JUMPDEST PUSH1 0x6 PUSH1 0x0 SWAP1 SLOAD SWAP1 PUSH2 0x100 EXP SWAP1 DIV PUSH20 0xFFFFFFFFFFFFFFFFFFFFFFFFFFFFFFFFFFFFFFFF AND PUSH20 0xFFFFFFFFFFFFFFFFFFFFFFFFFFFFFFFFFFFFFFFF AND PUSH4 0x3B7DAA96 PUSH1 0x7 SLOAD PUSH1 0x40 MLOAD DUP3 PUSH4 0xFFFFFFFF AND PUSH1 0xE0 SHL DUP2 MSTORE PUSH1 0x4 ADD PUSH2 0xF0E SWAP2 SWAP1 PUSH2 0x2418 JUMP JUMPDEST PUSH1 0x20 PUSH1 0x40 MLOAD DUP1 DUP4 SUB DUP2 DUP7 GAS STATICCALL ISZERO DUP1 ISZERO PUSH2 0xF2B JUMPI RETURNDATASIZE PUSH1 0x0 DUP1 RETURNDATACOPY RETURNDATASIZE PUSH1 0x0 REVERT JUMPDEST POP POP POP POP PUSH1 0x40 MLOAD RETURNDATASIZE PUSH1 0x1F NOT PUSH1 0x1F DUP3 ADD AND DUP3 ADD DUP1 PUSH1 0x40 MSTORE POP DUP2 ADD SWAP1 PUSH2 0xF4F SWAP2 SWAP1 PUSH2 0x2A89 JUMP JUMPDEST PUSH1 0x12 PUSH1 0x0 PUSH1 0x7 SLOAD DUP2 MSTORE PUSH1 0x20 ADD SWAP1 DUP2 MSTORE PUSH1 0x20 ADD PUSH1 0x0 KECCAK256 SLOAD EQ PUSH2 0xFA5 JUMPI PUSH1 0x40 MLOAD PUSH32 0x8C379A000000000000000000000000000000000000000000000000000000000 DUP2 MSTORE PUSH1 0x4 ADD PUSH2 0xF9C SWAP1 PUSH2 0x2ECF JUMP JUMPDEST PUSH1 0x40 MLOAD DUP1 SWAP2 SUB SWAP1 REVERT JUMPDEST PUSH1 0x1 PUSH1 0x7 SLOAD PUSH2 0xFB4 SWAP2 SWAP1 PUSH2 0x27C6 JUMP JUMPDEST PUSH1 0x7 DUP2 SWAP1 SSTORE POP PUSH3 0x93A80 PUSH1 0xA PUSH1 0x0 PUSH1 0x1 PUSH1 0x7 SLOAD PUSH2 0xFD1 SWAP2 SWAP1 PUSH2 0x2BEE JUMP JUMPDEST DUP2 MSTORE PUSH1 0x20 ADD SWAP1 DUP2 MSTORE PUSH1 0x20 ADD PUSH1 0x0 KECCAK256 SLOAD PUSH2 0xFEA SWAP2 SWAP1 PUSH2 0x27C6 JUMP JUMPDEST PUSH1 0xA PUSH1 0x0 PUSH1 0x7 SLOAD DUP2 MSTORE PUSH1 0x20 ADD SWAP1 DUP2 MSTORE PUSH1 0x20 ADD PUSH1 0x0 KECCAK256 DUP2 SWAP1 SSTORE POP PUSH1 0x0 PUSH1 0x2 PUSH1 0x7 SLOAD PUSH2 0x1014 SWAP2 SWAP1 PUSH2 0x2BBD JUMP JUMPDEST EQ DUP1 ISZERO PUSH2 0x1024 JUMPI POP PUSH1 0x0 PUSH1 0x7 SLOAD EQ ISZERO JUMPDEST ISZERO PUSH2 0x106D JUMPI PUSH1 0x1 PUSH1 0x2 SLOAD PUSH2 0x1038 SWAP2 SWAP1 PUSH2 0x27C6 JUMP JUMPDEST PUSH1 0x2 DUP2 SWAP1 SSTORE POP PUSH1 0x1 PUSH1 0xD PUSH1 0x0 PUSH1 0x2 SLOAD DUP2 MSTORE PUSH1 0x20 ADD SWAP1 DUP2 MSTORE PUSH1 0x20 ADD PUSH1 0x0 KECCAK256 PUSH1 0x0 PUSH2 0x100 EXP DUP2 SLOAD DUP2 PUSH1 0xFF MUL NOT AND SWAP1 DUP4 ISZERO ISZERO MUL OR SWAP1 SSTORE POP JUMPDEST PUSH1 0x1 SWAP1 POP SWAP1 JUMP JUMPDEST PUSH1 0x0 PUSH1 0x6 PUSH1 0x0 SWAP1 SLOAD SWAP1 PUSH2 0x100 EXP SWAP1 DIV PUSH20 0xFFFFFFFFFFFFFFFFFFFFFFFFFFFFFFFFFFFFFFFF AND PUSH20 0xFFFFFFFFFFFFFFFFFFFFFFFFFFFFFFFFFFFFFFFF AND PUSH4 0x263B59A4 DUP5 PUSH1 0x40 MLOAD DUP3 PUSH4 0xFFFFFFFF AND PUSH1 0xE0 SHL DUP2 MSTORE PUSH1 0x4 ADD PUSH2 0x10D1 SWAP2 SWAP1 PUSH2 0x2418 JUMP JUMPDEST PUSH1 0x20 PUSH1 0x40 MLOAD DUP1 DUP4 SUB DUP2 DUP7 GAS STATICCALL ISZERO DUP1 ISZERO PUSH2 0x10EE JUMPI RETURNDATASIZE PUSH1 0x0 DUP1 RETURNDATACOPY RETURNDATASIZE PUSH1 0x0 REVERT JUMPDEST POP POP POP POP PUSH1 0x40 MLOAD RETURNDATASIZE PUSH1 0x1F NOT PUSH1 0x1F DUP3 ADD AND DUP3 ADD DUP1 PUSH1 0x40 MSTORE POP DUP2 ADD SWAP1 PUSH2 0x1112 SWAP2 SWAP1 PUSH2 0x296F JUMP JUMPDEST PUSH20 0xFFFFFFFFFFFFFFFFFFFFFFFFFFFFFFFFFFFFFFFF AND CALLER PUSH20 0xFFFFFFFFFFFFFFFFFFFFFFFFFFFFFFFFFFFFFFFF AND EQ PUSH2 0x117F JUMPI PUSH1 0x40 MLOAD PUSH32 0x8C379A000000000000000000000000000000000000000000000000000000000 DUP2 MSTORE PUSH1 0x4 ADD PUSH2 0x1176 SWAP1 PUSH2 0x2F3B JUMP JUMPDEST PUSH1 0x40 MLOAD DUP1 SWAP2 SUB SWAP1 REVERT JUMPDEST PUSH1 0xE PUSH1 0x0 DUP5 DUP2 MSTORE PUSH1 0x20 ADD SWAP1 DUP2 MSTORE PUSH1 0x20 ADD PUSH1 0x0 KECCAK256 SLOAD DUP3 GT ISZERO PUSH2 0x11D5 JUMPI PUSH1 0x40 MLOAD PUSH32 0x8C379A000000000000000000000000000000000000000000000000000000000 DUP2 MSTORE PUSH1 0x4 ADD PUSH2 0x11CC SWAP1 PUSH2 0x2FCD JUMP JUMPDEST PUSH1 0x40 MLOAD DUP1 SWAP2 SUB SWAP1 REVERT JUMPDEST DUP2 PUSH1 0x10 PUSH1 0x0 DUP6 DUP2 MSTORE PUSH1 0x20 ADD SWAP1 DUP2 MSTORE PUSH1 0x20 ADD PUSH1 0x0 KECCAK256 PUSH1 0x0 DUP3 DUP3 SLOAD PUSH2 0x11F8 SWAP2 SWAP1 PUSH2 0x27C6 JUMP JUMPDEST SWAP3 POP POP DUP2 SWAP1 SSTORE POP DUP2 PUSH1 0xE PUSH1 0x0 DUP6 DUP2 MSTORE PUSH1 0x20 ADD SWAP1 DUP2 MSTORE PUSH1 0x20 ADD PUSH1 0x0 KECCAK256 PUSH1 0x0 DUP3 DUP3 SLOAD PUSH2 0x1222 SWAP2 SWAP1 PUSH2 0x2BEE JUMP JUMPDEST SWAP3 POP POP DUP2 SWAP1 SSTORE POP PUSH1 0x5 PUSH1 0x0 SWAP1 SLOAD SWAP1 PUSH2 0x100 EXP SWAP1 DIV PUSH20 0xFFFFFFFFFFFFFFFFFFFFFFFFFFFFFFFFFFFFFFFF AND PUSH20 0xFFFFFFFFFFFFFFFFFFFFFFFFFFFFFFFFFFFFFFFF AND PUSH4 0xA9059CBB CALLER DUP5 PUSH1 0x40 MLOAD DUP4 PUSH4 0xFFFFFFFF AND PUSH1 0xE0 SHL DUP2 MSTORE PUSH1 0x4 ADD PUSH2 0x1286 SWAP3 SWAP2 SWAP1 PUSH2 0x2D6F JUMP JUMPDEST PUSH1 0x20 PUSH1 0x40 MLOAD DUP1 DUP4 SUB DUP2 PUSH1 0x0 DUP8 GAS CALL ISZERO DUP1 ISZERO PUSH2 0x12A5 JUMPI RETURNDATASIZE PUSH1 0x0 DUP1 RETURNDATACOPY RETURNDATASIZE PUSH1 0x0 REVERT JUMPDEST POP POP POP POP PUSH1 0x40 MLOAD RETURNDATASIZE PUSH1 0x1F NOT PUSH1 0x1F DUP3 ADD AND DUP3 ADD DUP1 PUSH1 0x40 MSTORE POP DUP2 ADD SWAP1 PUSH2 0x12C9 SWAP2 SWAP1 PUSH2 0x2DC4 JUMP JUMPDEST POP PUSH1 0x1 SWAP1 POP SWAP3 SWAP2 POP POP JUMP JUMPDEST PUSH1 0x0 PUSH1 0x6 PUSH1 0x0 SWAP1 SLOAD SWAP1 PUSH2 0x100 EXP SWAP1 DIV PUSH20 0xFFFFFFFFFFFFFFFFFFFFFFFFFFFFFFFFFFFFFFFF AND PUSH20 0xFFFFFFFFFFFFFFFFFFFFFFFFFFFFFFFFFFFFFFFF AND CALLER PUSH20 0xFFFFFFFFFFFFFFFFFFFFFFFFFFFFFFFFFFFFFFFF AND EQ PUSH2 0x1366 JUMPI PUSH1 0x40 MLOAD PUSH32 0x8C379A000000000000000000000000000000000000000000000000000000000 DUP2 MSTORE PUSH1 0x4 ADD PUSH2 0x135D SWAP1 PUSH2 0x3039 JUMP JUMPDEST PUSH1 0x40 MLOAD DUP1 SWAP2 SUB SWAP1 REVERT JUMPDEST PUSH1 0xC PUSH1 0x0 DUP4 DUP2 MSTORE PUSH1 0x20 ADD SWAP1 DUP2 MSTORE PUSH1 0x20 ADD PUSH1 0x0 KECCAK256 SLOAD PUSH1 0xE PUSH1 0x0 DUP5 DUP2 MSTORE PUSH1 0x20 ADD SWAP1 DUP2 MSTORE PUSH1 0x20 ADD PUSH1 0x0 KECCAK256 PUSH1 0x0 DUP3 DUP3 SLOAD PUSH2 0x139C SWAP2 SWAP1 PUSH2 0x27C6 JUMP JUMPDEST SWAP3 POP POP DUP2 SWAP1 SSTORE POP PUSH1 0x1 SWAP1 POP SWAP2 SWAP1 POP JUMP JUMPDEST PUSH2 0x13B4 PUSH2 0x205D JUMP JUMPDEST PUSH2 0x13BE PUSH1 0x0 PUSH2 0x20DB JUMP JUMPDEST JUMP JUMPDEST PUSH1 0x0 PUSH1 0x3 SLOAD DUP5 LT ISZERO DUP1 ISZERO PUSH2 0x13E1 JUMPI POP PUSH1 0x3 SLOAD PUSH1 0x2 PUSH2 0x13DE SWAP2 SWAP1 PUSH2 0x2D2D JUMP JUMPDEST DUP5 LT JUMPDEST ISZERO PUSH2 0x1410 JUMPI DUP2 DUP4 PUSH1 0x3C DUP8 PUSH2 0x13F5 SWAP2 SWAP1 PUSH2 0x2D2D JUMP JUMPDEST PUSH2 0x13FF SWAP2 SWAP1 PUSH2 0x2D2D JUMP JUMPDEST PUSH2 0x1409 SWAP2 SWAP1 PUSH2 0x2CFC JUMP JUMPDEST SWAP1 POP PUSH2 0x1511 JUMP JUMPDEST PUSH1 0x3 SLOAD PUSH1 0x2 PUSH2 0x141F SWAP2 SWAP1 PUSH2 0x2D2D JUMP JUMPDEST DUP5 LT ISZERO DUP1 ISZERO PUSH2 0x143B JUMPI POP PUSH1 0x3 SLOAD PUSH1 0x3 PUSH2 0x1438 SWAP2 SWAP1 PUSH2 0x2D2D JUMP JUMPDEST DUP5 LT JUMPDEST ISZERO PUSH2 0x146A JUMPI DUP2 DUP4 PUSH1 0x1E DUP8 PUSH2 0x144F SWAP2 SWAP1 PUSH2 0x2D2D JUMP JUMPDEST PUSH2 0x1459 SWAP2 SWAP1 PUSH2 0x2D2D JUMP JUMPDEST PUSH2 0x1463 SWAP2 SWAP1 PUSH2 0x2CFC JUMP JUMPDEST SWAP1 POP PUSH2 0x1510 JUMP JUMPDEST PUSH1 0x3 SLOAD PUSH1 0x3 PUSH2 0x1479 SWAP2 SWAP1 PUSH2 0x2D2D JUMP JUMPDEST DUP5 LT ISZERO DUP1 ISZERO PUSH2 0x1495 JUMPI POP PUSH1 0x3 SLOAD PUSH1 0x4 PUSH2 0x1492 SWAP2 SWAP1 PUSH2 0x2D2D JUMP JUMPDEST DUP5 LT JUMPDEST ISZERO PUSH2 0x14C4 JUMPI DUP2 DUP4 PUSH1 0x14 DUP8 PUSH2 0x14A9 SWAP2 SWAP1 PUSH2 0x2D2D JUMP JUMPDEST PUSH2 0x14B3 SWAP2 SWAP1 PUSH2 0x2D2D JUMP JUMPDEST PUSH2 0x14BD SWAP2 SWAP1 PUSH2 0x2CFC JUMP JUMPDEST SWAP1 POP PUSH2 0x150F JUMP JUMPDEST PUSH1 0x3 SLOAD PUSH1 0x4 PUSH2 0x14D3 SWAP2 SWAP1 PUSH2 0x2D2D JUMP JUMPDEST DUP5 LT ISZERO DUP1 ISZERO PUSH2 0x14E3 JUMPI POP PUSH1 0x4 SLOAD DUP5 LT JUMPDEST ISZERO PUSH2 0x150E JUMPI DUP2 DUP4 PUSH1 0xA DUP8 PUSH2 0x14F7 SWAP2 SWAP1 PUSH2 0x2D2D JUMP JUMPDEST PUSH2 0x1501 SWAP2 SWAP1 PUSH2 0x2D2D JUMP JUMPDEST PUSH2 0x150B SWAP2 SWAP1 PUSH2 0x2CFC JUMP JUMPDEST SWAP1 POP JUMPDEST JUMPDEST JUMPDEST JUMPDEST SWAP5 SWAP4 POP POP POP POP JUMP JUMPDEST PUSH1 0xA PUSH1 0x20 MSTORE DUP1 PUSH1 0x0 MSTORE PUSH1 0x40 PUSH1 0x0 KECCAK256 PUSH1 0x0 SWAP2 POP SWAP1 POP SLOAD DUP2 JUMP JUMPDEST PUSH1 0x0 PUSH1 0xF PUSH1 0x0 DUP4 DUP2 MSTORE PUSH1 0x20 ADD SWAP1 DUP2 MSTORE PUSH1 0x20 ADD PUSH1 0x0 KECCAK256 SLOAD SWAP1 POP SWAP2 SWAP1 POP JUMP JUMPDEST PUSH1 0x0 DUP1 PUSH1 0x0 SWAP1 SLOAD SWAP1 PUSH2 0x100 EXP SWAP1 DIV PUSH20 0xFFFFFFFFFFFFFFFFFFFFFFFFFFFFFFFFFFFFFFFF AND SWAP1 POP SWAP1 JUMP JUMPDEST PUSH1 0x2 SLOAD DUP2 JUMP JUMPDEST PUSH1 0x0 DUP1 PUSH1 0x0 PUSH1 0x41 DUP5 MLOAD EQ PUSH2 0x15C6 JUMPI PUSH1 0x40 MLOAD PUSH32 0x8C379A000000000000000000000000000000000000000000000000000000000 DUP2 MSTORE PUSH1 0x4 ADD PUSH2 0x15BD SWAP1 PUSH2 0x30A5 JUMP JUMPDEST PUSH1 0x40 MLOAD DUP1 SWAP2 SUB SWAP1 REVERT JUMPDEST PUSH1 0x20 DUP5 ADD MLOAD SWAP3 POP PUSH1 0x40 DUP5 ADD MLOAD SWAP2 POP PUSH1 0x60 DUP5 ADD MLOAD PUSH1 0x0 BYTE SWAP1 POP SWAP2 SWAP4 SWAP1 SWAP3 POP JUMP JUMPDEST PUSH1 0x1 SLOAD DUP2 JUMP JUMPDEST PUSH1 0x0 PUSH1 0x7 SLOAD SWAP1 POP SWAP1 JUMP JUMPDEST PUSH1 0x10 PUSH1 0x20 MSTORE DUP1 PUSH1 0x0 MSTORE PUSH1 0x40 PUSH1 0x0 KECCAK256 PUSH1 0x0 SWAP2 POP SWAP1 POP SLOAD DUP2 JUMP JUMPDEST PUSH1 0xC PUSH1 0x20 MSTORE DUP1 PUSH1 0x0 MSTORE PUSH1 0x40 PUSH1 0x0 KECCAK256 PUSH1 0x0 SWAP2 POP SWAP1 POP SLOAD DUP2 JUMP JUMPDEST PUSH1 0xB PUSH1 0x20 MSTORE DUP1 PUSH1 0x0 MSTORE PUSH1 0x40 PUSH1 0x0 KECCAK256 PUSH1 0x0 SWAP2 POP SWAP1 POP SLOAD DUP2 JUMP JUMPDEST PUSH1 0x0 DUP1 CHAINID SWAP1 POP PUSH1 0x0 PUSH32 0x8B73C3C69BB8FE3D512ECC4CF759CC79239F7B179B0FFACAA9A75D522B39400F PUSH1 0x40 MLOAD DUP1 PUSH1 0x40 ADD PUSH1 0x40 MSTORE DUP1 PUSH1 0x10 DUP2 MSTORE PUSH1 0x20 ADD PUSH32 0x766F6C617279546F6B656E6F6D69637300000000000000000000000000000000 DUP2 MSTORE POP DUP1 MLOAD SWAP1 PUSH1 0x20 ADD KECCAK256 PUSH1 0x40 MLOAD DUP1 PUSH1 0x40 ADD PUSH1 0x40 MSTORE DUP1 PUSH1 0x1 DUP2 MSTORE PUSH1 0x20 ADD PUSH32 0x3100000000000000000000000000000000000000000000000000000000000000 DUP2 MSTORE POP DUP1 MLOAD SWAP1 PUSH1 0x20 ADD KECCAK256 DUP5 ADDRESS PUSH1 0x40 MLOAD PUSH1 0x20 ADD PUSH2 0x16F6 SWAP6 SWAP5 SWAP4 SWAP3 SWAP2 SWAP1 PUSH2 0x30C5 JUMP JUMPDEST PUSH1 0x40 MLOAD PUSH1 0x20 DUP2 DUP4 SUB SUB DUP2 MSTORE SWAP1 PUSH1 0x40 MSTORE DUP1 MLOAD SWAP1 PUSH1 0x20 ADD KECCAK256 SWAP1 POP PUSH1 0x0 PUSH32 0x6653E7CD3A1A9AEF96921D5AB438ED1C97F8B2A810F0757EF37AB483D678681C DUP8 DUP8 DUP8 PUSH1 0x40 MLOAD PUSH1 0x20 ADD PUSH2 0x1747 SWAP5 SWAP4 SWAP3 SWAP2 SWAP1 PUSH2 0x3118 JUMP JUMPDEST PUSH1 0x40 MLOAD PUSH1 0x20 DUP2 DUP4 SUB SUB DUP2 MSTORE SWAP1 PUSH1 0x40 MSTORE DUP1 MLOAD SWAP1 PUSH1 0x20 ADD KECCAK256 SWAP1 POP PUSH1 0x0 DUP3 DUP3 PUSH1 0x40 MLOAD PUSH1 0x20 ADD PUSH2 0x1774 SWAP3 SWAP2 SWAP1 PUSH2 0x31D5 JUMP JUMPDEST PUSH1 0x40 MLOAD PUSH1 0x20 DUP2 DUP4 SUB SUB DUP2 MSTORE SWAP1 PUSH1 0x40 MSTORE DUP1 MLOAD SWAP1 PUSH1 0x20 ADD KECCAK256 SWAP1 POP PUSH1 0x0 DUP1 PUSH1 0x0 PUSH2 0x179A DUP13 PUSH2 0x157D JUMP JUMPDEST SWAP3 POP SWAP3 POP SWAP3 POP PUSH1 0x0 PUSH1 0x1 DUP6 DUP4 DUP7 DUP7 PUSH1 0x40 MLOAD PUSH1 0x0 DUP2 MSTORE PUSH1 0x20 ADD PUSH1 0x40 MSTORE PUSH1 0x40 MLOAD PUSH2 0x17C5 SWAP5 SWAP4 SWAP3 SWAP2 SWAP1 PUSH2 0x320C JUMP JUMPDEST PUSH1 0x20 PUSH1 0x40 MLOAD PUSH1 0x20 DUP2 SUB SWAP1 DUP1 DUP5 SUB SWAP1 DUP6 GAS STATICCALL ISZERO DUP1 ISZERO PUSH2 0x17E7 JUMPI RETURNDATASIZE PUSH1 0x0 DUP1 RETURNDATACOPY RETURNDATASIZE PUSH1 0x0 REVERT JUMPDEST POP POP POP PUSH1 0x20 PUSH1 0x40 MLOAD SUB MLOAD SWAP1 POP DUP1 SWAP9 POP POP POP POP POP POP POP POP POP SWAP5 SWAP4 POP POP POP POP JUMP JUMPDEST PUSH1 0x0 PUSH2 0x1810 PUSH2 0x205D JUMP JUMPDEST PUSH1 0x0 PUSH1 0x7 SLOAD EQ ISZERO DUP1 ISZERO PUSH2 0x1826 JUMPI POP PUSH1 0x0 PUSH1 0x2 SLOAD EQ ISZERO JUMPDEST PUSH2 0x1865 JUMPI PUSH1 0x40 MLOAD PUSH32 0x8C379A000000000000000000000000000000000000000000000000000000000 DUP2 MSTORE PUSH1 0x4 ADD PUSH2 0x185C SWAP1 PUSH2 0x2777 JUMP JUMPDEST PUSH1 0x40 MLOAD DUP1 SWAP2 SUB SWAP1 REVERT JUMPDEST PUSH1 0x0 PUSH3 0x15180 PUSH3 0x93A80 PUSH1 0xA PUSH1 0x0 PUSH1 0x7 SLOAD DUP2 MSTORE PUSH1 0x20 ADD SWAP1 DUP2 MSTORE PUSH1 0x20 ADD PUSH1 0x0 KECCAK256 SLOAD PUSH2 0x188F SWAP2 SWAP1 PUSH2 0x27C6 JUMP JUMPDEST PUSH2 0x1899 SWAP2 SWAP1 PUSH2 0x27C6 JUMP JUMPDEST SWAP1 POP DUP1 TIMESTAMP GT DUP1 ISZERO PUSH2 0x18B8 JUMPI POP PUSH3 0x15180 DUP2 PUSH2 0x18B4 SWAP2 SWAP1 PUSH2 0x27C6 JUMP JUMPDEST TIMESTAMP GT ISZERO JUMPDEST PUSH2 0x18F7 JUMPI PUSH1 0x40 MLOAD PUSH32 0x8C379A000000000000000000000000000000000000000000000000000000000 DUP2 MSTORE PUSH1 0x4 ADD PUSH2 0x18EE SWAP1 PUSH2 0x329D JUMP JUMPDEST PUSH1 0x40 MLOAD DUP1 SWAP2 SUB SWAP1 REVERT JUMPDEST PUSH1 0x14 PUSH1 0x0 DUP7 DUP2 MSTORE PUSH1 0x20 ADD SWAP1 DUP2 MSTORE PUSH1 0x20 ADD PUSH1 0x0 KECCAK256 PUSH1 0x0 PUSH1 0x7 SLOAD DUP2 MSTORE PUSH1 0x20 ADD SWAP1 DUP2 MSTORE PUSH1 0x20 ADD PUSH1 0x0 KECCAK256 PUSH1 0x0 SWAP1 SLOAD SWAP1 PUSH2 0x100 EXP SWAP1 DIV PUSH1 0xFF AND ISZERO PUSH2 0x196B JUMPI PUSH1 0x40 MLOAD PUSH32 0x8C379A000000000000000000000000000000000000000000000000000000000 DUP2 MSTORE PUSH1 0x4 ADD PUSH2 0x1962 SWAP1 PUSH2 0x2A54 JUMP JUMPDEST PUSH1 0x40 MLOAD DUP1 SWAP2 SUB SWAP1 REVERT JUMPDEST PUSH1 0x0 PUSH1 0x6 PUSH1 0x0 SWAP1 SLOAD SWAP1 PUSH2 0x100 EXP SWAP1 DIV PUSH20 0xFFFFFFFFFFFFFFFFFFFFFFFFFFFFFFFFFFFFFFFF AND PUSH20 0xFFFFFFFFFFFFFFFFFFFFFFFFFFFFFFFFFFFFFFFF AND PUSH4 0xC293FE1C DUP8 PUSH1 0x40 MLOAD DUP3 PUSH4 0xFFFFFFFF AND PUSH1 0xE0 SHL DUP2 MSTORE PUSH1 0x4 ADD PUSH2 0x19C8 SWAP2 SWAP1 PUSH2 0x2418 JUMP JUMPDEST PUSH1 0x20 PUSH1 0x40 MLOAD DUP1 DUP4 SUB DUP2 DUP7 GAS STATICCALL ISZERO DUP1 ISZERO PUSH2 0x19E5 JUMPI RETURNDATASIZE PUSH1 0x0 DUP1 RETURNDATACOPY RETURNDATASIZE PUSH1 0x0 REVERT JUMPDEST POP POP POP POP PUSH1 0x40 MLOAD RETURNDATASIZE PUSH1 0x1F NOT PUSH1 0x1F DUP3 ADD AND DUP3 ADD DUP1 PUSH1 0x40 MSTORE POP DUP2 ADD SWAP1 PUSH2 0x1A09 SWAP2 SWAP1 PUSH2 0x2A89 JUMP JUMPDEST GT PUSH2 0x1A49 JUMPI PUSH1 0x40 MLOAD PUSH32 0x8C379A000000000000000000000000000000000000000000000000000000000 DUP2 MSTORE PUSH1 0x4 ADD PUSH2 0x1A40 SWAP1 PUSH2 0x2B02 JUMP JUMPDEST PUSH1 0x40 MLOAD DUP1 SWAP2 SUB SWAP1 REVERT JUMPDEST DUP3 DUP5 PUSH2 0x1A55 SWAP2 SWAP1 PUSH2 0x2BEE JUMP JUMPDEST SWAP4 POP PUSH1 0x5 PUSH1 0x0 SWAP1 SLOAD SWAP1 PUSH2 0x100 EXP SWAP1 DIV PUSH20 0xFFFFFFFFFFFFFFFFFFFFFFFFFFFFFFFFFFFFFFFF AND PUSH20 0xFFFFFFFFFFFFFFFFFFFFFFFFFFFFFFFFFFFFFFFF AND PUSH4 0xA9059CBB PUSH2 0x1A9D PUSH2 0x154E JUMP JUMPDEST DUP6 PUSH1 0x40 MLOAD DUP4 PUSH4 0xFFFFFFFF AND PUSH1 0xE0 SHL DUP2 MSTORE PUSH1 0x4 ADD PUSH2 0x1ABB SWAP3 SWAP2 SWAP1 PUSH2 0x2D6F JUMP JUMPDEST PUSH1 0x20 PUSH1 0x40 MLOAD DUP1 DUP4 SUB DUP2 PUSH1 0x0 DUP8 GAS CALL ISZERO DUP1 ISZERO PUSH2 0x1ADA JUMPI RETURNDATASIZE PUSH1 0x0 DUP1 RETURNDATACOPY RETURNDATASIZE PUSH1 0x0 REVERT JUMPDEST POP POP POP POP PUSH1 0x40 MLOAD RETURNDATASIZE PUSH1 0x1F NOT PUSH1 0x1F DUP3 ADD AND DUP3 ADD DUP1 PUSH1 0x40 MSTORE POP DUP2 ADD SWAP1 PUSH2 0x1AFE SWAP2 SWAP1 PUSH2 0x2DC4 JUMP JUMPDEST POP DUP4 PUSH1 0xC PUSH1 0x0 DUP8 DUP2 MSTORE PUSH1 0x20 ADD SWAP1 DUP2 MSTORE PUSH1 0x20 ADD PUSH1 0x0 KECCAK256 SLOAD PUSH2 0x1B1E SWAP2 SWAP1 PUSH2 0x27C6 JUMP JUMPDEST PUSH1 0xC PUSH1 0x0 DUP8 DUP2 MSTORE PUSH1 0x20 ADD SWAP1 DUP2 MSTORE PUSH1 0x20 ADD PUSH1 0x0 KECCAK256 DUP2 SWAP1 SSTORE POP PUSH1 0x1 PUSH1 0x14 PUSH1 0x0 DUP8 DUP2 MSTORE PUSH1 0x20 ADD SWAP1 DUP2 MSTORE PUSH1 0x20 ADD PUSH1 0x0 KECCAK256 PUSH1 0x0 PUSH1 0x7 SLOAD DUP2 MSTORE PUSH1 0x20 ADD SWAP1 DUP2 MSTORE PUSH1 0x20 ADD PUSH1 0x0 KECCAK256 PUSH1 0x0 PUSH2 0x100 EXP DUP2 SLOAD DUP2 PUSH1 0xFF MUL NOT AND SWAP1 DUP4 ISZERO ISZERO MUL OR SWAP1 SSTORE POP PUSH1 0x0 PUSH1 0x2 PUSH1 0x7 SLOAD PUSH2 0x1B85 SWAP2 SWAP1 PUSH2 0x2BBD JUMP JUMPDEST EQ DUP1 ISZERO PUSH2 0x1B95 JUMPI POP PUSH1 0x0 PUSH1 0x7 SLOAD EQ ISZERO JUMPDEST ISZERO PUSH2 0x1BFE JUMPI PUSH1 0x0 PUSH2 0x1BA5 DUP7 PUSH2 0x1E32 JUMP JUMPDEST SWAP1 POP DUP1 PUSH1 0xE PUSH1 0x0 DUP9 DUP2 MSTORE PUSH1 0x20 ADD SWAP1 DUP2 MSTORE PUSH1 0x20 ADD PUSH1 0x0 KECCAK256 DUP2 SWAP1 SSTORE POP PUSH1 0x10 PUSH1 0x0 DUP8 DUP2 MSTORE PUSH1 0x20 ADD SWAP1 DUP2 MSTORE PUSH1 0x20 ADD PUSH1 0x0 KECCAK256 SLOAD PUSH1 0xE PUSH1 0x0 DUP9 DUP2 MSTORE PUSH1 0x20 ADD SWAP1 DUP2 MSTORE PUSH1 0x20 ADD PUSH1 0x0 KECCAK256 PUSH1 0x0 DUP3 DUP3 SLOAD PUSH2 0x1BF5 SWAP2 SWAP1 PUSH2 0x2BEE JUMP JUMPDEST SWAP3 POP POP DUP2 SWAP1 SSTORE POP POP JUMPDEST PUSH1 0x12 PUSH1 0x0 PUSH1 0x7 SLOAD DUP2 MSTORE PUSH1 0x20 ADD SWAP1 DUP2 MSTORE PUSH1 0x20 ADD PUSH1 0x0 KECCAK256 PUSH1 0x0 DUP2 SLOAD DUP1 SWAP3 SWAP2 SWAP1 PUSH2 0x1C24 SWAP1 PUSH2 0x2C22 JUMP JUMPDEST SWAP2 SWAP1 POP SSTORE POP PUSH1 0x1 SWAP2 POP POP SWAP4 SWAP3 POP POP POP JUMP JUMPDEST PUSH2 0x1C3D PUSH2 0x205D JUMP JUMPDEST PUSH1 0x0 PUSH20 0xFFFFFFFFFFFFFFFFFFFFFFFFFFFFFFFFFFFFFFFF AND DUP2 PUSH20 0xFFFFFFFFFFFFFFFFFFFFFFFFFFFFFFFFFFFFFFFF AND SUB PUSH2 0x1CAC JUMPI PUSH1 0x40 MLOAD PUSH32 0x8C379A000000000000000000000000000000000000000000000000000000000 DUP2 MSTORE PUSH1 0x4 ADD PUSH2 0x1CA3 SWAP1 PUSH2 0x332F JUMP JUMPDEST PUSH1 0x40 MLOAD DUP1 SWAP2 SUB SWAP1 REVERT JUMPDEST PUSH2 0x1CB5 DUP2 PUSH2 0x20DB JUMP JUMPDEST POP JUMP JUMPDEST PUSH1 0x0 PUSH2 0x1CC2 PUSH2 0x205D JUMP JUMPDEST PUSH1 0x0 PUSH1 0x7 SLOAD EQ DUP1 ISZERO PUSH2 0x1CD6 JUMPI POP PUSH1 0x0 PUSH1 0x2 SLOAD EQ JUMPDEST PUSH2 0x1D15 JUMPI PUSH1 0x40 MLOAD PUSH32 0x8C379A000000000000000000000000000000000000000000000000000000000 DUP2 MSTORE PUSH1 0x4 ADD PUSH2 0x1D0C SWAP1 PUSH2 0x339B JUMP JUMPDEST PUSH1 0x40 MLOAD DUP1 SWAP2 SUB SWAP1 REVERT JUMPDEST PUSH1 0x1 PUSH1 0x7 DUP2 SWAP1 SSTORE POP PUSH1 0x1 PUSH1 0x2 DUP2 SWAP1 SSTORE POP TIMESTAMP PUSH1 0x1 DUP2 SWAP1 SSTORE POP PUSH1 0x1 SLOAD PUSH1 0xA PUSH1 0x0 PUSH1 0x7 SLOAD DUP2 MSTORE PUSH1 0x20 ADD SWAP1 DUP2 MSTORE PUSH1 0x20 ADD PUSH1 0x0 KECCAK256 DUP2 SWAP1 SSTORE POP PUSH1 0x5 PUSH1 0x0 SWAP1 SLOAD SWAP1 PUSH2 0x100 EXP SWAP1 DIV PUSH20 0xFFFFFFFFFFFFFFFFFFFFFFFFFFFFFFFFFFFFFFFF AND PUSH20 0xFFFFFFFFFFFFFFFFFFFFFFFFFFFFFFFFFFFFFFFF AND PUSH4 0x70A08231 ADDRESS PUSH1 0x40 MLOAD DUP3 PUSH4 0xFFFFFFFF AND PUSH1 0xE0 SHL DUP2 MSTORE PUSH1 0x4 ADD PUSH2 0x1DA3 SWAP2 SWAP1 PUSH2 0x251B JUMP JUMPDEST PUSH1 0x20 PUSH1 0x40 MLOAD DUP1 DUP4 SUB DUP2 DUP7 GAS STATICCALL ISZERO DUP1 ISZERO PUSH2 0x1DC0 JUMPI RETURNDATASIZE PUSH1 0x0 DUP1 RETURNDATACOPY RETURNDATASIZE PUSH1 0x0 REVERT JUMPDEST POP POP POP POP PUSH1 0x40 MLOAD RETURNDATASIZE PUSH1 0x1F NOT PUSH1 0x1F DUP3 ADD AND DUP3 ADD DUP1 PUSH1 0x40 MSTORE POP DUP2 ADD SWAP1 PUSH2 0x1DE4 SWAP2 SWAP1 PUSH2 0x2A89 JUMP JUMPDEST PUSH1 0xB PUSH1 0x0 PUSH1 0x7 SLOAD DUP2 MSTORE PUSH1 0x20 ADD SWAP1 DUP2 MSTORE PUSH1 0x20 ADD PUSH1 0x0 KECCAK256 DUP2 SWAP1 SSTORE POP PUSH1 0x1 PUSH1 0xD PUSH1 0x0 PUSH1 0x2 SLOAD DUP2 MSTORE PUSH1 0x20 ADD SWAP1 DUP2 MSTORE PUSH1 0x20 ADD PUSH1 0x0 KECCAK256 PUSH1 0x0 PUSH2 0x100 EXP DUP2 SLOAD DUP2 PUSH1 0xFF MUL NOT AND SWAP1 DUP4 ISZERO ISZERO MUL OR SWAP1 SSTORE POP PUSH1 0x1 SWAP1 POP SWAP1 JUMP JUMPDEST PUSH1 0x0 DUP1 PUSH1 0xC PUSH1 0x0 DUP5 DUP2 MSTORE PUSH1 0x20 ADD SWAP1 DUP2 MSTORE PUSH1 0x20 ADD PUSH1 0x0 KECCAK256 SLOAD SWAP1 POP PUSH1 0x0 PUSH1 0x6 PUSH1 0x0 SWAP1 SLOAD SWAP1 PUSH2 0x100 EXP SWAP1 DIV PUSH20 0xFFFFFFFFFFFFFFFFFFFFFFFFFFFFFFFFFFFFFFFF AND PUSH20 0xFFFFFFFFFFFFFFFFFFFFFFFFFFFFFFFFFFFFFFFF AND PUSH4 0x5AB01187 DUP6 PUSH1 0x40 MLOAD DUP3 PUSH4 0xFFFFFFFF AND PUSH1 0xE0 SHL DUP2 MSTORE PUSH1 0x4 ADD PUSH2 0x1EA8 SWAP2 SWAP1 PUSH2 0x2418 JUMP JUMPDEST PUSH1 0x20 PUSH1 0x40 MLOAD DUP1 DUP4 SUB DUP2 DUP7 GAS STATICCALL ISZERO DUP1 ISZERO PUSH2 0x1EC5 JUMPI RETURNDATASIZE PUSH1 0x0 DUP1 RETURNDATACOPY RETURNDATASIZE PUSH1 0x0 REVERT JUMPDEST POP POP POP POP PUSH1 0x40 MLOAD RETURNDATASIZE PUSH1 0x1F NOT PUSH1 0x1F DUP3 ADD AND DUP3 ADD DUP1 PUSH1 0x40 MSTORE POP DUP2 ADD SWAP1 PUSH2 0x1EE9 SWAP2 SWAP1 PUSH2 0x2A89 JUMP JUMPDEST TIMESTAMP PUSH2 0x1EF4 SWAP2 SWAP1 PUSH2 0x2BEE JUMP JUMPDEST SWAP1 POP PUSH1 0x3 SLOAD DUP2 LT ISZERO PUSH2 0x1F22 JUMPI PUSH1 0x64 PUSH1 0x32 DUP4 PUSH2 0x1F0F SWAP2 SWAP1 PUSH2 0x2D2D JUMP JUMPDEST PUSH2 0x1F19 SWAP2 SWAP1 PUSH2 0x2CFC JUMP JUMPDEST SWAP3 POP POP POP PUSH2 0x2058 JUMP JUMPDEST PUSH1 0x3 SLOAD DUP2 LT ISZERO DUP1 ISZERO PUSH2 0x1F41 JUMPI POP PUSH1 0x3 SLOAD PUSH1 0x2 PUSH2 0x1F3E SWAP2 SWAP1 PUSH2 0x2D2D JUMP JUMPDEST DUP2 LT JUMPDEST ISZERO PUSH2 0x1F68 JUMPI PUSH1 0x64 PUSH1 0x3C DUP4 PUSH2 0x1F55 SWAP2 SWAP1 PUSH2 0x2D2D JUMP JUMPDEST PUSH2 0x1F5F SWAP2 SWAP1 PUSH2 0x2CFC JUMP JUMPDEST SWAP3 POP POP POP PUSH2 0x2058 JUMP JUMPDEST PUSH1 0x3 SLOAD PUSH1 0x2 PUSH2 0x1F77 SWAP2 SWAP1 PUSH2 0x2D2D JUMP JUMPDEST DUP2 LT ISZERO DUP1 ISZERO PUSH2 0x1F93 JUMPI POP PUSH1 0x3 SLOAD PUSH1 0x3 PUSH2 0x1F90 SWAP2 SWAP1 PUSH2 0x2D2D JUMP JUMPDEST DUP2 LT JUMPDEST ISZERO PUSH2 0x1FBA JUMPI PUSH1 0x64 PUSH1 0x46 DUP4 PUSH2 0x1FA7 SWAP2 SWAP1 PUSH2 0x2D2D JUMP JUMPDEST PUSH2 0x1FB1 SWAP2 SWAP1 PUSH2 0x2CFC JUMP JUMPDEST SWAP3 POP POP POP PUSH2 0x2058 JUMP JUMPDEST PUSH1 0x3 SLOAD PUSH1 0x3 PUSH2 0x1FC9 SWAP2 SWAP1 PUSH2 0x2D2D JUMP JUMPDEST DUP2 LT ISZERO DUP1 ISZERO PUSH2 0x1FE5 JUMPI POP PUSH1 0x3 SLOAD PUSH1 0x4 PUSH2 0x1FE2 SWAP2 SWAP1 PUSH2 0x2D2D JUMP JUMPDEST DUP2 LT JUMPDEST ISZERO PUSH2 0x200C JUMPI PUSH1 0x64 PUSH1 0x50 DUP4 PUSH2 0x1FF9 SWAP2 SWAP1 PUSH2 0x2D2D JUMP JUMPDEST PUSH2 0x2003 SWAP2 SWAP1 PUSH2 0x2CFC JUMP JUMPDEST SWAP3 POP POP POP PUSH2 0x2058 JUMP JUMPDEST PUSH1 0x3 SLOAD PUSH1 0x4 PUSH2 0x201B SWAP2 SWAP1 PUSH2 0x2D2D JUMP JUMPDEST DUP2 LT ISZERO DUP1 ISZERO PUSH2 0x202B JUMPI POP PUSH1 0x4 SLOAD DUP2 LT JUMPDEST ISZERO PUSH2 0x2052 JUMPI PUSH1 0x64 PUSH1 0x5A DUP4 PUSH2 0x203F SWAP2 SWAP1 PUSH2 0x2D2D JUMP JUMPDEST PUSH2 0x2049 SWAP2 SWAP1 PUSH2 0x2CFC JUMP JUMPDEST SWAP3 POP POP POP PUSH2 0x2058 JUMP JUMPDEST DUP2 SWAP3 POP POP POP JUMPDEST SWAP2 SWAP1 POP JUMP JUMPDEST PUSH2 0x2065 PUSH2 0x219F JUMP JUMPDEST PUSH20 0xFFFFFFFFFFFFFFFFFFFFFFFFFFFFFFFFFFFFFFFF AND PUSH2 0x2083 PUSH2 0x154E JUMP JUMPDEST PUSH20 0xFFFFFFFFFFFFFFFFFFFFFFFFFFFFFFFFFFFFFFFF AND EQ PUSH2 0x20D9 JUMPI PUSH1 0x40 MLOAD PUSH32 0x8C379A000000000000000000000000000000000000000000000000000000000 DUP2 MSTORE PUSH1 0x4 ADD PUSH2 0x20D0 SWAP1 PUSH2 0x3407 JUMP JUMPDEST PUSH1 0x40 MLOAD DUP1 SWAP2 SUB SWAP1 REVERT JUMPDEST JUMP JUMPDEST PUSH1 0x0 DUP1 PUSH1 0x0 SWAP1 SLOAD SWAP1 PUSH2 0x100 EXP SWAP1 DIV PUSH20 0xFFFFFFFFFFFFFFFFFFFFFFFFFFFFFFFFFFFFFFFF AND SWAP1 POP DUP2 PUSH1 0x0 DUP1 PUSH2 0x100 EXP DUP2 SLOAD DUP2 PUSH20 0xFFFFFFFFFFFFFFFFFFFFFFFFFFFFFFFFFFFFFFFF MUL NOT AND SWAP1 DUP4 PUSH20 0xFFFFFFFFFFFFFFFFFFFFFFFFFFFFFFFFFFFFFFFF AND MUL OR SWAP1 SSTORE POP DUP2 PUSH20 0xFFFFFFFFFFFFFFFFFFFFFFFFFFFFFFFFFFFFFFFF AND DUP2 PUSH20 0xFFFFFFFFFFFFFFFFFFFFFFFFFFFFFFFFFFFFFFFF AND PUSH32 0x8BE0079C531659141344CD1FD0A4F28419497F9722A3DAAFE3B4186F6B6457E0 PUSH1 0x40 MLOAD PUSH1 0x40 MLOAD DUP1 SWAP2 SUB SWAP1 LOG3 POP POP JUMP JUMPDEST PUSH1 0x0 CALLER SWAP1 POP SWAP1 JUMP JUMPDEST PUSH1 0x0 PUSH1 0x40 MLOAD SWAP1 POP SWAP1 JUMP JUMPDEST PUSH1 0x0 DUP1 REVERT JUMPDEST PUSH1 0x0 DUP1 REVERT JUMPDEST PUSH1 0x0 DUP2 SWAP1 POP SWAP2 SWAP1 POP JUMP JUMPDEST PUSH2 0x21CE DUP2 PUSH2 0x21BB JUMP JUMPDEST DUP2 EQ PUSH2 0x21D9 JUMPI PUSH1 0x0 DUP1 REVERT JUMPDEST POP JUMP JUMPDEST PUSH1 0x0 DUP2 CALLDATALOAD SWAP1 POP PUSH2 0x21EB DUP2 PUSH2 0x21C5 JUMP JUMPDEST SWAP3 SWAP2 POP POP JUMP JUMPDEST PUSH1 0x0 DUP1 REVERT JUMPDEST PUSH1 0x0 DUP1 REVERT JUMPDEST PUSH1 0x0 PUSH1 0x1F NOT PUSH1 0x1F DUP4 ADD AND SWAP1 POP SWAP2 SWAP1 POP JUMP JUMPDEST PUSH32 0x4E487B7100000000000000000000000000000000000000000000000000000000 PUSH1 0x0 MSTORE PUSH1 0x41 PUSH1 0x4 MSTORE PUSH1 0x24 PUSH1 0x0 REVERT JUMPDEST PUSH2 0x2244 DUP3 PUSH2 0x21FB JUMP JUMPDEST DUP2 ADD DUP2 DUP2 LT PUSH8 0xFFFFFFFFFFFFFFFF DUP3 GT OR ISZERO PUSH2 0x2263 JUMPI PUSH2 0x2262 PUSH2 0x220C JUMP JUMPDEST JUMPDEST DUP1 PUSH1 0x40 MSTORE POP POP POP JUMP JUMPDEST PUSH1 0x0 PUSH2 0x2276 PUSH2 0x21A7 JUMP JUMPDEST SWAP1 POP PUSH2 0x2282 DUP3 DUP3 PUSH2 0x223B JUMP JUMPDEST SWAP2 SWAP1 POP JUMP JUMPDEST PUSH1 0x0 PUSH8 0xFFFFFFFFFFFFFFFF DUP3 GT ISZERO PUSH2 0x22A2 JUMPI PUSH2 0x22A1 PUSH2 0x220C JUMP JUMPDEST JUMPDEST PUSH2 0x22AB DUP3 PUSH2 0x21FB JUMP JUMPDEST SWAP1 POP PUSH1 0x20 DUP2 ADD SWAP1 POP SWAP2 SWAP1 POP JUMP JUMPDEST DUP3 DUP2 DUP4 CALLDATACOPY PUSH1 0x0 DUP4 DUP4 ADD MSTORE POP POP POP JUMP JUMPDEST PUSH1 0x0 PUSH2 0x22DA PUSH2 0x22D5 DUP5 PUSH2 0x2287 JUMP JUMPDEST PUSH2 0x226C JUMP JUMPDEST SWAP1 POP DUP3 DUP2 MSTORE PUSH1 0x20 DUP2 ADD DUP5 DUP5 DUP5 ADD GT ISZERO PUSH2 0x22F6 JUMPI PUSH2 0x22F5 PUSH2 0x21F6 JUMP JUMPDEST JUMPDEST PUSH2 0x2301 DUP5 DUP3 DUP6 PUSH2 0x22B8 JUMP JUMPDEST POP SWAP4 SWAP3 POP POP POP JUMP JUMPDEST PUSH1 0x0 DUP3 PUSH1 0x1F DUP4 ADD SLT PUSH2 0x231E JUMPI PUSH2 0x231D PUSH2 0x21F1 JUMP JUMPDEST JUMPDEST DUP2 CALLDATALOAD PUSH2 0x232E DUP5 DUP3 PUSH1 0x20 DUP7 ADD PUSH2 0x22C7 JUMP JUMPDEST SWAP2 POP POP SWAP3 SWAP2 POP POP JUMP JUMPDEST PUSH1 0x0 DUP1 PUSH1 0x0 PUSH1 0x60 DUP5 DUP7 SUB SLT ISZERO PUSH2 0x2350 JUMPI PUSH2 0x234F PUSH2 0x21B1 JUMP JUMPDEST JUMPDEST PUSH1 0x0 PUSH2 0x235E DUP7 DUP3 DUP8 ADD PUSH2 0x21DC JUMP JUMPDEST SWAP4 POP POP PUSH1 0x20 PUSH2 0x236F DUP7 DUP3 DUP8 ADD PUSH2 0x21DC JUMP JUMPDEST SWAP3 POP POP PUSH1 0x40 DUP5 ADD CALLDATALOAD PUSH8 0xFFFFFFFFFFFFFFFF DUP2 GT ISZERO PUSH2 0x2390 JUMPI PUSH2 0x238F PUSH2 0x21B6 JUMP JUMPDEST JUMPDEST PUSH2 0x239C DUP7 DUP3 DUP8 ADD PUSH2 0x2309 JUMP JUMPDEST SWAP2 POP POP SWAP3 POP SWAP3 POP SWAP3 JUMP JUMPDEST PUSH1 0x0 DUP2 ISZERO ISZERO SWAP1 POP SWAP2 SWAP1 POP JUMP JUMPDEST PUSH2 0x23BB DUP2 PUSH2 0x23A6 JUMP JUMPDEST DUP3 MSTORE POP POP JUMP JUMPDEST PUSH1 0x0 PUSH1 0x20 DUP3 ADD SWAP1 POP PUSH2 0x23D6 PUSH1 0x0 DUP4 ADD DUP5 PUSH2 0x23B2 JUMP JUMPDEST SWAP3 SWAP2 POP POP JUMP JUMPDEST PUSH1 0x0 PUSH1 0x20 DUP3 DUP5 SUB SLT ISZERO PUSH2 0x23F2 JUMPI PUSH2 0x23F1 PUSH2 0x21B1 JUMP JUMPDEST JUMPDEST PUSH1 0x0 PUSH2 0x2400 DUP5 DUP3 DUP6 ADD PUSH2 0x21DC JUMP JUMPDEST SWAP2 POP POP SWAP3 SWAP2 POP POP JUMP JUMPDEST PUSH2 0x2412 DUP2 PUSH2 0x21BB JUMP JUMPDEST DUP3 MSTORE POP POP JUMP JUMPDEST PUSH1 0x0 PUSH1 0x20 DUP3 ADD SWAP1 POP PUSH2 0x242D PUSH1 0x0 DUP4 ADD DUP5 PUSH2 0x2409 JUMP JUMPDEST SWAP3 SWAP2 POP POP JUMP JUMPDEST PUSH1 0x0 DUP1 PUSH1 0x0 DUP1 PUSH1 0x80 DUP6 DUP8 SUB SLT ISZERO PUSH2 0x244D JUMPI PUSH2 0x244C PUSH2 0x21B1 JUMP JUMPDEST JUMPDEST PUSH1 0x0 PUSH2 0x245B DUP8 DUP3 DUP9 ADD PUSH2 0x21DC JUMP JUMPDEST SWAP5 POP POP PUSH1 0x20 PUSH2 0x246C DUP8 DUP3 DUP9 ADD PUSH2 0x21DC JUMP JUMPDEST SWAP4 POP POP PUSH1 0x40 PUSH2 0x247D DUP8 DUP3 DUP9 ADD PUSH2 0x21DC JUMP JUMPDEST SWAP3 POP POP PUSH1 0x60 PUSH2 0x248E DUP8 DUP3 DUP9 ADD PUSH2 0x21DC JUMP JUMPDEST SWAP2 POP POP SWAP3 SWAP6 SWAP2 SWAP5 POP SWAP3 POP JUMP JUMPDEST PUSH1 0x0 DUP1 PUSH1 0x40 DUP4 DUP6 SUB SLT ISZERO PUSH2 0x24B1 JUMPI PUSH2 0x24B0 PUSH2 0x21B1 JUMP JUMPDEST JUMPDEST PUSH1 0x0 PUSH2 0x24BF DUP6 DUP3 DUP7 ADD PUSH2 0x21DC JUMP JUMPDEST SWAP3 POP POP PUSH1 0x20 PUSH2 0x24D0 DUP6 DUP3 DUP7 ADD PUSH2 0x21DC JUMP JUMPDEST SWAP2 POP POP SWAP3 POP SWAP3 SWAP1 POP JUMP JUMPDEST PUSH1 0x0 PUSH20 0xFFFFFFFFFFFFFFFFFFFFFFFFFFFFFFFFFFFFFFFF DUP3 AND SWAP1 POP SWAP2 SWAP1 POP JUMP JUMPDEST PUSH1 0x0 PUSH2 0x2505 DUP3 PUSH2 0x24DA JUMP JUMPDEST SWAP1 POP SWAP2 SWAP1 POP JUMP JUMPDEST PUSH2 0x2515 DUP2 PUSH2 0x24FA JUMP JUMPDEST DUP3 MSTORE POP POP JUMP JUMPDEST PUSH1 0x0 PUSH1 0x20 DUP3 ADD SWAP1 POP PUSH2 0x2530 PUSH1 0x0 DUP4 ADD DUP5 PUSH2 0x250C JUMP JUMPDEST SWAP3 SWAP2 POP POP JUMP JUMPDEST PUSH1 0x0 PUSH1 0x20 DUP3 DUP5 SUB SLT ISZERO PUSH2 0x254C JUMPI PUSH2 0x254B PUSH2 0x21B1 JUMP JUMPDEST JUMPDEST PUSH1 0x0 DUP3 ADD CALLDATALOAD PUSH8 0xFFFFFFFFFFFFFFFF DUP2 GT ISZERO PUSH2 0x256A JUMPI PUSH2 0x2569 PUSH2 0x21B6 JUMP JUMPDEST JUMPDEST PUSH2 0x2576 DUP5 DUP3 DUP6 ADD PUSH2 0x2309 JUMP JUMPDEST SWAP2 POP POP SWAP3 SWAP2 POP POP JUMP JUMPDEST PUSH1 0x0 DUP2 SWAP1 POP SWAP2 SWAP1 POP JUMP JUMPDEST PUSH2 0x2592 DUP2 PUSH2 0x257F JUMP JUMPDEST DUP3 MSTORE POP POP JUMP JUMPDEST PUSH1 0x0 PUSH1 0xFF DUP3 AND SWAP1 POP SWAP2 SWAP1 POP JUMP JUMPDEST PUSH2 0x25AE DUP2 PUSH2 0x2598 JUMP JUMPDEST DUP3 MSTORE POP POP JUMP JUMPDEST PUSH1 0x0 PUSH1 0x60 DUP3 ADD SWAP1 POP PUSH2 0x25C9 PUSH1 0x0 DUP4 ADD DUP7 PUSH2 0x2589 JUMP JUMPDEST PUSH2 0x25D6 PUSH1 0x20 DUP4 ADD DUP6 PUSH2 0x2589 JUMP JUMPDEST PUSH2 0x25E3 PUSH1 0x40 DUP4 ADD DUP5 PUSH2 0x25A5 JUMP JUMPDEST SWAP5 SWAP4 POP POP POP POP JUMP JUMPDEST PUSH1 0x0 DUP1 PUSH1 0x0 DUP1 PUSH1 0x80 DUP6 DUP8 SUB SLT ISZERO PUSH2 0x2605 JUMPI PUSH2 0x2604 PUSH2 0x21B1 JUMP JUMPDEST JUMPDEST PUSH1 0x0 DUP6 ADD CALLDATALOAD PUSH8 0xFFFFFFFFFFFFFFFF DUP2 GT ISZERO PUSH2 0x2623 JUMPI PUSH2 0x2622 PUSH2 0x21B6 JUMP JUMPDEST JUMPDEST PUSH2 0x262F DUP8 DUP3 DUP9 ADD PUSH2 0x2309 JUMP JUMPDEST SWAP5 POP POP PUSH1 0x20 PUSH2 0x2640 DUP8 DUP3 DUP9 ADD PUSH2 0x21DC JUMP JUMPDEST SWAP4 POP POP PUSH1 0x40 PUSH2 0x2651 DUP8 DUP3 DUP9 ADD PUSH2 0x21DC JUMP JUMPDEST SWAP3 POP POP PUSH1 0x60 PUSH2 0x2662 DUP8 DUP3 DUP9 ADD PUSH2 0x21DC JUMP JUMPDEST SWAP2 POP POP SWAP3 SWAP6 SWAP2 SWAP5 POP SWAP3 POP JUMP JUMPDEST PUSH1 0x0 DUP1 PUSH1 0x0 PUSH1 0x60 DUP5 DUP7 SUB SLT ISZERO PUSH2 0x2687 JUMPI PUSH2 0x2686 PUSH2 0x21B1 JUMP JUMPDEST JUMPDEST PUSH1 0x0 PUSH2 0x2695 DUP7 DUP3 DUP8 ADD PUSH2 0x21DC JUMP JUMPDEST SWAP4 POP POP PUSH1 0x20 PUSH2 0x26A6 DUP7 DUP3 DUP8 ADD PUSH2 0x21DC JUMP JUMPDEST SWAP3 POP POP PUSH1 0x40 PUSH2 0x26B7 DUP7 DUP3 DUP8 ADD PUSH2 0x21DC JUMP JUMPDEST SWAP2 POP POP SWAP3 POP SWAP3 POP SWAP3 JUMP JUMPDEST PUSH2 0x26CA DUP2 PUSH2 0x24FA JUMP JUMPDEST DUP2 EQ PUSH2 0x26D5 JUMPI PUSH1 0x0 DUP1 REVERT JUMPDEST POP JUMP JUMPDEST PUSH1 0x0 DUP2 CALLDATALOAD SWAP1 POP PUSH2 0x26E7 DUP2 PUSH2 0x26C1 JUMP JUMPDEST SWAP3 SWAP2 POP POP JUMP JUMPDEST PUSH1 0x0 PUSH1 0x20 DUP3 DUP5 SUB SLT ISZERO PUSH2 0x2703 JUMPI PUSH2 0x2702 PUSH2 0x21B1 JUMP JUMPDEST JUMPDEST PUSH1 0x0 PUSH2 0x2711 DUP5 DUP3 DUP6 ADD PUSH2 0x26D8 JUMP JUMPDEST SWAP2 POP POP SWAP3 SWAP2 POP POP JUMP JUMPDEST PUSH1 0x0 DUP3 DUP3 MSTORE PUSH1 0x20 DUP3 ADD SWAP1 POP SWAP3 SWAP2 POP POP JUMP JUMPDEST PUSH32 0x504F4F4C204E4F54205354415254454400000000000000000000000000000000 PUSH1 0x0 DUP3 ADD MSTORE POP JUMP JUMPDEST PUSH1 0x0 PUSH2 0x2761 PUSH1 0x10 DUP4 PUSH2 0x271A JUMP JUMPDEST SWAP2 POP PUSH2 0x276C DUP3 PUSH2 0x272B JUMP JUMPDEST PUSH1 0x20 DUP3 ADD SWAP1 POP SWAP2 SWAP1 POP JUMP JUMPDEST PUSH1 0x0 PUSH1 0x20 DUP3 ADD SWAP1 POP DUP2 DUP2 SUB PUSH1 0x0 DUP4 ADD MSTORE PUSH2 0x2790 DUP2 PUSH2 0x2754 JUMP JUMPDEST SWAP1 POP SWAP2 SWAP1 POP JUMP JUMPDEST PUSH32 0x4E487B7100000000000000000000000000000000000000000000000000000000 PUSH1 0x0 MSTORE PUSH1 0x11 PUSH1 0x4 MSTORE PUSH1 0x24 PUSH1 0x0 REVERT JUMPDEST PUSH1 0x0 PUSH2 0x27D1 DUP3 PUSH2 0x21BB JUMP JUMPDEST SWAP2 POP PUSH2 0x27DC DUP4 PUSH2 0x21BB JUMP JUMPDEST SWAP3 POP DUP3 DUP3 ADD SWAP1 POP DUP1 DUP3 GT ISZERO PUSH2 0x27F4 JUMPI PUSH2 0x27F3 PUSH2 0x2797 JUMP JUMPDEST JUMPDEST SWAP3 SWAP2 POP POP JUMP JUMPDEST PUSH32 0x414343455353205245535452494354454420464F52205553455253204E4F5700 PUSH1 0x0 DUP3 ADD MSTORE POP JUMP JUMPDEST PUSH1 0x0 PUSH2 0x2830 PUSH1 0x1F DUP4 PUSH2 0x271A JUMP JUMPDEST SWAP2 POP PUSH2 0x283B DUP3 PUSH2 0x27FA JUMP JUMPDEST PUSH1 0x20 DUP3 ADD SWAP1 POP SWAP2 SWAP1 POP JUMP JUMPDEST PUSH1 0x0 PUSH1 0x20 DUP3 ADD SWAP1 POP DUP2 DUP2 SUB PUSH1 0x0 DUP4 ADD MSTORE PUSH2 0x285F DUP2 PUSH2 0x2823 JUMP JUMPDEST SWAP1 POP SWAP2 SWAP1 POP JUMP JUMPDEST PUSH1 0x0 DUP2 MLOAD SWAP1 POP SWAP2 SWAP1 POP JUMP JUMPDEST PUSH1 0x0 DUP2 SWAP1 POP SWAP3 SWAP2 POP POP JUMP JUMPDEST PUSH1 0x0 JUMPDEST DUP4 DUP2 LT ISZERO PUSH2 0x289A JUMPI DUP1 DUP3 ADD MLOAD DUP2 DUP5 ADD MSTORE PUSH1 0x20 DUP2 ADD SWAP1 POP PUSH2 0x287F JUMP JUMPDEST PUSH1 0x0 DUP5 DUP5 ADD MSTORE POP POP POP POP JUMP JUMPDEST PUSH1 0x0 PUSH2 0x28B1 DUP3 PUSH2 0x2866 JUMP JUMPDEST PUSH2 0x28BB DUP2 DUP6 PUSH2 0x2871 JUMP JUMPDEST SWAP4 POP PUSH2 0x28CB DUP2 DUP6 PUSH1 0x20 DUP7 ADD PUSH2 0x287C JUMP JUMPDEST DUP1 DUP5 ADD SWAP2 POP POP SWAP3 SWAP2 POP POP JUMP JUMPDEST PUSH1 0x0 PUSH2 0x28E3 DUP3 DUP5 PUSH2 0x28A6 JUMP JUMPDEST SWAP2 POP DUP2 SWAP1 POP SWAP3 SWAP2 POP POP JUMP JUMPDEST PUSH32 0x7369676E61747572652063616E2062652075736564206F6E6C79206F6E636500 PUSH1 0x0 DUP3 ADD MSTORE POP JUMP JUMPDEST PUSH1 0x0 PUSH2 0x2924 PUSH1 0x1F DUP4 PUSH2 0x271A JUMP JUMPDEST SWAP2 POP PUSH2 0x292F DUP3 PUSH2 0x28EE JUMP JUMPDEST PUSH1 0x20 DUP3 ADD SWAP1 POP SWAP2 SWAP1 POP JUMP JUMPDEST PUSH1 0x0 PUSH1 0x20 DUP3 ADD SWAP1 POP DUP2 DUP2 SUB PUSH1 0x0 DUP4 ADD MSTORE PUSH2 0x2953 DUP2 PUSH2 0x2917 JUMP JUMPDEST SWAP1 POP SWAP2 SWAP1 POP JUMP JUMPDEST PUSH1 0x0 DUP2 MLOAD SWAP1 POP PUSH2 0x2969 DUP2 PUSH2 0x26C1 JUMP JUMPDEST SWAP3 SWAP2 POP POP JUMP JUMPDEST PUSH1 0x0 PUSH1 0x20 DUP3 DUP5 SUB SLT ISZERO PUSH2 0x2985 JUMPI PUSH2 0x2984 PUSH2 0x21B1 JUMP JUMPDEST JUMPDEST PUSH1 0x0 PUSH2 0x2993 DUP5 DUP3 DUP6 ADD PUSH2 0x295A JUMP JUMPDEST SWAP2 POP POP SWAP3 SWAP2 POP POP JUMP JUMPDEST PUSH32 0x6E6F74207374616B6520686F6C64657200000000000000000000000000000000 PUSH1 0x0 DUP3 ADD MSTORE POP JUMP JUMPDEST PUSH1 0x0 PUSH2 0x29D2 PUSH1 0x10 DUP4 PUSH2 0x271A JUMP JUMPDEST SWAP2 POP PUSH2 0x29DD DUP3 PUSH2 0x299C JUMP JUMPDEST PUSH1 0x20 DUP3 ADD SWAP1 POP SWAP2 SWAP1 POP JUMP JUMPDEST PUSH1 0x0 PUSH1 0x20 DUP3 ADD SWAP1 POP DUP2 DUP2 SUB PUSH1 0x0 DUP4 ADD MSTORE PUSH2 0x2A01 DUP2 PUSH2 0x29C5 JUMP JUMPDEST SWAP1 POP SWAP2 SWAP1 POP JUMP JUMPDEST PUSH32 0x52455741524420464F5220544849532045504F43482049532053455400000000 PUSH1 0x0 DUP3 ADD MSTORE POP JUMP JUMPDEST PUSH1 0x0 PUSH2 0x2A3E PUSH1 0x1C DUP4 PUSH2 0x271A JUMP JUMPDEST SWAP2 POP PUSH2 0x2A49 DUP3 PUSH2 0x2A08 JUMP JUMPDEST PUSH1 0x20 DUP3 ADD SWAP1 POP SWAP2 SWAP1 POP JUMP JUMPDEST PUSH1 0x0 PUSH1 0x20 DUP3 ADD SWAP1 POP DUP2 DUP2 SUB PUSH1 0x0 DUP4 ADD MSTORE PUSH2 0x2A6D DUP2 PUSH2 0x2A31 JUMP JUMPDEST SWAP1 POP SWAP2 SWAP1 POP JUMP JUMPDEST PUSH1 0x0 DUP2 MLOAD SWAP1 POP PUSH2 0x2A83 DUP2 PUSH2 0x21C5 JUMP JUMPDEST SWAP3 SWAP2 POP POP JUMP JUMPDEST PUSH1 0x0 PUSH1 0x20 DUP3 DUP5 SUB SLT ISZERO PUSH2 0x2A9F JUMPI PUSH2 0x2A9E PUSH2 0x21B1 JUMP JUMPDEST JUMPDEST PUSH1 0x0 PUSH2 0x2AAD DUP5 DUP3 DUP6 ADD PUSH2 0x2A74 JUMP JUMPDEST SWAP2 POP POP SWAP3 SWAP2 POP POP JUMP JUMPDEST PUSH32 0x5354414B4520444F45534E542045584953545300000000000000000000000000 PUSH1 0x0 DUP3 ADD MSTORE POP JUMP JUMPDEST PUSH1 0x0 PUSH2 0x2AEC PUSH1 0x13 DUP4 PUSH2 0x271A JUMP JUMPDEST SWAP2 POP PUSH2 0x2AF7 DUP3 PUSH2 0x2AB6 JUMP JUMPDEST PUSH1 0x20 DUP3 ADD SWAP1 POP SWAP2 SWAP1 POP JUMP JUMPDEST PUSH1 0x0 PUSH1 0x20 DUP3 ADD SWAP1 POP DUP2 DUP2 SUB PUSH1 0x0 DUP4 ADD MSTORE PUSH2 0x2B1B DUP2 PUSH2 0x2ADF JUMP JUMPDEST SWAP1 POP SWAP2 SWAP1 POP JUMP JUMPDEST PUSH32 0x7369676E6174757265206D69736D617463680000000000000000000000000000 PUSH1 0x0 DUP3 ADD MSTORE POP JUMP JUMPDEST PUSH1 0x0 PUSH2 0x2B58 PUSH1 0x12 DUP4 PUSH2 0x271A JUMP JUMPDEST SWAP2 POP PUSH2 0x2B63 DUP3 PUSH2 0x2B22 JUMP JUMPDEST PUSH1 0x20 DUP3 ADD SWAP1 POP SWAP2 SWAP1 POP JUMP JUMPDEST PUSH1 0x0 PUSH1 0x20 DUP3 ADD SWAP1 POP DUP2 DUP2 SUB PUSH1 0x0 DUP4 ADD MSTORE PUSH2 0x2B87 DUP2 PUSH2 0x2B4B JUMP JUMPDEST SWAP1 POP SWAP2 SWAP1 POP JUMP JUMPDEST PUSH32 0x4E487B7100000000000000000000000000000000000000000000000000000000 PUSH1 0x0 MSTORE PUSH1 0x12 PUSH1 0x4 MSTORE PUSH1 0x24 PUSH1 0x0 REVERT JUMPDEST PUSH1 0x0 PUSH2 0x2BC8 DUP3 PUSH2 0x21BB JUMP JUMPDEST SWAP2 POP PUSH2 0x2BD3 DUP4 PUSH2 0x21BB JUMP JUMPDEST SWAP3 POP DUP3 PUSH2 0x2BE3 JUMPI PUSH2 0x2BE2 PUSH2 0x2B8E JUMP JUMPDEST JUMPDEST DUP3 DUP3 MOD SWAP1 POP SWAP3 SWAP2 POP POP JUMP JUMPDEST PUSH1 0x0 PUSH2 0x2BF9 DUP3 PUSH2 0x21BB JUMP JUMPDEST SWAP2 POP PUSH2 0x2C04 DUP4 PUSH2 0x21BB JUMP JUMPDEST SWAP3 POP DUP3 DUP3 SUB SWAP1 POP DUP2 DUP2 GT ISZERO PUSH2 0x2C1C JUMPI PUSH2 0x2C1B PUSH2 0x2797 JUMP JUMPDEST JUMPDEST SWAP3 SWAP2 POP POP JUMP JUMPDEST PUSH1 0x0 PUSH2 0x2C2D DUP3 PUSH2 0x21BB JUMP JUMPDEST SWAP2 POP PUSH32 0xFFFFFFFFFFFFFFFFFFFFFFFFFFFFFFFFFFFFFFFFFFFFFFFFFFFFFFFFFFFFFFFF DUP3 SUB PUSH2 0x2C5F JUMPI PUSH2 0x2C5E PUSH2 0x2797 JUMP JUMPDEST JUMPDEST PUSH1 0x1 DUP3 ADD SWAP1 POP SWAP2 SWAP1 POP JUMP JUMPDEST PUSH32 0x4F6E6C7920737461636B696E6720636F6E74726163742063616E20696D706F73 PUSH1 0x0 DUP3 ADD MSTORE PUSH32 0x652070656E616C74790000000000000000000000000000000000000000000000 PUSH1 0x20 DUP3 ADD MSTORE POP JUMP JUMPDEST PUSH1 0x0 PUSH2 0x2CC6 PUSH1 0x29 DUP4 PUSH2 0x271A JUMP JUMPDEST SWAP2 POP PUSH2 0x2CD1 DUP3 PUSH2 0x2C6A JUMP JUMPDEST PUSH1 0x40 DUP3 ADD SWAP1 POP SWAP2 SWAP1 POP JUMP JUMPDEST PUSH1 0x0 PUSH1 0x20 DUP3 ADD SWAP1 POP DUP2 DUP2 SUB PUSH1 0x0 DUP4 ADD MSTORE PUSH2 0x2CF5 DUP2 PUSH2 0x2CB9 JUMP JUMPDEST SWAP1 POP SWAP2 SWAP1 POP JUMP JUMPDEST PUSH1 0x0 PUSH2 0x2D07 DUP3 PUSH2 0x21BB JUMP JUMPDEST SWAP2 POP PUSH2 0x2D12 DUP4 PUSH2 0x21BB JUMP JUMPDEST SWAP3 POP DUP3 PUSH2 0x2D22 JUMPI PUSH2 0x2D21 PUSH2 0x2B8E JUMP JUMPDEST JUMPDEST DUP3 DUP3 DIV SWAP1 POP SWAP3 SWAP2 POP POP JUMP JUMPDEST PUSH1 0x0 PUSH2 0x2D38 DUP3 PUSH2 0x21BB JUMP JUMPDEST SWAP2 POP PUSH2 0x2D43 DUP4 PUSH2 0x21BB JUMP JUMPDEST SWAP3 POP DUP3 DUP3 MUL PUSH2 0x2D51 DUP2 PUSH2 0x21BB JUMP JUMPDEST SWAP2 POP DUP3 DUP3 DIV DUP5 EQ DUP4 ISZERO OR PUSH2 0x2D68 JUMPI PUSH2 0x2D67 PUSH2 0x2797 JUMP JUMPDEST JUMPDEST POP SWAP3 SWAP2 POP POP JUMP JUMPDEST PUSH1 0x0 PUSH1 0x40 DUP3 ADD SWAP1 POP PUSH2 0x2D84 PUSH1 0x0 DUP4 ADD DUP6 PUSH2 0x250C JUMP JUMPDEST PUSH2 0x2D91 PUSH1 0x20 DUP4 ADD DUP5 PUSH2 0x2409 JUMP JUMPDEST SWAP4 SWAP3 POP POP POP JUMP JUMPDEST PUSH2 0x2DA1 DUP2 PUSH2 0x23A6 JUMP JUMPDEST DUP2 EQ PUSH2 0x2DAC JUMPI PUSH1 0x0 DUP1 REVERT JUMPDEST POP JUMP JUMPDEST PUSH1 0x0 DUP2 MLOAD SWAP1 POP PUSH2 0x2DBE DUP2 PUSH2 0x2D98 JUMP JUMPDEST SWAP3 SWAP2 POP POP JUMP JUMPDEST PUSH1 0x0 PUSH1 0x20 DUP3 DUP5 SUB SLT ISZERO PUSH2 0x2DDA JUMPI PUSH2 0x2DD9 PUSH2 0x21B1 JUMP JUMPDEST JUMPDEST PUSH1 0x0 PUSH2 0x2DE8 DUP5 DUP3 DUP6 ADD PUSH2 0x2DAF JUMP JUMPDEST SWAP2 POP POP SWAP3 SWAP2 POP POP JUMP JUMPDEST PUSH32 0x2065706F6368206E6F7420636F6D706C65746564000000000000000000000000 PUSH1 0x0 DUP3 ADD MSTORE POP JUMP JUMPDEST PUSH1 0x0 PUSH2 0x2E27 PUSH1 0x14 DUP4 PUSH2 0x271A JUMP JUMPDEST SWAP2 POP PUSH2 0x2E32 DUP3 PUSH2 0x2DF1 JUMP JUMPDEST PUSH1 0x20 DUP3 ADD SWAP1 POP SWAP2 SWAP1 POP JUMP JUMPDEST PUSH1 0x0 PUSH1 0x20 DUP3 ADD SWAP1 POP DUP2 DUP2 SUB PUSH1 0x0 DUP4 ADD MSTORE PUSH2 0x2E56 DUP2 PUSH2 0x2E1A JUMP JUMPDEST SWAP1 POP SWAP2 SWAP1 POP JUMP JUMPDEST PUSH32 0x414C4C205354414B45205245574152445320415245204E4F542043414C43554C PUSH1 0x0 DUP3 ADD MSTORE PUSH32 0x4154454400000000000000000000000000000000000000000000000000000000 PUSH1 0x20 DUP3 ADD MSTORE POP JUMP JUMPDEST PUSH1 0x0 PUSH2 0x2EB9 PUSH1 0x24 DUP4 PUSH2 0x271A JUMP JUMPDEST SWAP2 POP PUSH2 0x2EC4 DUP3 PUSH2 0x2E5D JUMP JUMPDEST PUSH1 0x40 DUP3 ADD SWAP1 POP SWAP2 SWAP1 POP JUMP JUMPDEST PUSH1 0x0 PUSH1 0x20 DUP3 ADD SWAP1 POP DUP2 DUP2 SUB PUSH1 0x0 DUP4 ADD MSTORE PUSH2 0x2EE8 DUP2 PUSH2 0x2EAC JUMP JUMPDEST SWAP1 POP SWAP2 SWAP1 POP JUMP JUMPDEST PUSH32 0x4F4E4C5920484F4C44455220434C41494D205245574152445300000000000000 PUSH1 0x0 DUP3 ADD MSTORE POP JUMP JUMPDEST PUSH1 0x0 PUSH2 0x2F25 PUSH1 0x19 DUP4 PUSH2 0x271A JUMP JUMPDEST SWAP2 POP PUSH2 0x2F30 DUP3 PUSH2 0x2EEF JUMP JUMPDEST PUSH1 0x20 DUP3 ADD SWAP1 POP SWAP2 SWAP1 POP JUMP JUMPDEST PUSH1 0x0 PUSH1 0x20 DUP3 ADD SWAP1 POP DUP2 DUP2 SUB PUSH1 0x0 DUP4 ADD MSTORE PUSH2 0x2F54 DUP2 PUSH2 0x2F18 JUMP JUMPDEST SWAP1 POP SWAP2 SWAP1 POP JUMP JUMPDEST PUSH32 0x63616E74207769746864726177206D6F7265207468616E20636C61696D626C65 PUSH1 0x0 DUP3 ADD MSTORE PUSH32 0x2072657761726473000000000000000000000000000000000000000000000000 PUSH1 0x20 DUP3 ADD MSTORE POP JUMP JUMPDEST PUSH1 0x0 PUSH2 0x2FB7 PUSH1 0x28 DUP4 PUSH2 0x271A JUMP JUMPDEST SWAP2 POP PUSH2 0x2FC2 DUP3 PUSH2 0x2F5B JUMP JUMPDEST PUSH1 0x40 DUP3 ADD SWAP1 POP SWAP2 SWAP1 POP JUMP JUMPDEST PUSH1 0x0 PUSH1 0x20 DUP3 ADD SWAP1 POP DUP2 DUP2 SUB PUSH1 0x0 DUP4 ADD MSTORE PUSH2 0x2FE6 DUP2 PUSH2 0x2FAA JUMP JUMPDEST SWAP1 POP SWAP2 SWAP1 POP JUMP JUMPDEST PUSH32 0x6E6F7420737461636B696E6720636F6E74726163740000000000000000000000 PUSH1 0x0 DUP3 ADD MSTORE POP JUMP JUMPDEST PUSH1 0x0 PUSH2 0x3023 PUSH1 0x15 DUP4 PUSH2 0x271A JUMP JUMPDEST SWAP2 POP PUSH2 0x302E DUP3 PUSH2 0x2FED JUMP JUMPDEST PUSH1 0x20 DUP3 ADD SWAP1 POP SWAP2 SWAP1 POP JUMP JUMPDEST PUSH1 0x0 PUSH1 0x20 DUP3 ADD SWAP1 POP DUP2 DUP2 SUB PUSH1 0x0 DUP4 ADD MSTORE PUSH2 0x3052 DUP2 PUSH2 0x3016 JUMP JUMPDEST SWAP1 POP SWAP2 SWAP1 POP JUMP JUMPDEST PUSH32 0x696E76616C6964207369676E6174757265206C656E6774680000000000000000 PUSH1 0x0 DUP3 ADD MSTORE POP JUMP JUMPDEST PUSH1 0x0 PUSH2 0x308F PUSH1 0x18 DUP4 PUSH2 0x271A JUMP JUMPDEST SWAP2 POP PUSH2 0x309A DUP3 PUSH2 0x3059 JUMP JUMPDEST PUSH1 0x20 DUP3 ADD SWAP1 POP SWAP2 SWAP1 POP JUMP JUMPDEST PUSH1 0x0 PUSH1 0x20 DUP3 ADD SWAP1 POP DUP2 DUP2 SUB PUSH1 0x0 DUP4 ADD MSTORE PUSH2 0x30BE DUP2 PUSH2 0x3082 JUMP JUMPDEST SWAP1 POP SWAP2 SWAP1 POP JUMP JUMPDEST PUSH1 0x0 PUSH1 0xA0 DUP3 ADD SWAP1 POP PUSH2 0x30DA PUSH1 0x0 DUP4 ADD DUP9 PUSH2 0x2589 JUMP JUMPDEST PUSH2 0x30E7 PUSH1 0x20 DUP4 ADD DUP8 PUSH2 0x2589 JUMP JUMPDEST PUSH2 0x30F4 PUSH1 0x40 DUP4 ADD DUP7 PUSH2 0x2589 JUMP JUMPDEST PUSH2 0x3101 PUSH1 0x60 DUP4 ADD DUP6 PUSH2 0x2409 JUMP JUMPDEST PUSH2 0x310E PUSH1 0x80 DUP4 ADD DUP5 PUSH2 0x250C JUMP JUMPDEST SWAP7 SWAP6 POP POP POP POP POP POP JUMP JUMPDEST PUSH1 0x0 PUSH1 0x80 DUP3 ADD SWAP1 POP PUSH2 0x312D PUSH1 0x0 DUP4 ADD DUP8 PUSH2 0x2589 JUMP JUMPDEST PUSH2 0x313A PUSH1 0x20 DUP4 ADD DUP7 PUSH2 0x2409 JUMP JUMPDEST PUSH2 0x3147 PUSH1 0x40 DUP4 ADD DUP6 PUSH2 0x2409 JUMP JUMPDEST PUSH2 0x3154 PUSH1 0x60 DUP4 ADD DUP5 PUSH2 0x2409 JUMP JUMPDEST SWAP6 SWAP5 POP POP POP POP POP JUMP JUMPDEST PUSH1 0x0 DUP2 SWAP1 POP SWAP3 SWAP2 POP POP JUMP JUMPDEST PUSH32 0x1901000000000000000000000000000000000000000000000000000000000000 PUSH1 0x0 DUP3 ADD MSTORE POP JUMP JUMPDEST PUSH1 0x0 PUSH2 0x319E PUSH1 0x2 DUP4 PUSH2 0x315D JUMP JUMPDEST SWAP2 POP PUSH2 0x31A9 DUP3 PUSH2 0x3168 JUMP JUMPDEST PUSH1 0x2 DUP3 ADD SWAP1 POP SWAP2 SWAP1 POP JUMP JUMPDEST PUSH1 0x0 DUP2 SWAP1 POP SWAP2 SWAP1 POP JUMP JUMPDEST PUSH2 0x31CF PUSH2 0x31CA DUP3 PUSH2 0x257F JUMP JUMPDEST PUSH2 0x31B4 JUMP JUMPDEST DUP3 MSTORE POP POP JUMP JUMPDEST PUSH1 0x0 PUSH2 0x31E0 DUP3 PUSH2 0x3191 JUMP JUMPDEST SWAP2 POP PUSH2 0x31EC DUP3 DUP6 PUSH2 0x31BE JUMP JUMPDEST PUSH1 0x20 DUP3 ADD SWAP2 POP PUSH2 0x31FC DUP3 DUP5 PUSH2 0x31BE JUMP JUMPDEST PUSH1 0x20 DUP3 ADD SWAP2 POP DUP2 SWAP1 POP SWAP4 SWAP3 POP POP POP JUMP JUMPDEST PUSH1 0x0 PUSH1 0x80 DUP3 ADD SWAP1 POP PUSH2 0x3221 PUSH1 0x0 DUP4 ADD DUP8 PUSH2 0x2589 JUMP JUMPDEST PUSH2 0x322E PUSH1 0x20 DUP4 ADD DUP7 PUSH2 0x25A5 JUMP JUMPDEST PUSH2 0x323B PUSH1 0x40 DUP4 ADD DUP6 PUSH2 0x2589 JUMP JUMPDEST PUSH2 0x3248 PUSH1 0x60 DUP4 ADD DUP5 PUSH2 0x2589 JUMP JUMPDEST SWAP6 SWAP5 POP POP POP POP POP JUMP JUMPDEST PUSH32 0x414343455353205245535452494354454420464F522041444D494E204E4F5700 PUSH1 0x0 DUP3 ADD MSTORE POP JUMP JUMPDEST PUSH1 0x0 PUSH2 0x3287 PUSH1 0x1F DUP4 PUSH2 0x271A JUMP JUMPDEST SWAP2 POP PUSH2 0x3292 DUP3 PUSH2 0x3251 JUMP JUMPDEST PUSH1 0x20 DUP3 ADD SWAP1 POP SWAP2 SWAP1 POP JUMP JUMPDEST PUSH1 0x0 PUSH1 0x20 DUP3 ADD SWAP1 POP DUP2 DUP2 SUB PUSH1 0x0 DUP4 ADD MSTORE PUSH2 0x32B6 DUP2 PUSH2 0x327A JUMP JUMPDEST SWAP1 POP SWAP2 SWAP1 POP JUMP JUMPDEST PUSH32 0x4F776E61626C653A206E6577206F776E657220697320746865207A65726F2061 PUSH1 0x0 DUP3 ADD MSTORE PUSH32 0x6464726573730000000000000000000000000000000000000000000000000000 PUSH1 0x20 DUP3 ADD MSTORE POP JUMP JUMPDEST PUSH1 0x0 PUSH2 0x3319 PUSH1 0x26 DUP4 PUSH2 0x271A JUMP JUMPDEST SWAP2 POP PUSH2 0x3324 DUP3 PUSH2 0x32BD JUMP JUMPDEST PUSH1 0x40 DUP3 ADD SWAP1 POP SWAP2 SWAP1 POP JUMP JUMPDEST PUSH1 0x0 PUSH1 0x20 DUP3 ADD SWAP1 POP DUP2 DUP2 SUB PUSH1 0x0 DUP4 ADD MSTORE PUSH2 0x3348 DUP2 PUSH2 0x330C JUMP JUMPDEST SWAP1 POP SWAP2 SWAP1 POP JUMP JUMPDEST PUSH32 0x504F4F4C20414C52454144592053544152544544000000000000000000000000 PUSH1 0x0 DUP3 ADD MSTORE POP JUMP JUMPDEST PUSH1 0x0 PUSH2 0x3385 PUSH1 0x14 DUP4 PUSH2 0x271A JUMP JUMPDEST SWAP2 POP PUSH2 0x3390 DUP3 PUSH2 0x334F JUMP JUMPDEST PUSH1 0x20 DUP3 ADD SWAP1 POP SWAP2 SWAP1 POP JUMP JUMPDEST PUSH1 0x0 PUSH1 0x20 DUP3 ADD SWAP1 POP DUP2 DUP2 SUB PUSH1 0x0 DUP4 ADD MSTORE PUSH2 0x33B4 DUP2 PUSH2 0x3378 JUMP JUMPDEST SWAP1 POP SWAP2 SWAP1 POP JUMP JUMPDEST PUSH32 0x4F776E61626C653A2063616C6C6572206973206E6F7420746865206F776E6572 PUSH1 0x0 DUP3 ADD MSTORE POP JUMP JUMPDEST PUSH1 0x0 PUSH2 0x33F1 PUSH1 0x20 DUP4 PUSH2 0x271A JUMP JUMPDEST SWAP2 POP PUSH2 0x33FC DUP3 PUSH2 0x33BB JUMP JUMPDEST PUSH1 0x20 DUP3 ADD SWAP1 POP SWAP2 SWAP1 POP JUMP JUMPDEST PUSH1 0x0 PUSH1 0x20 DUP3 ADD SWAP1 POP DUP2 DUP2 SUB PUSH1 0x0 DUP4 ADD MSTORE PUSH2 0x3420 DUP2 PUSH2 0x33E4 JUMP JUMPDEST SWAP1 POP SWAP2 SWAP1 POP JUMP INVALID LOG2 PUSH5 0x6970667358 0x22 SLT KECCAK256 0x49 SWAP2 0xAC MULMOD CALLDATASIZE CALLDATACOPY OR 0x1F 0xFB GAS 0xD3 0xE3 EQ DIV 0x27 ADD 0x1E 0xEA 0xC8 0xE CODESIZE 0xC8 0xD4 ORIGIN DUP11 BLOCKHASH PUSH22 0x5891B6ABA264736F6C63430008110033000000000000 "},"methodIdentifiers":{"ACCUMALATED_REWARDS(uint256)":"de6fbc2d","CLAIMABLE_REWARDS(uint256)":"22987d6b","CLAIMED_REWARDS(uint256)":"db020315","CURRENT_EPOCH()":"29624207","DISTRIBUTION_CYCLE()":"8f38450a","EPOCH_START_BALANCE(uint256)":"e2708766","EPOCH_TO_START_TIME(uint256)":"8513a671","POOL_START_TIME()":"b3cbdf91","claimRewards(uint256,uint256)":"594dd432","finishEpoch()":"48e72aa9","getChainId()":"3408e470","getCurrentEpoch()":"b97dd9e2","getDuration(uint256)":"8bb126a7","getRewardPenalty(uint256,uint256,uint256,uint256)":"72217c62","imposeRewardPenalty(uint256,uint256,uint256,uint256)":"2b299cbe","owner()":"8da5cb5b","renounceOwnership()":"715018a6","rewardOfStake(uint256,uint256,bytes)":"1d415152","rewardOfStakeByAdmin(uint256,uint256,uint256)":"ef7ea095","splitSignature(bytes)":"a7bb5803","startPool()":"fa08c908","totalStakeRemoved(uint256)":"697af863","transferOwnership(address)":"f2fde38b","verifySign(bytes,uint256,uint256,uint256)":"ef03b512"}}}}}