{
  "_format": "hh-sol-artifact-1",
  "contractName": "FeeRouter",
  "sourceName": "contracts/uniswapFeeRouter.sol",
  "abi": [
    {
      "inputs": [
        {
          "internalType": "address",
          "name": "_WETH",
          "type": "address"
        }
      ],
      "stateMutability": "nonpayable",
      "type": "constructor"
    },
    {
      "anonymous": false,
      "inputs": [
        {
          "indexed": true,
          "internalType": "address",
          "name": "previousOwner",
          "type": "address"
        },
        {
          "indexed": true,
          "internalType": "address",
          "name": "newOwner",
          "type": "address"
        }
      ],
      "name": "OwnershipTransferred",
      "type": "event"
    },
    {
      "inputs": [],
      "name": "WETH",
      "outputs": [
        {
          "internalType": "address",
          "name": "",
          "type": "address"
        }
      ],
      "stateMutability": "view",
      "type": "function"
    },
    {
      "inputs": [],
      "name": "feeDenom",
      "outputs": [
        {
          "internalType": "uint256",
          "name": "",
          "type": "uint256"
        }
      ],
      "stateMutability": "view",
      "type": "function"
    },
    {
      "inputs": [],
      "name": "owner",
      "outputs": [
        {
          "internalType": "address",
          "name": "",
          "type": "address"
        }
      ],
      "stateMutability": "view",
      "type": "function"
    },
    {
      "inputs": [],
      "name": "renounceOwnership",
      "outputs": [],
      "stateMutability": "nonpayable",
      "type": "function"
    },
    {
      "inputs": [
        {
          "internalType": "uint256",
          "name": "amountIn",
          "type": "uint256"
        },
        {
          "internalType": "uint256",
          "name": "amountOutMin",
          "type": "uint256"
        },
        {
          "internalType": "address[]",
          "name": "path",
          "type": "address[]"
        },
        {
          "internalType": "address",
          "name": "to",
          "type": "address"
        },
        {
          "internalType": "uint256",
          "name": "deadline",
          "type": "uint256"
        },
        {
          "internalType": "address",
          "name": "factory",
          "type": "address"
        },
        {
          "internalType": "bytes32",
          "name": "hash",
          "type": "bytes32"
        }
      ],
      "name": "swapExactETHForTokens",
      "outputs": [
        {
          "internalType": "uint256[]",
          "name": "amounts",
          "type": "uint256[]"
        }
      ],
      "stateMutability": "payable",
      "type": "function"
    },
    {
      "inputs": [
        {
          "internalType": "uint256",
          "name": "amountIn",
          "type": "uint256"
        },
        {
          "internalType": "uint256",
          "name": "amountOutMin",
          "type": "uint256"
        },
        {
          "internalType": "address[]",
          "name": "path",
          "type": "address[]"
        },
        {
          "internalType": "address",
          "name": "to",
          "type": "address"
        },
        {
          "internalType": "uint256",
          "name": "deadline",
          "type": "uint256"
        },
        {
          "internalType": "address",
          "name": "factory",
          "type": "address"
        },
        {
          "internalType": "bytes32",
          "name": "hash",
          "type": "bytes32"
        }
      ],
      "name": "swapExactETHForTokensSupportingFeeOnTransferTokens",
      "outputs": [],
      "stateMutability": "payable",
      "type": "function"
    },
    {
      "inputs": [
        {
          "internalType": "address",
          "name": "newOwner",
          "type": "address"
        }
      ],
      "name": "transferOwnership",
      "outputs": [],
      "stateMutability": "nonpayable",
      "type": "function"
    },
    {
      "stateMutability": "payable",
      "type": "receive"
    }
  ],
  "bytecode": "0x60a06040523480156200001157600080fd5b5060405162002ad038038062002ad08339818101604052810190620000379190620001c8565b620000576200004b6200009260201b60201c565b6200009a60201b60201c565b8073ffffffffffffffffffffffffffffffffffffffff1660808173ffffffffffffffffffffffffffffffffffffffff168152505050620001fa565b600033905090565b60008060009054906101000a900473ffffffffffffffffffffffffffffffffffffffff169050816000806101000a81548173ffffffffffffffffffffffffffffffffffffffff021916908373ffffffffffffffffffffffffffffffffffffffff1602179055508173ffffffffffffffffffffffffffffffffffffffff168173ffffffffffffffffffffffffffffffffffffffff167f8be0079c531659141344cd1fd0a4f28419497f9722a3daafe3b4186f6b6457e060405160405180910390a35050565b600080fd5b600073ffffffffffffffffffffffffffffffffffffffff82169050919050565b6000620001908262000163565b9050919050565b620001a28162000183565b8114620001ae57600080fd5b50565b600081519050620001c28162000197565b92915050565b600060208284031215620001e157620001e06200015e565b5b6000620001f184828501620001b1565b91505092915050565b60805161288a6200024660003960008181607b01528181610237015281816103b30152818161044f015281816106c001528181610783015281816108040152610b1b015261288a6000f3fe6080604052600436106100745760003560e01c80638da5cb5b1161004e5780638da5cb5b1461014e578063950fae9214610179578063ad5c464814610195578063f2fde38b146101c0576100d7565b806319a86577146100dc57806341b2e56e14610107578063715018a614610137576100d7565b366100d7577f000000000000000000000000000000000000000000000000000000000000000073ffffffffffffffffffffffffffffffffffffffff163373ffffffffffffffffffffffffffffffffffffffff16146100d5576100d46118ea565b5b005b600080fd5b3480156100e857600080fd5b506100f16101e9565b6040516100fe9190611932565b60405180910390f35b610121600480360381019061011c9190611a7c565b6101ef565b60405161012e9190611bfc565b60405180910390f35b34801561014357600080fd5b5061014c6105c9565b005b34801561015a57600080fd5b50610163610651565b6040516101709190611c2d565b60405180910390f35b610193600480360381019061018e9190611a7c565b61067a565b005b3480156101a157600080fd5b506101aa610b19565b6040516101b79190611c2d565b60405180910390f35b3480156101cc57600080fd5b506101e760048036038101906101e29190611c48565b610b3d565b005b61271081565b60608342811015610235576040517f08c379a000000000000000000000000000000000000000000000000000000000815260040161022c90611cd2565b60405180910390fd5b7f000000000000000000000000000000000000000000000000000000000000000073ffffffffffffffffffffffffffffffffffffffff16888860008181106102805761027f611cf2565b5b90506020020160208101906102959190611c48565b73ffffffffffffffffffffffffffffffffffffffff16146102eb576040517f08c379a00000000000000000000000000000000000000000000000000000000081526004016102e290611d6d565b60405180910390fd5b348a11156102f857600080fd5b610345848b8a8a80806020026020016040519081016040528093929190818152602001838360200280828437600081840152601f19601f8201169050808301925050505050505086610c34565b91508882600184516103579190611dbc565b8151811061036857610367611cf2565b5b602002602001015110156103b1576040517f08c379a00000000000000000000000000000000000000000000000000000000081526004016103a890611e62565b60405180910390fd5b7f000000000000000000000000000000000000000000000000000000000000000073ffffffffffffffffffffffffffffffffffffffff1663d0e30db08360008151811061040157610400611cf2565b5b60200260200101516040518263ffffffff1660e01b81526004016000604051808303818588803b15801561043457600080fd5b505af1158015610448573d6000803e3d6000fd5b50505050507f000000000000000000000000000000000000000000000000000000000000000073ffffffffffffffffffffffffffffffffffffffff1663a9059cbb6104e5868b8b60008181106104a1576104a0611cf2565b5b90506020020160208101906104b69190611c48565b8c8c60018181106104ca576104c9611cf2565b5b90506020020160208101906104df9190611c48565b88610dc1565b846000815181106104f9576104f8611cf2565b5b60200260200101516040518363ffffffff1660e01b815260040161051e929190611e82565b6020604051808303816000875af115801561053d573d6000803e3d6000fd5b505050506040513d601f19601f820116820180604052508101906105619190611ee3565b61056e5761056d6118ea565b5b6105bc84838a8a80806020026020016040519081016040528093929190818152602001838360200280828437600081840152601f19601f820116905080830192505050505050508987610e36565b5098975050505050505050565b6105d1611053565b73ffffffffffffffffffffffffffffffffffffffff166105ef610651565b73ffffffffffffffffffffffffffffffffffffffff1614610645576040517f08c379a000000000000000000000000000000000000000000000000000000000815260040161063c90611f5c565b60405180910390fd5b61064f600061105b565b565b60008060009054906101000a900473ffffffffffffffffffffffffffffffffffffffff16905090565b82428110156106be576040517f08c379a00000000000000000000000000000000000000000000000000000000081526004016106b590611cd2565b60405180910390fd5b7f000000000000000000000000000000000000000000000000000000000000000073ffffffffffffffffffffffffffffffffffffffff168787600081811061070957610708611cf2565b5b905060200201602081019061071e9190611c48565b73ffffffffffffffffffffffffffffffffffffffff1614610774576040517f08c379a000000000000000000000000000000000000000000000000000000000815260040161076b90611d6d565b60405180910390fd5b3489111561078157600080fd5b7f000000000000000000000000000000000000000000000000000000000000000073ffffffffffffffffffffffffffffffffffffffff1663d0e30db08a6040518263ffffffff1660e01b81526004016000604051808303818588803b1580156107e957600080fd5b505af11580156107fd573d6000803e3d6000fd5b50505050507f000000000000000000000000000000000000000000000000000000000000000073ffffffffffffffffffffffffffffffffffffffff1663a9059cbb61089a858a8a600081811061085657610855611cf2565b5b905060200201602081019061086b9190611c48565b8b8b600181811061087f5761087e611cf2565b5b90506020020160208101906108949190611c48565b87610dc1565b8b6040518363ffffffff1660e01b81526004016108b8929190611e82565b6020604051808303816000875af11580156108d7573d6000803e3d6000fd5b505050506040513d601f19601f820116820180604052508101906108fb9190611ee3565b610908576109076118ea565b5b6000878760018a8a905061091c9190611dbc565b81811061092c5761092b611cf2565b5b90506020020160208101906109419190611c48565b73ffffffffffffffffffffffffffffffffffffffff166370a08231876040518263ffffffff1660e01b81526004016109799190611c2d565b602060405180830381865afa158015610996573d6000803e3d6000fd5b505050506040513d601f19601f820116820180604052508101906109ba9190611f91565b9050610a0984898980806020026020016040519081016040528093929190818152602001838360200280828437600081840152601f19601f82011690508083019250505050505050888661111f565b88610acc828a8a60018d8d9050610a209190611dbc565b818110610a3057610a2f611cf2565b5b9050602002016020810190610a459190611c48565b73ffffffffffffffffffffffffffffffffffffffff166370a082318a6040518263ffffffff1660e01b8152600401610a7d9190611c2d565b602060405180830381865afa158015610a9a573d6000803e3d6000fd5b505050506040513d601f19601f82011682018060405250810190610abe9190611f91565b61149490919063ffffffff16565b1015610b0d576040517f08c379a0000000000000000000000000000000000000000000000000000000008152600401610b0490611e62565b60405180910390fd5b50505050505050505050565b7f000000000000000000000000000000000000000000000000000000000000000081565b610b45611053565b73ffffffffffffffffffffffffffffffffffffffff16610b63610651565b73ffffffffffffffffffffffffffffffffffffffff1614610bb9576040517f08c379a0000000000000000000000000000000000000000000000000000000008152600401610bb090611f5c565b60405180910390fd5b600073ffffffffffffffffffffffffffffffffffffffff168173ffffffffffffffffffffffffffffffffffffffff1603610c28576040517f08c379a0000000000000000000000000000000000000000000000000000000008152600401610c1f90612030565b60405180910390fd5b610c318161105b565b50565b6060600283511015610c7b576040517f08c379a0000000000000000000000000000000000000000000000000000000008152600401610c729061209c565b60405180910390fd5b825167ffffffffffffffff811115610c9657610c956120bc565b5b604051908082528060200260200182016040528015610cc45781602001602082028036833780820191505090505b5090508381600081518110610cdc57610cdb611cf2565b5b60200260200101818152505060005b60018451610cf99190611dbc565b811015610db857600080610d4f88878581518110610d1a57610d19611cf2565b5b602002602001015188600187610d3091906120eb565b81518110610d4157610d40611cf2565b5b6020026020010151886114ed565b91509150610d78848481518110610d6957610d68611cf2565b5b602002602001015183836115f2565b84600185610d8691906120eb565b81518110610d9757610d96611cf2565b5b60200260200101818152505050508080610db09061211f565b915050610ceb565b50949350505050565b6000806000610dd086866116f8565b91509150868282604051602001610de89291906121af565b6040516020818303038152906040528051906020012085604051602001610e1193929190612253565b6040516020818303038152906040528051906020012060001c92505050949350505050565b60005b60018451610e479190611dbc565b81101561104b57600080858381518110610e6457610e63611cf2565b5b602002602001015186600185610e7a91906120eb565b81518110610e8b57610e8a611cf2565b5b6020026020010151915091506000610ea383836116f8565b509050600088600186610eb691906120eb565b81518110610ec757610ec6611cf2565b5b602002602001015190506000808373ffffffffffffffffffffffffffffffffffffffff168673ffffffffffffffffffffffffffffffffffffffff1614610f0f57826000610f13565b6000835b91509150600060028b51610f279190611dbc565b8810610f335789610f66565b610f658d878d60028c610f4691906120eb565b81518110610f5757610f56611cf2565b5b60200260200101518c610dc1565b5b9050610f748d88888c610dc1565b73ffffffffffffffffffffffffffffffffffffffff1663022c0d9f848484600067ffffffffffffffff811115610fad57610fac6120bc565b5b6040519080825280601f01601f191660200182016040528015610fdf5781602001600182028036833780820191505090505b506040518563ffffffff1660e01b8152600401610fff949392919061232b565b600060405180830381600087803b15801561101957600080fd5b505af115801561102d573d6000803e3d6000fd5b505050505050505050505080806110439061211f565b915050610e39565b505050505050565b600033905090565b60008060009054906101000a900473ffffffffffffffffffffffffffffffffffffffff169050816000806101000a81548173ffffffffffffffffffffffffffffffffffffffff021916908373ffffffffffffffffffffffffffffffffffffffff1602179055508173ffffffffffffffffffffffffffffffffffffffff168173ffffffffffffffffffffffffffffffffffffffff167f8be0079c531659141344cd1fd0a4f28419497f9722a3daafe3b4186f6b6457e060405160405180910390a35050565b60005b600184516111309190611dbc565b81101561148d5760008085838151811061114d5761114c611cf2565b5b60200260200101518660018561116391906120eb565b8151811061117457611173611cf2565b5b602002602001015191509150600061118c83836116f8565b509050600061119d89858589610dc1565b90506000806000808473ffffffffffffffffffffffffffffffffffffffff16630902f1ac6040518163ffffffff1660e01b8152600401606060405180830381865afa1580156111f0573d6000803e3d6000fd5b505050506040513d601f19601f8201168201806040525081019061121491906123f9565b506dffffffffffffffffffffffffffff1691506dffffffffffffffffffffffffffff1691506000808773ffffffffffffffffffffffffffffffffffffffff168a73ffffffffffffffffffffffffffffffffffffffff1614611276578284611279565b83835b91509150611309828b73ffffffffffffffffffffffffffffffffffffffff166370a082318a6040518263ffffffff1660e01b81526004016112ba9190611c2d565b602060405180830381865afa1580156112d7573d6000803e3d6000fd5b505050506040513d601f19601f820116820180604052508101906112fb9190611f91565b61149490919063ffffffff16565b95506113168683836115f2565b9450505050506000808573ffffffffffffffffffffffffffffffffffffffff168873ffffffffffffffffffffffffffffffffffffffff161461135a5782600061135e565b6000835b91509150600060028d516113729190611dbc565b8a1061137e578b6113b1565b6113b08e898f60028e61139191906120eb565b815181106113a2576113a1611cf2565b5b60200260200101518e610dc1565b5b90508573ffffffffffffffffffffffffffffffffffffffff1663022c0d9f848484600067ffffffffffffffff8111156113ed576113ec6120bc565b5b6040519080825280601f01601f19166020018201604052801561141f5781602001600182028036833780820191505090505b506040518563ffffffff1660e01b815260040161143f949392919061232b565b600060405180830381600087803b15801561145957600080fd5b505af115801561146d573d6000803e3d6000fd5b5050505050505050505050505080806114859061211f565b915050611122565b5050505050565b60008282846114a39190611dbc565b91508111156114e7576040517f08c379a00000000000000000000000000000000000000000000000000000000081526004016114de90612498565b60405180910390fd5b92915050565b60008060006114fc86866116f8565b50905060008061150e89898989610dc1565b73ffffffffffffffffffffffffffffffffffffffff16630902f1ac6040518163ffffffff1660e01b8152600401606060405180830381865afa158015611558573d6000803e3d6000fd5b505050506040513d601f19601f8201168201806040525081019061157c91906123f9565b506dffffffffffffffffffffffffffff1691506dffffffffffffffffffffffffffff1691508273ffffffffffffffffffffffffffffffffffffffff168873ffffffffffffffffffffffffffffffffffffffff16146115db5780826115de565b81815b809550819650505050505094509492505050565b6000808411611636576040517f08c379a000000000000000000000000000000000000000000000000000000000815260040161162d9061252a565b60405180910390fd5b6000831180156116465750600082115b611685576040517f08c379a000000000000000000000000000000000000000000000000000000000815260040161167c906125bc565b60405180910390fd5b600061169c6103e58661182490919063ffffffff16565b905060006116b3848361182490919063ffffffff16565b905060006116de836116d06103e88961182490919063ffffffff16565b61189190919063ffffffff16565b905080826116ec919061260b565b93505050509392505050565b6000808273ffffffffffffffffffffffffffffffffffffffff168473ffffffffffffffffffffffffffffffffffffffff1603611769576040517f08c379a0000000000000000000000000000000000000000000000000000000008152600401611760906126ae565b60405180910390fd5b8273ffffffffffffffffffffffffffffffffffffffff168473ffffffffffffffffffffffffffffffffffffffff16106117a35782846117a6565b83835b8092508193505050600073ffffffffffffffffffffffffffffffffffffffff168273ffffffffffffffffffffffffffffffffffffffff160361181d576040517f08c379a00000000000000000000000000000000000000000000000000000000081526004016118149061271a565b60405180910390fd5b9250929050565b60008082148061184c57508282838561183d919061273a565b92508261184a919061260b565b145b61188b576040517f08c379a0000000000000000000000000000000000000000000000000000000008152600401611882906127c8565b60405180910390fd5b92915050565b60008282846118a091906120eb565b91508110156118e4576040517f08c379a00000000000000000000000000000000000000000000000000000000081526004016118db90612834565b60405180910390fd5b92915050565b7f4e487b7100000000000000000000000000000000000000000000000000000000600052600160045260246000fd5b6000819050919050565b61192c81611919565b82525050565b60006020820190506119476000830184611923565b92915050565b600080fd5b600080fd5b61196081611919565b811461196b57600080fd5b50565b60008135905061197d81611957565b92915050565b600080fd5b600080fd5b600080fd5b60008083601f8401126119a8576119a7611983565b5b8235905067ffffffffffffffff8111156119c5576119c4611988565b5b6020830191508360208202830111156119e1576119e061198d565b5b9250929050565b600073ffffffffffffffffffffffffffffffffffffffff82169050919050565b6000611a13826119e8565b9050919050565b611a2381611a08565b8114611a2e57600080fd5b50565b600081359050611a4081611a1a565b92915050565b6000819050919050565b611a5981611a46565b8114611a6457600080fd5b50565b600081359050611a7681611a50565b92915050565b60008060008060008060008060e0898b031215611a9c57611a9b61194d565b5b6000611aaa8b828c0161196e565b9850506020611abb8b828c0161196e565b975050604089013567ffffffffffffffff811115611adc57611adb611952565b5b611ae88b828c01611992565b96509650506060611afb8b828c01611a31565b9450506080611b0c8b828c0161196e565b93505060a0611b1d8b828c01611a31565b92505060c0611b2e8b828c01611a67565b9150509295985092959890939650565b600081519050919050565b600082825260208201905092915050565b6000819050602082019050919050565b611b7381611919565b82525050565b6000611b858383611b6a565b60208301905092915050565b6000602082019050919050565b6000611ba982611b3e565b611bb38185611b49565b9350611bbe83611b5a565b8060005b83811015611bef578151611bd68882611b79565b9750611be183611b91565b925050600181019050611bc2565b5085935050505092915050565b60006020820190508181036000830152611c168184611b9e565b905092915050565b611c2781611a08565b82525050565b6000602082019050611c426000830184611c1e565b92915050565b600060208284031215611c5e57611c5d61194d565b5b6000611c6c84828501611a31565b91505092915050565b600082825260208201905092915050565b7f556e69737761705632526f757465723a20455850495245440000000000000000600082015250565b6000611cbc601883611c75565b9150611cc782611c86565b602082019050919050565b60006020820190508181036000830152611ceb81611caf565b9050919050565b7f4e487b7100000000000000000000000000000000000000000000000000000000600052603260045260246000fd5b7f556e69737761705632526f757465723a20494e56414c49445f50415448000000600082015250565b6000611d57601d83611c75565b9150611d6282611d21565b602082019050919050565b60006020820190508181036000830152611d8681611d4a565b9050919050565b7f4e487b7100000000000000000000000000000000000000000000000000000000600052601160045260246000fd5b6000611dc782611919565b9150611dd283611919565b9250828203905081811115611dea57611de9611d8d565b5b92915050565b7f556e69737761705632526f757465723a20494e53554646494349454e545f4f5560008201527f545055545f414d4f554e54000000000000000000000000000000000000000000602082015250565b6000611e4c602b83611c75565b9150611e5782611df0565b604082019050919050565b60006020820190508181036000830152611e7b81611e3f565b9050919050565b6000604082019050611e976000830185611c1e565b611ea46020830184611923565b9392505050565b60008115159050919050565b611ec081611eab565b8114611ecb57600080fd5b50565b600081519050611edd81611eb7565b92915050565b600060208284031215611ef957611ef861194d565b5b6000611f0784828501611ece565b91505092915050565b7f4f776e61626c653a2063616c6c6572206973206e6f7420746865206f776e6572600082015250565b6000611f46602083611c75565b9150611f5182611f10565b602082019050919050565b60006020820190508181036000830152611f7581611f39565b9050919050565b600081519050611f8b81611957565b92915050565b600060208284031215611fa757611fa661194d565b5b6000611fb584828501611f7c565b91505092915050565b7f4f776e61626c653a206e6577206f776e657220697320746865207a65726f206160008201527f6464726573730000000000000000000000000000000000000000000000000000602082015250565b600061201a602683611c75565b915061202582611fbe565b604082019050919050565b600060208201905081810360008301526120498161200d565b9050919050565b7f556e697377617056324c6962726172793a20494e56414c49445f504154480000600082015250565b6000612086601e83611c75565b915061209182612050565b602082019050919050565b600060208201905081810360008301526120b581612079565b9050919050565b7f4e487b7100000000000000000000000000000000000000000000000000000000600052604160045260246000fd5b60006120f682611919565b915061210183611919565b925082820190508082111561211957612118611d8d565b5b92915050565b600061212a82611919565b91507fffffffffffffffffffffffffffffffffffffffffffffffffffffffffffffffff820361215c5761215b611d8d565b5b600182019050919050565b60008160601b9050919050565b600061217f82612167565b9050919050565b600061219182612174565b9050919050565b6121a96121a482611a08565b612186565b82525050565b60006121bb8285612198565b6014820191506121cb8284612198565b6014820191508190509392505050565b600081905092915050565b7fff00000000000000000000000000000000000000000000000000000000000000600082015250565b600061221c6001836121db565b9150612227826121e6565b600182019050919050565b6000819050919050565b61224d61224882611a46565b612232565b82525050565b600061225e8261220f565b915061226a8286612198565b60148201915061227a828561223c565b60208201915061228a828461223c565b602082019150819050949350505050565b600081519050919050565b600082825260208201905092915050565b60005b838110156122d55780820151818401526020810190506122ba565b60008484015250505050565b6000601f19601f8301169050919050565b60006122fd8261229b565b61230781856122a6565b93506123178185602086016122b7565b612320816122e1565b840191505092915050565b60006080820190506123406000830187611923565b61234d6020830186611923565b61235a6040830185611c1e565b818103606083015261236c81846122f2565b905095945050505050565b60006dffffffffffffffffffffffffffff82169050919050565b61239a81612377565b81146123a557600080fd5b50565b6000815190506123b781612391565b92915050565b600063ffffffff82169050919050565b6123d6816123bd565b81146123e157600080fd5b50565b6000815190506123f3816123cd565b92915050565b6000806000606084860312156124125761241161194d565b5b6000612420868287016123a8565b9350506020612431868287016123a8565b9250506040612442868287016123e4565b9150509250925092565b7f64732d6d6174682d7375622d756e646572666c6f770000000000000000000000600082015250565b6000612482601583611c75565b915061248d8261244c565b602082019050919050565b600060208201905081810360008301526124b181612475565b9050919050565b7f556e697377617056324c6962726172793a20494e53554646494349454e545f4960008201527f4e5055545f414d4f554e54000000000000000000000000000000000000000000602082015250565b6000612514602b83611c75565b915061251f826124b8565b604082019050919050565b6000602082019050818103600083015261254381612507565b9050919050565b7f556e697377617056324c6962726172793a20494e53554646494349454e545f4c60008201527f4951554944495459000000000000000000000000000000000000000000000000602082015250565b60006125a6602883611c75565b91506125b18261254a565b604082019050919050565b600060208201905081810360008301526125d581612599565b9050919050565b7f4e487b7100000000000000000000000000000000000000000000000000000000600052601260045260246000fd5b600061261682611919565b915061262183611919565b925082612631576126306125dc565b5b828204905092915050565b7f556e697377617056324c6962726172793a204944454e544943414c5f4144445260008201527f4553534553000000000000000000000000000000000000000000000000000000602082015250565b6000612698602583611c75565b91506126a38261263c565b604082019050919050565b600060208201905081810360008301526126c78161268b565b9050919050565b7f556e697377617056324c6962726172793a205a45524f5f414444524553530000600082015250565b6000612704601e83611c75565b915061270f826126ce565b602082019050919050565b60006020820190508181036000830152612733816126f7565b9050919050565b600061274582611919565b915061275083611919565b925082820261275e81611919565b9150828204841483151761277557612774611d8d565b5b5092915050565b7f64732d6d6174682d6d756c2d6f766572666c6f77000000000000000000000000600082015250565b60006127b2601483611c75565b91506127bd8261277c565b602082019050919050565b600060208201905081810360008301526127e1816127a5565b9050919050565b7f64732d6d6174682d6164642d6f766572666c6f77000000000000000000000000600082015250565b600061281e601483611c75565b9150612829826127e8565b602082019050919050565b6000602082019050818103600083015261284d81612811565b905091905056fea2646970667358221220f3d10ceaa7bf27ae90e4631cceb3630cdbf59921c87d661cd8e6a302c4ac715d64736f6c63430008110033",
  "linkReferences": {},
  "deployedLinkReferences": {}
}