{
  "_format": "hh-sol-artifact-1",
  "contractName": "rewardPool",
  "sourceName": "contracts/rewards.sol",
  "abi": [
    {
      "inputs": [
        {
          "internalType": "address",
          "name": "_token",
          "type": "address"
        },
        {
          "internalType": "address",
          "name": "_stackingAddress",
          "type": "address"
        },
        {
          "internalType": "address",
          "name": "_exchange",
          "type": "address"
        },
        {
          "internalType": "address",
          "name": "_usdt",
          "type": "address"
        },
        {
          "internalType": "address",
          "name": "_treasury",
          "type": "address"
        }
      ],
      "stateMutability": "nonpayable",
      "type": "constructor"
    },
    {
      "anonymous": false,
      "inputs": [
        {
          "indexed": true,
          "internalType": "address",
          "name": "previousOwner",
          "type": "address"
        },
        {
          "indexed": true,
          "internalType": "address",
          "name": "newOwner",
          "type": "address"
        }
      ],
      "name": "OwnershipTransferred",
      "type": "event"
    },
    {
      "inputs": [
        {
          "internalType": "uint256",
          "name": "",
          "type": "uint256"
        }
      ],
      "name": "ACCUMALATED_REWARDS",
      "outputs": [
        {
          "internalType": "uint256",
          "name": "",
          "type": "uint256"
        }
      ],
      "stateMutability": "view",
      "type": "function"
    },
    {
      "inputs": [
        {
          "internalType": "uint256",
          "name": "",
          "type": "uint256"
        }
      ],
      "name": "CLAIMABLE_REWARDS",
      "outputs": [
        {
          "internalType": "uint256",
          "name": "",
          "type": "uint256"
        }
      ],
      "stateMutability": "view",
      "type": "function"
    },
    {
      "inputs": [
        {
          "internalType": "uint256",
          "name": "",
          "type": "uint256"
        }
      ],
      "name": "CLAIMED_REWARDS",
      "outputs": [
        {
          "internalType": "uint256",
          "name": "",
          "type": "uint256"
        }
      ],
      "stateMutability": "view",
      "type": "function"
    },
    {
      "inputs": [],
      "name": "CURRENT_EPOCH",
      "outputs": [
        {
          "internalType": "uint256",
          "name": "",
          "type": "uint256"
        }
      ],
      "stateMutability": "view",
      "type": "function"
    },
    {
      "inputs": [],
      "name": "DISTRIBUTION_CYCLE",
      "outputs": [
        {
          "internalType": "uint256",
          "name": "",
          "type": "uint256"
        }
      ],
      "stateMutability": "view",
      "type": "function"
    },
    {
      "inputs": [
        {
          "internalType": "uint256",
          "name": "",
          "type": "uint256"
        }
      ],
      "name": "EPOCH_START_BALANCE",
      "outputs": [
        {
          "internalType": "uint256",
          "name": "",
          "type": "uint256"
        }
      ],
      "stateMutability": "view",
      "type": "function"
    },
    {
      "inputs": [
        {
          "internalType": "uint256",
          "name": "",
          "type": "uint256"
        }
      ],
      "name": "EPOCH_TO_START_TIME",
      "outputs": [
        {
          "internalType": "uint256",
          "name": "",
          "type": "uint256"
        }
      ],
      "stateMutability": "view",
      "type": "function"
    },
    {
      "inputs": [],
      "name": "POOL_START_TIME",
      "outputs": [
        {
          "internalType": "uint256",
          "name": "",
          "type": "uint256"
        }
      ],
      "stateMutability": "view",
      "type": "function"
    },
    {
      "inputs": [
        {
          "internalType": "uint256",
          "name": "_stakeId",
          "type": "uint256"
        },
        {
          "internalType": "uint256",
          "name": "_rewardToClaim",
          "type": "uint256"
        }
      ],
      "name": "claimRewards",
      "outputs": [
        {
          "internalType": "bool",
          "name": "",
          "type": "bool"
        }
      ],
      "stateMutability": "nonpayable",
      "type": "function"
    },
    {
      "inputs": [],
      "name": "finishEpoch",
      "outputs": [
        {
          "internalType": "bool",
          "name": "",
          "type": "bool"
        }
      ],
      "stateMutability": "nonpayable",
      "type": "function"
    },
    {
      "inputs": [],
      "name": "getChainId",
      "outputs": [
        {
          "internalType": "uint256",
          "name": "",
          "type": "uint256"
        }
      ],
      "stateMutability": "view",
      "type": "function"
    },
    {
      "inputs": [],
      "name": "getCurrentEpoch",
      "outputs": [
        {
          "internalType": "uint256",
          "name": "",
          "type": "uint256"
        }
      ],
      "stateMutability": "view",
      "type": "function"
    },
    {
      "inputs": [
        {
          "internalType": "uint256",
          "name": "_stakeId",
          "type": "uint256"
        }
      ],
      "name": "getDuration",
      "outputs": [
        {
          "internalType": "uint256",
          "name": "",
          "type": "uint256"
        }
      ],
      "stateMutability": "view",
      "type": "function"
    },
    {
      "inputs": [
        {
          "internalType": "uint256",
          "name": "_rewards",
          "type": "uint256"
        },
        {
          "internalType": "uint256",
          "name": "stakedPeriod",
          "type": "uint256"
        },
        {
          "internalType": "uint256",
          "name": "_removedStake",
          "type": "uint256"
        },
        {
          "internalType": "uint256",
          "name": "_totalStake",
          "type": "uint256"
        }
      ],
      "name": "getRewardPenalty",
      "outputs": [
        {
          "internalType": "uint256",
          "name": "penalty",
          "type": "uint256"
        }
      ],
      "stateMutability": "view",
      "type": "function"
    },
    {
      "inputs": [
        {
          "internalType": "uint256",
          "name": "_stakeId",
          "type": "uint256"
        },
        {
          "internalType": "uint256",
          "name": "stakedPeriod",
          "type": "uint256"
        },
        {
          "internalType": "uint256",
          "name": "_removedStake",
          "type": "uint256"
        },
        {
          "internalType": "uint256",
          "name": "_totalStake",
          "type": "uint256"
        }
      ],
      "name": "imposeRewardPenalty",
      "outputs": [
        {
          "internalType": "bool",
          "name": "",
          "type": "bool"
        }
      ],
      "stateMutability": "nonpayable",
      "type": "function"
    },
    {
      "inputs": [],
      "name": "owner",
      "outputs": [
        {
          "internalType": "address",
          "name": "",
          "type": "address"
        }
      ],
      "stateMutability": "view",
      "type": "function"
    },
    {
      "inputs": [],
      "name": "renounceOwnership",
      "outputs": [],
      "stateMutability": "nonpayable",
      "type": "function"
    },
    {
      "inputs": [
        {
          "internalType": "uint256",
          "name": "_rewards",
          "type": "uint256"
        },
        {
          "internalType": "uint256",
          "name": "_stakeId",
          "type": "uint256"
        },
        {
          "internalType": "bytes",
          "name": "signature",
          "type": "bytes"
        }
      ],
      "name": "rewardOfStake",
      "outputs": [
        {
          "internalType": "bool",
          "name": "",
          "type": "bool"
        }
      ],
      "stateMutability": "nonpayable",
      "type": "function"
    },
    {
      "inputs": [
        {
          "internalType": "uint256",
          "name": "_stakeId",
          "type": "uint256"
        },
        {
          "internalType": "uint256",
          "name": "_rewards",
          "type": "uint256"
        },
        {
          "internalType": "uint256",
          "name": "_gasFeePenalty",
          "type": "uint256"
        }
      ],
      "name": "rewardOfStakeByAdmin",
      "outputs": [
        {
          "internalType": "bool",
          "name": "",
          "type": "bool"
        }
      ],
      "stateMutability": "nonpayable",
      "type": "function"
    },
    {
      "inputs": [
        {
          "internalType": "bytes",
          "name": "sig",
          "type": "bytes"
        }
      ],
      "name": "splitSignature",
      "outputs": [
        {
          "internalType": "bytes32",
          "name": "r",
          "type": "bytes32"
        },
        {
          "internalType": "bytes32",
          "name": "s",
          "type": "bytes32"
        },
        {
          "internalType": "uint8",
          "name": "v",
          "type": "uint8"
        }
      ],
      "stateMutability": "pure",
      "type": "function"
    },
    {
      "inputs": [],
      "name": "startPool",
      "outputs": [
        {
          "internalType": "bool",
          "name": "",
          "type": "bool"
        }
      ],
      "stateMutability": "nonpayable",
      "type": "function"
    },
    {
      "inputs": [
        {
          "internalType": "uint256",
          "name": "_stakeId",
          "type": "uint256"
        }
      ],
      "name": "totalStakeRemoved",
      "outputs": [
        {
          "internalType": "bool",
          "name": "",
          "type": "bool"
        }
      ],
      "stateMutability": "nonpayable",
      "type": "function"
    },
    {
      "inputs": [
        {
          "internalType": "address",
          "name": "newOwner",
          "type": "address"
        }
      ],
      "name": "transferOwnership",
      "outputs": [],
      "stateMutability": "nonpayable",
      "type": "function"
    },
    {
      "inputs": [
        {
          "internalType": "bytes",
          "name": "sig",
          "type": "bytes"
        },
        {
          "internalType": "uint256",
          "name": "rewards",
          "type": "uint256"
        },
        {
          "internalType": "uint256",
          "name": "stakeId",
          "type": "uint256"
        },
        {
          "internalType": "uint256",
          "name": "currentEpoch",
          "type": "uint256"
        }
      ],
      "name": "verifySign",
      "outputs": [
        {
          "internalType": "address",
          "name": "",
          "type": "address"
        }
      ],
      "stateMutability": "view",
      "type": "function"
    }
  ],
  "bytecode": "0x60806040526224ea0060035562cb070060045564021d2e357a6016553480156200002857600080fd5b50604051620037f9380380620037f983398181016040528101906200004e919062000304565b6200006e62000062620001ce60201b60201c565b620001d660201b60201c565b84600560006101000a81548173ffffffffffffffffffffffffffffffffffffffff021916908373ffffffffffffffffffffffffffffffffffffffff1602179055506000600781905550600060028190555083600660006101000a81548173ffffffffffffffffffffffffffffffffffffffff021916908373ffffffffffffffffffffffffffffffffffffffff16021790555082600860006101000a81548173ffffffffffffffffffffffffffffffffffffffff021916908373ffffffffffffffffffffffffffffffffffffffff16021790555081600960006101000a81548173ffffffffffffffffffffffffffffffffffffffff021916908373ffffffffffffffffffffffffffffffffffffffff16021790555080601160006101000a81548173ffffffffffffffffffffffffffffffffffffffff021916908373ffffffffffffffffffffffffffffffffffffffff16021790555050505050506200038c565b600033905090565b60008060009054906101000a900473ffffffffffffffffffffffffffffffffffffffff169050816000806101000a81548173ffffffffffffffffffffffffffffffffffffffff021916908373ffffffffffffffffffffffffffffffffffffffff1602179055508173ffffffffffffffffffffffffffffffffffffffff168173ffffffffffffffffffffffffffffffffffffffff167f8be0079c531659141344cd1fd0a4f28419497f9722a3daafe3b4186f6b6457e060405160405180910390a35050565b600080fd5b600073ffffffffffffffffffffffffffffffffffffffff82169050919050565b6000620002cc826200029f565b9050919050565b620002de81620002bf565b8114620002ea57600080fd5b50565b600081519050620002fe81620002d3565b92915050565b600080600080600060a086880312156200032357620003226200029a565b5b60006200033388828901620002ed565b95505060206200034688828901620002ed565b94505060406200035988828901620002ed565b93505060606200036c88828901620002ed565b92505060806200037f88828901620002ed565b9150509295509295909350565b61345d806200039c6000396000f3fe608060405234801561001057600080fd5b50600436106101585760003560e01c80638da5cb5b116100c3578063de6fbc2d1161007c578063de6fbc2d1461041b578063e27087661461044b578063ef03b5121461047b578063ef7ea095146104ab578063f2fde38b146104db578063fa08c908146104f757610158565b80638da5cb5b146103415780638f38450a1461035f578063a7bb58031461037d578063b3cbdf91146103af578063b97dd9e2146103cd578063db020315146103eb57610158565b8063594dd43211610115578063594dd43214610247578063697af86314610277578063715018a6146102a757806372217c62146102b15780638513a671146102e15780638bb126a71461031157610158565b80631d4151521461015d57806322987d6b1461018d57806329624207146101bd5780632b299cbe146101db5780633408e4701461020b57806348e72aa914610229575b600080fd5b61017760048036038101906101729190612337565b610515565b60405161018491906123c1565b60405180910390f35b6101a760048036038101906101a291906123dc565b610aac565b6040516101b49190612418565b60405180910390f35b6101c5610ac4565b6040516101d29190612418565b60405180910390f35b6101f560048036038101906101f09190612433565b610aca565b60405161020291906123c1565b60405180910390f35b610213610e34565b6040516102209190612418565b60405180910390f35b610231610e41565b60405161023e91906123c1565b60405180910390f35b610261600480360381019061025c919061249a565b611074565b60405161026e91906123c1565b60405180910390f35b610291600480360381019061028c91906123dc565b6112d4565b60405161029e91906123c1565b60405180910390f35b6102af6113ac565b005b6102cb60048036038101906102c69190612433565b6113c0565b6040516102d89190612418565b60405180910390f35b6102fb60048036038101906102f691906123dc565b611519565b6040516103089190612418565b60405180910390f35b61032b600480360381019061032691906123dc565b611531565b6040516103389190612418565b60405180910390f35b61034961154e565b604051610356919061251b565b60405180910390f35b610367611577565b6040516103749190612418565b60405180910390f35b61039760048036038101906103929190612536565b61157d565b6040516103a6939291906125b4565b60405180910390f35b6103b76115e5565b6040516103c49190612418565b60405180910390f35b6103d56115eb565b6040516103e29190612418565b60405180910390f35b610405600480360381019061040091906123dc565b6115f5565b6040516104129190612418565b60405180910390f35b610435600480360381019061043091906123dc565b61160d565b6040516104429190612418565b60405180910390f35b610465600480360381019061046091906123dc565b611625565b6040516104729190612418565b60405180910390f35b610495600480360381019061049091906125eb565b61163d565b6040516104a2919061251b565b60405180910390f35b6104c560048036038101906104c0919061266e565b611806565b6040516104d291906123c1565b60405180910390f35b6104f560048036038101906104f091906126ed565b611c35565b005b6104ff611cb8565b60405161050c91906123c1565b60405180910390f35b6000806007541415801561052c5750600060025414155b61056b576040517f08c379a000000000000000000000000000000000000000000000000000000000815260040161056290612777565b60405180910390fd5b600062093a80600a600060075481526020019081526020016000205461059191906127c6565b90508042101580156105b1575062015180816105ad91906127c6565b4211155b6105f0576040517f08c379a00000000000000000000000000000000000000000000000000000000081526004016105e790612846565b60405180910390fd5b60158360405161060091906128d7565b908152602001604051809103902060009054906101000a900460ff161561065c576040517f08c379a00000000000000000000000000000000000000000000000000000000081526004016106539061293a565b60405180910390fd5b600660009054906101000a900473ffffffffffffffffffffffffffffffffffffffff1673ffffffffffffffffffffffffffffffffffffffff1663263b59a4856040518263ffffffff1660e01b81526004016106b79190612418565b602060405180830381865afa1580156106d4573d6000803e3d6000fd5b505050506040513d601f19601f820116820180604052508101906106f8919061296f565b73ffffffffffffffffffffffffffffffffffffffff163373ffffffffffffffffffffffffffffffffffffffff1614610765576040517f08c379a000000000000000000000000000000000000000000000000000000000815260040161075c906129e8565b60405180910390fd5b601460008581526020019081526020016000206000600754815260200190815260200160002060009054906101000a900460ff16156107d9576040517f08c379a00000000000000000000000000000000000000000000000000000000081526004016107d090612a54565b60405180910390fd5b6000600660009054906101000a900473ffffffffffffffffffffffffffffffffffffffff1673ffffffffffffffffffffffffffffffffffffffff1663c293fe1c866040518263ffffffff1660e01b81526004016108369190612418565b602060405180830381865afa158015610853573d6000803e3d6000fd5b505050506040513d601f19601f820116820180604052508101906108779190612a89565b116108b7576040517f08c379a00000000000000000000000000000000000000000000000000000000081526004016108ae90612b02565b60405180910390fd5b60006108c784878760075461163d565b90506108d161154e565b73ffffffffffffffffffffffffffffffffffffffff168173ffffffffffffffffffffffffffffffffffffffff161461093e576040517f08c379a000000000000000000000000000000000000000000000000000000000815260040161093590612b6e565b60405180910390fd5b85600c60008781526020019081526020016000205461095d91906127c6565b600c6000878152602001908152602001600020819055506001601460008781526020019081526020016000206000600754815260200190815260200160002060006101000a81548160ff021916908315150217905550600060026007546109c49190612bbd565b1480156109d45750600060075414155b15610a3d5760006109e486611e32565b905080600e6000888152602001908152602001600020819055506010600087815260200190815260200160002054600e60008881526020019081526020016000206000828254610a349190612bee565b92505081905550505b6012600060075481526020019081526020016000206000815480929190610a6390612c22565b91905055506001601585604051610a7a91906128d7565b908152602001604051809103902060006101000a81548160ff0219169083151502179055506001925050509392505050565b600e6020528060005260406000206000915090505481565b60075481565b6000600660009054906101000a900473ffffffffffffffffffffffffffffffffffffffff1673ffffffffffffffffffffffffffffffffffffffff163373ffffffffffffffffffffffffffffffffffffffff1614610b5c576040517f08c379a0000000000000000000000000000000000000000000000000000000008152600401610b5390612cdc565b60405180910390fd5b6000600c600087815260200190815260200160002054905060006064610b84838888886113c0565b610b8e9190612cfc565b905060008486600c60008b815260200190815260200160002054610bb29190612d2d565b610bbc9190612cfc565b90508181610bca9190612bee565b9050600560009054906101000a900473ffffffffffffffffffffffffffffffffffffffff1673ffffffffffffffffffffffffffffffffffffffff1663a9059cbb601160009054906101000a900473ffffffffffffffffffffffffffffffffffffffff16846040518363ffffffff1660e01b8152600401610c4b929190612d6f565b6020604051808303816000875af1158015610c6a573d6000803e3d6000fd5b505050506040513d601f19601f82011682018060405250810190610c8e9190612dc4565b5080600c60008a81526020019081526020016000206000828254610cb29190612bee565b9250508190555081600c60008a81526020019081526020016000206000828254610cdc9190612bee565b925050819055506000600660009054906101000a900473ffffffffffffffffffffffffffffffffffffffff1673ffffffffffffffffffffffffffffffffffffffff1663263b59a48a6040518263ffffffff1660e01b8152600401610d409190612418565b602060405180830381865afa158015610d5d573d6000803e3d6000fd5b505050506040513d601f19601f82011682018060405250810190610d81919061296f565b9050600560009054906101000a900473ffffffffffffffffffffffffffffffffffffffff1673ffffffffffffffffffffffffffffffffffffffff1663a9059cbb82846040518363ffffffff1660e01b8152600401610de0929190612d6f565b6020604051808303816000875af1158015610dff573d6000803e3d6000fd5b505050506040513d601f19601f82011682018060405250810190610e239190612dc4565b506001945050505050949350505050565b6000804690508091505090565b6000610e4b61205d565b62093a80600a6000600754815260200190815260200160002054610e6f91906127c6565b421015610eb1576040517f08c379a0000000000000000000000000000000000000000000000000000000008152600401610ea890612e3d565b60405180910390fd5b600660009054906101000a900473ffffffffffffffffffffffffffffffffffffffff1673ffffffffffffffffffffffffffffffffffffffff16633b7daa966007546040518263ffffffff1660e01b8152600401610f0e9190612418565b602060405180830381865afa158015610f2b573d6000803e3d6000fd5b505050506040513d601f19601f82011682018060405250810190610f4f9190612a89565b6012600060075481526020019081526020016000205414610fa5576040517f08c379a0000000000000000000000000000000000000000000000000000000008152600401610f9c90612ecf565b60405180910390fd5b6001600754610fb491906127c6565b60078190555062093a80600a60006001600754610fd19190612bee565b815260200190815260200160002054610fea91906127c6565b600a6000600754815260200190815260200160002081905550600060026007546110149190612bbd565b1480156110245750600060075414155b1561106d57600160025461103891906127c6565b6002819055506001600d6000600254815260200190815260200160002060006101000a81548160ff0219169083151502179055505b6001905090565b6000600660009054906101000a900473ffffffffffffffffffffffffffffffffffffffff1673ffffffffffffffffffffffffffffffffffffffff1663263b59a4846040518263ffffffff1660e01b81526004016110d19190612418565b602060405180830381865afa1580156110ee573d6000803e3d6000fd5b505050506040513d601f19601f82011682018060405250810190611112919061296f565b73ffffffffffffffffffffffffffffffffffffffff163373ffffffffffffffffffffffffffffffffffffffff161461117f576040517f08c379a000000000000000000000000000000000000000000000000000000000815260040161117690612f3b565b60405180910390fd5b600e6000848152602001908152602001600020548211156111d5576040517f08c379a00000000000000000000000000000000000000000000000000000000081526004016111cc90612fcd565b60405180910390fd5b816010600085815260200190815260200160002060008282546111f891906127c6565b9250508190555081600e600085815260200190815260200160002060008282546112229190612bee565b92505081905550600560009054906101000a900473ffffffffffffffffffffffffffffffffffffffff1673ffffffffffffffffffffffffffffffffffffffff1663a9059cbb33846040518363ffffffff1660e01b8152600401611286929190612d6f565b6020604051808303816000875af11580156112a5573d6000803e3d6000fd5b505050506040513d601f19601f820116820180604052508101906112c99190612dc4565b506001905092915050565b6000600660009054906101000a900473ffffffffffffffffffffffffffffffffffffffff1673ffffffffffffffffffffffffffffffffffffffff163373ffffffffffffffffffffffffffffffffffffffff1614611366576040517f08c379a000000000000000000000000000000000000000000000000000000000815260040161135d90613039565b60405180910390fd5b600c600083815260200190815260200160002054600e6000848152602001908152602001600020600082825461139c91906127c6565b9250508190555060019050919050565b6113b461205d565b6113be60006120db565b565b600060035484101580156113e1575060035460026113de9190612d2d565b84105b15611410578183603c876113f59190612d2d565b6113ff9190612d2d565b6114099190612cfc565b9050611511565b600354600261141f9190612d2d565b841015801561143b575060035460036114389190612d2d565b84105b1561146a578183601e8761144f9190612d2d565b6114599190612d2d565b6114639190612cfc565b9050611510565b60035460036114799190612d2d565b8410158015611495575060035460046114929190612d2d565b84105b156114c45781836014876114a99190612d2d565b6114b39190612d2d565b6114bd9190612cfc565b905061150f565b60035460046114d39190612d2d565b84101580156114e3575060045484105b1561150e578183600a876114f79190612d2d565b6115019190612d2d565b61150b9190612cfc565b90505b5b5b5b949350505050565b600a6020528060005260406000206000915090505481565b6000600f6000838152602001908152602001600020549050919050565b60008060009054906101000a900473ffffffffffffffffffffffffffffffffffffffff16905090565b60025481565b600080600060418451146115c6576040517f08c379a00000000000000000000000000000000000000000000000000000000081526004016115bd906130a5565b60405180910390fd5b6020840151925060408401519150606084015160001a90509193909250565b60015481565b6000600754905090565b60106020528060005260406000206000915090505481565b600c6020528060005260406000206000915090505481565b600b6020528060005260406000206000915090505481565b60008046905060007f8b73c3c69bb8fe3d512ecc4cf759cc79239f7b179b0ffacaa9a75d522b39400f6040518060400160405280601081526020017f766f6c617279546f6b656e6f6d69637300000000000000000000000000000000815250805190602001206040518060400160405280600181526020017f31000000000000000000000000000000000000000000000000000000000000008152508051906020012084306040516020016116f69594939291906130c5565b60405160208183030381529060405280519060200120905060007f6653e7cd3a1a9aef96921d5ab438ed1c97f8b2a810f0757ef37ab483d678681c8787876040516020016117479493929190613118565b604051602081830303815290604052805190602001209050600082826040516020016117749291906131d5565b604051602081830303815290604052805190602001209050600080600061179a8c61157d565b9250925092506000600185838686604051600081526020016040526040516117c5949392919061320c565b6020604051602081039080840390855afa1580156117e7573d6000803e3d6000fd5b5050506020604051035190508098505050505050505050949350505050565b600061181061205d565b6000600754141580156118265750600060025414155b611865576040517f08c379a000000000000000000000000000000000000000000000000000000000815260040161185c90612777565b60405180910390fd5b60006201518062093a80600a600060075481526020019081526020016000205461188f91906127c6565b61189991906127c6565b905080421180156118b8575062015180816118b491906127c6565b4211155b6118f7576040517f08c379a00000000000000000000000000000000000000000000000000000000081526004016118ee9061329d565b60405180910390fd5b601460008681526020019081526020016000206000600754815260200190815260200160002060009054906101000a900460ff161561196b576040517f08c379a000000000000000000000000000000000000000000000000000000000815260040161196290612a54565b60405180910390fd5b6000600660009054906101000a900473ffffffffffffffffffffffffffffffffffffffff1673ffffffffffffffffffffffffffffffffffffffff1663c293fe1c876040518263ffffffff1660e01b81526004016119c89190612418565b602060405180830381865afa1580156119e5573d6000803e3d6000fd5b505050506040513d601f19601f82011682018060405250810190611a099190612a89565b11611a49576040517f08c379a0000000000000000000000000000000000000000000000000000000008152600401611a4090612b02565b60405180910390fd5b8284611a559190612bee565b9350600560009054906101000a900473ffffffffffffffffffffffffffffffffffffffff1673ffffffffffffffffffffffffffffffffffffffff1663a9059cbb611a9d61154e565b856040518363ffffffff1660e01b8152600401611abb929190612d6f565b6020604051808303816000875af1158015611ada573d6000803e3d6000fd5b505050506040513d601f19601f82011682018060405250810190611afe9190612dc4565b5083600c600087815260200190815260200160002054611b1e91906127c6565b600c6000878152602001908152602001600020819055506001601460008781526020019081526020016000206000600754815260200190815260200160002060006101000a81548160ff02191690831515021790555060006002600754611b859190612bbd565b148015611b955750600060075414155b15611bfe576000611ba586611e32565b905080600e6000888152602001908152602001600020819055506010600087815260200190815260200160002054600e60008881526020019081526020016000206000828254611bf59190612bee565b92505081905550505b6012600060075481526020019081526020016000206000815480929190611c2490612c22565b919050555060019150509392505050565b611c3d61205d565b600073ffffffffffffffffffffffffffffffffffffffff168173ffffffffffffffffffffffffffffffffffffffff1603611cac576040517f08c379a0000000000000000000000000000000000000000000000000000000008152600401611ca39061332f565b60405180910390fd5b611cb5816120db565b50565b6000611cc261205d565b6000600754148015611cd657506000600254145b611d15576040517f08c379a0000000000000000000000000000000000000000000000000000000008152600401611d0c9061339b565b60405180910390fd5b6001600781905550600160028190555042600181905550600154600a6000600754815260200190815260200160002081905550600560009054906101000a900473ffffffffffffffffffffffffffffffffffffffff1673ffffffffffffffffffffffffffffffffffffffff166370a08231306040518263ffffffff1660e01b8152600401611da3919061251b565b602060405180830381865afa158015611dc0573d6000803e3d6000fd5b505050506040513d601f19601f82011682018060405250810190611de49190612a89565b600b60006007548152602001908152602001600020819055506001600d6000600254815260200190815260200160002060006101000a81548160ff0219169083151502179055506001905090565b600080600c60008481526020019081526020016000205490506000600660009054906101000a900473ffffffffffffffffffffffffffffffffffffffff1673ffffffffffffffffffffffffffffffffffffffff16635ab01187856040518263ffffffff1660e01b8152600401611ea89190612418565b602060405180830381865afa158015611ec5573d6000803e3d6000fd5b505050506040513d601f19601f82011682018060405250810190611ee99190612a89565b42611ef49190612bee565b9050600354811015611f22576064603283611f0f9190612d2d565b611f199190612cfc565b92505050612058565b6003548110158015611f4157506003546002611f3e9190612d2d565b81105b15611f68576064603c83611f559190612d2d565b611f5f9190612cfc565b92505050612058565b6003546002611f779190612d2d565b8110158015611f9357506003546003611f909190612d2d565b81105b15611fba576064604683611fa79190612d2d565b611fb19190612cfc565b92505050612058565b6003546003611fc99190612d2d565b8110158015611fe557506003546004611fe29190612d2d565b81105b1561200c576064605083611ff99190612d2d565b6120039190612cfc565b92505050612058565b600354600461201b9190612d2d565b811015801561202b575060045481105b15612052576064605a8361203f9190612d2d565b6120499190612cfc565b92505050612058565b81925050505b919050565b61206561219f565b73ffffffffffffffffffffffffffffffffffffffff1661208361154e565b73ffffffffffffffffffffffffffffffffffffffff16146120d9576040517f08c379a00000000000000000000000000000000000000000000000000000000081526004016120d090613407565b60405180910390fd5b565b60008060009054906101000a900473ffffffffffffffffffffffffffffffffffffffff169050816000806101000a81548173ffffffffffffffffffffffffffffffffffffffff021916908373ffffffffffffffffffffffffffffffffffffffff1602179055508173ffffffffffffffffffffffffffffffffffffffff168173ffffffffffffffffffffffffffffffffffffffff167f8be0079c531659141344cd1fd0a4f28419497f9722a3daafe3b4186f6b6457e060405160405180910390a35050565b600033905090565b6000604051905090565b600080fd5b600080fd5b6000819050919050565b6121ce816121bb565b81146121d957600080fd5b50565b6000813590506121eb816121c5565b92915050565b600080fd5b600080fd5b6000601f19601f8301169050919050565b7f4e487b7100000000000000000000000000000000000000000000000000000000600052604160045260246000fd5b612244826121fb565b810181811067ffffffffffffffff821117156122635761226261220c565b5b80604052505050565b60006122766121a7565b9050612282828261223b565b919050565b600067ffffffffffffffff8211156122a2576122a161220c565b5b6122ab826121fb565b9050602081019050919050565b82818337600083830152505050565b60006122da6122d584612287565b61226c565b9050828152602081018484840111156122f6576122f56121f6565b5b6123018482856122b8565b509392505050565b600082601f83011261231e5761231d6121f1565b5b813561232e8482602086016122c7565b91505092915050565b6000806000606084860312156123505761234f6121b1565b5b600061235e868287016121dc565b935050602061236f868287016121dc565b925050604084013567ffffffffffffffff8111156123905761238f6121b6565b5b61239c86828701612309565b9150509250925092565b60008115159050919050565b6123bb816123a6565b82525050565b60006020820190506123d660008301846123b2565b92915050565b6000602082840312156123f2576123f16121b1565b5b6000612400848285016121dc565b91505092915050565b612412816121bb565b82525050565b600060208201905061242d6000830184612409565b92915050565b6000806000806080858703121561244d5761244c6121b1565b5b600061245b878288016121dc565b945050602061246c878288016121dc565b935050604061247d878288016121dc565b925050606061248e878288016121dc565b91505092959194509250565b600080604083850312156124b1576124b06121b1565b5b60006124bf858286016121dc565b92505060206124d0858286016121dc565b9150509250929050565b600073ffffffffffffffffffffffffffffffffffffffff82169050919050565b6000612505826124da565b9050919050565b612515816124fa565b82525050565b6000602082019050612530600083018461250c565b92915050565b60006020828403121561254c5761254b6121b1565b5b600082013567ffffffffffffffff81111561256a576125696121b6565b5b61257684828501612309565b91505092915050565b6000819050919050565b6125928161257f565b82525050565b600060ff82169050919050565b6125ae81612598565b82525050565b60006060820190506125c96000830186612589565b6125d66020830185612589565b6125e360408301846125a5565b949350505050565b60008060008060808587031215612605576126046121b1565b5b600085013567ffffffffffffffff811115612623576126226121b6565b5b61262f87828801612309565b9450506020612640878288016121dc565b9350506040612651878288016121dc565b9250506060612662878288016121dc565b91505092959194509250565b600080600060608486031215612687576126866121b1565b5b6000612695868287016121dc565b93505060206126a6868287016121dc565b92505060406126b7868287016121dc565b9150509250925092565b6126ca816124fa565b81146126d557600080fd5b50565b6000813590506126e7816126c1565b92915050565b600060208284031215612703576127026121b1565b5b6000612711848285016126d8565b91505092915050565b600082825260208201905092915050565b7f504f4f4c204e4f54205354415254454400000000000000000000000000000000600082015250565b600061276160108361271a565b915061276c8261272b565b602082019050919050565b6000602082019050818103600083015261279081612754565b9050919050565b7f4e487b7100000000000000000000000000000000000000000000000000000000600052601160045260246000fd5b60006127d1826121bb565b91506127dc836121bb565b92508282019050808211156127f4576127f3612797565b5b92915050565b7f414343455353205245535452494354454420464f52205553455253204e4f5700600082015250565b6000612830601f8361271a565b915061283b826127fa565b602082019050919050565b6000602082019050818103600083015261285f81612823565b9050919050565b600081519050919050565b600081905092915050565b60005b8381101561289a57808201518184015260208101905061287f565b60008484015250505050565b60006128b182612866565b6128bb8185612871565b93506128cb81856020860161287c565b80840191505092915050565b60006128e382846128a6565b915081905092915050565b7f7369676e61747572652063616e2062652075736564206f6e6c79206f6e636500600082015250565b6000612924601f8361271a565b915061292f826128ee565b602082019050919050565b6000602082019050818103600083015261295381612917565b9050919050565b600081519050612969816126c1565b92915050565b600060208284031215612985576129846121b1565b5b60006129938482850161295a565b91505092915050565b7f6e6f74207374616b6520686f6c64657200000000000000000000000000000000600082015250565b60006129d260108361271a565b91506129dd8261299c565b602082019050919050565b60006020820190508181036000830152612a01816129c5565b9050919050565b7f52455741524420464f5220544849532045504f43482049532053455400000000600082015250565b6000612a3e601c8361271a565b9150612a4982612a08565b602082019050919050565b60006020820190508181036000830152612a6d81612a31565b9050919050565b600081519050612a83816121c5565b92915050565b600060208284031215612a9f57612a9e6121b1565b5b6000612aad84828501612a74565b91505092915050565b7f5354414b4520444f45534e542045584953545300000000000000000000000000600082015250565b6000612aec60138361271a565b9150612af782612ab6565b602082019050919050565b60006020820190508181036000830152612b1b81612adf565b9050919050565b7f7369676e6174757265206d69736d617463680000000000000000000000000000600082015250565b6000612b5860128361271a565b9150612b6382612b22565b602082019050919050565b60006020820190508181036000830152612b8781612b4b565b9050919050565b7f4e487b7100000000000000000000000000000000000000000000000000000000600052601260045260246000fd5b6000612bc8826121bb565b9150612bd3836121bb565b925082612be357612be2612b8e565b5b828206905092915050565b6000612bf9826121bb565b9150612c04836121bb565b9250828203905081811115612c1c57612c1b612797565b5b92915050565b6000612c2d826121bb565b91507fffffffffffffffffffffffffffffffffffffffffffffffffffffffffffffffff8203612c5f57612c5e612797565b5b600182019050919050565b7f4f6e6c7920737461636b696e6720636f6e74726163742063616e20696d706f7360008201527f652070656e616c74790000000000000000000000000000000000000000000000602082015250565b6000612cc660298361271a565b9150612cd182612c6a565b604082019050919050565b60006020820190508181036000830152612cf581612cb9565b9050919050565b6000612d07826121bb565b9150612d12836121bb565b925082612d2257612d21612b8e565b5b828204905092915050565b6000612d38826121bb565b9150612d43836121bb565b9250828202612d51816121bb565b91508282048414831517612d6857612d67612797565b5b5092915050565b6000604082019050612d84600083018561250c565b612d916020830184612409565b9392505050565b612da1816123a6565b8114612dac57600080fd5b50565b600081519050612dbe81612d98565b92915050565b600060208284031215612dda57612dd96121b1565b5b6000612de884828501612daf565b91505092915050565b7f2065706f6368206e6f7420636f6d706c65746564000000000000000000000000600082015250565b6000612e2760148361271a565b9150612e3282612df1565b602082019050919050565b60006020820190508181036000830152612e5681612e1a565b9050919050565b7f414c4c205354414b45205245574152445320415245204e4f542043414c43554c60008201527f4154454400000000000000000000000000000000000000000000000000000000602082015250565b6000612eb960248361271a565b9150612ec482612e5d565b604082019050919050565b60006020820190508181036000830152612ee881612eac565b9050919050565b7f4f4e4c5920484f4c44455220434c41494d205245574152445300000000000000600082015250565b6000612f2560198361271a565b9150612f3082612eef565b602082019050919050565b60006020820190508181036000830152612f5481612f18565b9050919050565b7f63616e74207769746864726177206d6f7265207468616e20636c61696d626c6560008201527f2072657761726473000000000000000000000000000000000000000000000000602082015250565b6000612fb760288361271a565b9150612fc282612f5b565b604082019050919050565b60006020820190508181036000830152612fe681612faa565b9050919050565b7f6e6f7420737461636b696e6720636f6e74726163740000000000000000000000600082015250565b600061302360158361271a565b915061302e82612fed565b602082019050919050565b6000602082019050818103600083015261305281613016565b9050919050565b7f696e76616c6964207369676e6174757265206c656e6774680000000000000000600082015250565b600061308f60188361271a565b915061309a82613059565b602082019050919050565b600060208201905081810360008301526130be81613082565b9050919050565b600060a0820190506130da6000830188612589565b6130e76020830187612589565b6130f46040830186612589565b6131016060830185612409565b61310e608083018461250c565b9695505050505050565b600060808201905061312d6000830187612589565b61313a6020830186612409565b6131476040830185612409565b6131546060830184612409565b95945050505050565b600081905092915050565b7f1901000000000000000000000000000000000000000000000000000000000000600082015250565b600061319e60028361315d565b91506131a982613168565b600282019050919050565b6000819050919050565b6131cf6131ca8261257f565b6131b4565b82525050565b60006131e082613191565b91506131ec82856131be565b6020820191506131fc82846131be565b6020820191508190509392505050565b60006080820190506132216000830187612589565b61322e60208301866125a5565b61323b6040830185612589565b6132486060830184612589565b95945050505050565b7f414343455353205245535452494354454420464f522041444d494e204e4f5700600082015250565b6000613287601f8361271a565b915061329282613251565b602082019050919050565b600060208201905081810360008301526132b68161327a565b9050919050565b7f4f776e61626c653a206e6577206f776e657220697320746865207a65726f206160008201527f6464726573730000000000000000000000000000000000000000000000000000602082015250565b600061331960268361271a565b9150613324826132bd565b604082019050919050565b600060208201905081810360008301526133488161330c565b9050919050565b7f504f4f4c20414c52454144592053544152544544000000000000000000000000600082015250565b600061338560148361271a565b91506133908261334f565b602082019050919050565b600060208201905081810360008301526133b481613378565b9050919050565b7f4f776e61626c653a2063616c6c6572206973206e6f7420746865206f776e6572600082015250565b60006133f160208361271a565b91506133fc826133bb565b602082019050919050565b60006020820190508181036000830152613420816133e4565b905091905056fea26469706673582212204991ac093637171ffb5ad3e3140427011eeac80e38c8d4328a40755891b6aba264736f6c63430008110033",
  "linkReferences": {},
  "deployedLinkReferences": {}
}