{
  "_format": "hh-sol-artifact-1",
  "contractName": "StakingToken",
  "sourceName": "contracts/stacking.sol",
  "abi": [
    {
      "inputs": [
        {
          "internalType": "address",
          "name": "_tokenContract",
          "type": "address"
        }
      ],
      "stateMutability": "nonpayable",
      "type": "constructor"
    },
    {
      "anonymous": false,
      "inputs": [
        {
          "indexed": true,
          "internalType": "address",
          "name": "previousOwner",
          "type": "address"
        },
        {
          "indexed": true,
          "internalType": "address",
          "name": "newOwner",
          "type": "address"
        }
      ],
      "name": "OwnershipTransferred",
      "type": "event"
    },
    {
      "inputs": [
        {
          "internalType": "address",
          "name": "_rewardPool",
          "type": "address"
        }
      ],
      "name": "addRewardPoolAddress",
      "outputs": [
        {
          "internalType": "bool",
          "name": "",
          "type": "bool"
        }
      ],
      "stateMutability": "nonpayable",
      "type": "function"
    },
    {
      "inputs": [
        {
          "internalType": "address",
          "name": "",
          "type": "address"
        },
        {
          "internalType": "uint256",
          "name": "",
          "type": "uint256"
        }
      ],
      "name": "addressToStakes",
      "outputs": [
        {
          "internalType": "uint256",
          "name": "",
          "type": "uint256"
        }
      ],
      "stateMutability": "view",
      "type": "function"
    },
    {
      "inputs": [
        {
          "internalType": "uint256",
          "name": "_stakeAmount",
          "type": "uint256"
        },
        {
          "internalType": "uint256",
          "name": "_duration",
          "type": "uint256"
        }
      ],
      "name": "createStake",
      "outputs": [],
      "stateMutability": "nonpayable",
      "type": "function"
    },
    {
      "inputs": [
        {
          "internalType": "uint256",
          "name": "_stakeId",
          "type": "uint256"
        }
      ],
      "name": "getAddedEpoch",
      "outputs": [
        {
          "internalType": "uint256",
          "name": "",
          "type": "uint256"
        }
      ],
      "stateMutability": "view",
      "type": "function"
    },
    {
      "inputs": [
        {
          "internalType": "uint256",
          "name": "_stakeId",
          "type": "uint256"
        }
      ],
      "name": "getDuration",
      "outputs": [
        {
          "internalType": "uint256",
          "name": "",
          "type": "uint256"
        }
      ],
      "stateMutability": "view",
      "type": "function"
    },
    {
      "inputs": [
        {
          "internalType": "uint256",
          "name": "_stakeId",
          "type": "uint256"
        }
      ],
      "name": "getHolderByStakeId",
      "outputs": [
        {
          "internalType": "address",
          "name": "",
          "type": "address"
        }
      ],
      "stateMutability": "view",
      "type": "function"
    },
    {
      "inputs": [
        {
          "internalType": "address",
          "name": "_stakeholder",
          "type": "address"
        }
      ],
      "name": "getStackerLevel",
      "outputs": [
        {
          "internalType": "string",
          "name": "level",
          "type": "string"
        }
      ],
      "stateMutability": "view",
      "type": "function"
    },
    {
      "inputs": [
        {
          "internalType": "uint256",
          "name": "_stakeId",
          "type": "uint256"
        }
      ],
      "name": "getStakeAmount",
      "outputs": [
        {
          "internalType": "uint256",
          "name": "",
          "type": "uint256"
        }
      ],
      "stateMutability": "view",
      "type": "function"
    },
    {
      "inputs": [
        {
          "internalType": "uint256",
          "name": "",
          "type": "uint256"
        }
      ],
      "name": "getStakeById",
      "outputs": [
        {
          "internalType": "address",
          "name": "holder",
          "type": "address"
        },
        {
          "internalType": "uint256",
          "name": "stakeAmount",
          "type": "uint256"
        },
        {
          "internalType": "uint256",
          "name": "duration",
          "type": "uint256"
        },
        {
          "internalType": "uint256",
          "name": "stackingStartTime",
          "type": "uint256"
        }
      ],
      "stateMutability": "view",
      "type": "function"
    },
    {
      "inputs": [
        {
          "internalType": "address",
          "name": "holder",
          "type": "address"
        }
      ],
      "name": "getStakesOfAddress",
      "outputs": [
        {
          "internalType": "uint256[]",
          "name": "",
          "type": "uint256[]"
        }
      ],
      "stateMutability": "view",
      "type": "function"
    },
    {
      "inputs": [
        {
          "internalType": "uint256",
          "name": "_stakeId",
          "type": "uint256"
        }
      ],
      "name": "getStartTimeOfStake",
      "outputs": [
        {
          "internalType": "uint256",
          "name": "",
          "type": "uint256"
        }
      ],
      "stateMutability": "view",
      "type": "function"
    },
    {
      "inputs": [],
      "name": "getTotalNumberOfStakes",
      "outputs": [
        {
          "internalType": "uint256",
          "name": "",
          "type": "uint256"
        }
      ],
      "stateMutability": "view",
      "type": "function"
    },
    {
      "inputs": [
        {
          "internalType": "uint256",
          "name": "epoch",
          "type": "uint256"
        }
      ],
      "name": "getactiveStakesTillEpoch",
      "outputs": [
        {
          "internalType": "uint256",
          "name": "",
          "type": "uint256"
        }
      ],
      "stateMutability": "view",
      "type": "function"
    },
    {
      "inputs": [
        {
          "internalType": "uint256",
          "name": "epochNumber",
          "type": "uint256"
        }
      ],
      "name": "getstakesTillEpoch",
      "outputs": [
        {
          "internalType": "uint256",
          "name": "",
          "type": "uint256"
        }
      ],
      "stateMutability": "view",
      "type": "function"
    },
    {
      "inputs": [
        {
          "internalType": "uint256",
          "name": "_stakeId",
          "type": "uint256"
        }
      ],
      "name": "isDurationBound",
      "outputs": [
        {
          "internalType": "bool",
          "name": "",
          "type": "bool"
        }
      ],
      "stateMutability": "view",
      "type": "function"
    },
    {
      "inputs": [
        {
          "internalType": "address",
          "name": "",
          "type": "address"
        }
      ],
      "name": "isStakeHolder",
      "outputs": [
        {
          "internalType": "bool",
          "name": "",
          "type": "bool"
        }
      ],
      "stateMutability": "view",
      "type": "function"
    },
    {
      "inputs": [],
      "name": "owner",
      "outputs": [
        {
          "internalType": "address",
          "name": "",
          "type": "address"
        }
      ],
      "stateMutability": "view",
      "type": "function"
    },
    {
      "inputs": [
        {
          "internalType": "uint256",
          "name": "_stakeId",
          "type": "uint256"
        },
        {
          "internalType": "uint256",
          "name": "_stake",
          "type": "uint256"
        }
      ],
      "name": "removeStake",
      "outputs": [
        {
          "internalType": "bool",
          "name": "",
          "type": "bool"
        }
      ],
      "stateMutability": "nonpayable",
      "type": "function"
    },
    {
      "inputs": [],
      "name": "renounceOwnership",
      "outputs": [],
      "stateMutability": "nonpayable",
      "type": "function"
    },
    {
      "inputs": [
        {
          "internalType": "address",
          "name": "_stakeholder",
          "type": "address"
        }
      ],
      "name": "stakeOf",
      "outputs": [
        {
          "internalType": "uint256",
          "name": "",
          "type": "uint256"
        }
      ],
      "stateMutability": "view",
      "type": "function"
    },
    {
      "inputs": [
        {
          "internalType": "uint256",
          "name": "",
          "type": "uint256"
        }
      ],
      "name": "stakedRemovedTime",
      "outputs": [
        {
          "internalType": "uint256",
          "name": "",
          "type": "uint256"
        }
      ],
      "stateMutability": "view",
      "type": "function"
    },
    {
      "inputs": [
        {
          "internalType": "uint256",
          "name": "",
          "type": "uint256"
        }
      ],
      "name": "stakesAddedInEpoch",
      "outputs": [
        {
          "internalType": "uint256",
          "name": "",
          "type": "uint256"
        }
      ],
      "stateMutability": "view",
      "type": "function"
    },
    {
      "inputs": [
        {
          "internalType": "uint256",
          "name": "",
          "type": "uint256"
        }
      ],
      "name": "stakesRemovedInEpoch",
      "outputs": [
        {
          "internalType": "uint256",
          "name": "",
          "type": "uint256"
        }
      ],
      "stateMutability": "view",
      "type": "function"
    },
    {
      "inputs": [
        {
          "internalType": "address",
          "name": "newOwner",
          "type": "address"
        }
      ],
      "name": "transferOwnership",
      "outputs": [],
      "stateMutability": "nonpayable",
      "type": "function"
    }
  ],
  "bytecode": "0x60806040526000600155685a5e45b3db002c0000600c553480156200002357600080fd5b5060405162002b3138038062002b31833981810160405281019062000049919062000228565b620000696200005d620000f260201b60201c565b620000fa60201b60201c565b33600b60006101000a81548173ffffffffffffffffffffffffffffffffffffffff021916908373ffffffffffffffffffffffffffffffffffffffff16021790555080600a60006101000a81548173ffffffffffffffffffffffffffffffffffffffff021916908373ffffffffffffffffffffffffffffffffffffffff160217905550506200025a565b600033905090565b60008060009054906101000a900473ffffffffffffffffffffffffffffffffffffffff169050816000806101000a81548173ffffffffffffffffffffffffffffffffffffffff021916908373ffffffffffffffffffffffffffffffffffffffff1602179055508173ffffffffffffffffffffffffffffffffffffffff168173ffffffffffffffffffffffffffffffffffffffff167f8be0079c531659141344cd1fd0a4f28419497f9722a3daafe3b4186f6b6457e060405160405180910390a35050565b600080fd5b600073ffffffffffffffffffffffffffffffffffffffff82169050919050565b6000620001f082620001c3565b9050919050565b6200020281620001e3565b81146200020e57600080fd5b50565b6000815190506200022281620001f7565b92915050565b600060208284031215620002415762000240620001be565b5b6000620002518482850162000211565b91505092915050565b6128c7806200026a6000396000f3fe608060405234801561001057600080fd5b50600436106101585760003560e01c806363512159116100c35780638da5cb5b1161007c5780638da5cb5b14610488578063c293fe1c146104a6578063cc83e6d3146104d6578063d7fa023d14610506578063f2fde38b14610522578063f76fb88e1461053e57610158565b8063635121591461038e5780636680a938146103be578063715018a6146103ee5780637446ead3146103f85780637e541bec146104285780638bb126a71461045857610158565b80633ba072b6116101155780633ba072b61461026e578063426233601461029e57806342cec90b146102ce5780634ff64a24146102fe5780635ab011871461032e5780636082ea041461035e57610158565b806316ae8f401461015d578063263b59a41461017b5780632d67f0b9146101ab57806331883145146101db5780633a5852bb1461020e5780633b7daa961461023e575b600080fd5b61016561056e565b6040516101729190611abb565b60405180910390f35b61019560048036038101906101909190611b07565b610578565b6040516101a29190611b75565b60405180910390f35b6101c560048036038101906101c09190611b90565b61061c565b6040516101d29190611beb565b60405180910390f35b6101f560048036038101906101f09190611b07565b610cb4565b6040516102059493929190611c06565b60405180910390f35b61022860048036038101906102239190611b07565b610d04565b6040516102359190611abb565b60405180910390f35b61025860048036038101906102539190611b07565b610d53565b6040516102659190611abb565b60405180910390f35b61028860048036038101906102839190611b07565b610dc0565b6040516102959190611abb565b60405180910390f35b6102b860048036038101906102b39190611c77565b610dd8565b6040516102c59190611abb565b60405180910390f35b6102e860048036038101906102e39190611c77565b610ec0565b6040516102f59190611d34565b60405180910390f35b61031860048036038101906103139190611b07565b61104f565b6040516103259190611beb565b60405180910390f35b61034860048036038101906103439190611b07565b611107565b6040516103559190611abb565b60405180910390f35b61037860048036038101906103739190611b07565b6111ab565b6040516103859190611abb565b60405180910390f35b6103a860048036038101906103a39190611c77565b6111c3565b6040516103b59190611beb565b60405180910390f35b6103d860048036038101906103d39190611b07565b6111e3565b6040516103e59190611abb565b60405180910390f35b6103f6611200565b005b610412600480360381019061040d9190611c77565b611214565b60405161041f9190611beb565b60405180910390f35b610442600480360381019061043d9190611b07565b611268565b60405161044f9190611abb565b60405180910390f35b610472600480360381019061046d9190611b07565b611280565b60405161047f9190611abb565b60405180910390f35b610490611324565b60405161049d9190611b75565b60405180910390f35b6104c060048036038101906104bb9190611b07565b61134d565b6040516104cd9190611abb565b60405180910390f35b6104f060048036038101906104eb9190611d56565b6113f1565b6040516104fd9190611abb565b60405180910390f35b610520600480360381019061051b9190611b90565b611422565b005b61053c60048036038101906105379190611c77565b61181c565b005b61055860048036038101906105539190611c77565b61189f565b6040516105659190611e54565b60405180910390f35b6000600154905090565b600080600d60008481526020019081526020016000206040518060800160405290816000820160009054906101000a900473ffffffffffffffffffffffffffffffffffffffff1673ffffffffffffffffffffffffffffffffffffffff1673ffffffffffffffffffffffffffffffffffffffff168152602001600182015481526020016002820154815260200160038201548152505090508060000151915050919050565b6000806106288461134d565b905061063384610578565b73ffffffffffffffffffffffffffffffffffffffff163373ffffffffffffffffffffffffffffffffffffffff16146106a0576040517f08c379a000000000000000000000000000000000000000000000000000000000815260040161069790611ee8565b60405180910390fd5b808311156106e3576040517f08c379a00000000000000000000000000000000000000000000000000000000081526004016106da90611f7a565b60405180910390fd5b6000600960009054906101000a900473ffffffffffffffffffffffffffffffffffffffff1673ffffffffffffffffffffffffffffffffffffffff1663b97dd9e26040518163ffffffff1660e01b8152600401602060405180830381865afa158015610752573d6000803e3d6000fd5b505050506040513d601f19601f820116820180604052508101906107769190611faf565b905081840361088c576011600082815260200190815260200160002060008154809291906107a39061200b565b91905055506000600960009054906101000a900473ffffffffffffffffffffffffffffffffffffffff1673ffffffffffffffffffffffffffffffffffffffff1663697af863876040518263ffffffff1660e01b81526004016108059190611abb565b6020604051808303816000875af1158015610824573d6000803e3d6000fd5b505050506040513d601f19601f82011682018060405250810190610848919061207f565b90508061088a576040517f08c379a00000000000000000000000000000000000000000000000000000000081526004016108819061211e565b60405180910390fd5b505b60008061089887611107565b426108a3919061213e565b905062cb0700811015610b19576108b98761104f565b15610a47576000600960009054906101000a900473ffffffffffffffffffffffffffffffffffffffff1673ffffffffffffffffffffffffffffffffffffffff16638bb126a7896040518263ffffffff1660e01b815260040161091b9190611abb565b602060405180830381865afa158015610938573d6000803e3d6000fd5b505050506040513d601f19601f8201168201806040525081019061095c9190611faf565b9050620f424061096b88611936565b826109769190612172565b61098091906121e3565b9250600a60009054906101000a900473ffffffffffffffffffffffffffffffffffffffff1673ffffffffffffffffffffffffffffffffffffffff1663a9059cbb600b60009054906101000a900473ffffffffffffffffffffffffffffffffffffffff16856040518363ffffffff1660e01b8152600401610a01929190612214565b6020604051808303816000875af1158015610a20573d6000803e3d6000fd5b505050506040513d601f19601f82011682018060405250810190610a44919061207f565b50505b600960009054906101000a900473ffffffffffffffffffffffffffffffffffffffff1673ffffffffffffffffffffffffffffffffffffffff16632b299cbe888389886040518563ffffffff1660e01b8152600401610aa8949392919061223d565b6020604051808303816000875af1158015610ac7573d6000803e3d6000fd5b505050506040513d601f19601f82011682018060405250810190610aeb919061207f565b5060016006600089815260200190815260200160002060006101000a81548160ff0219169083151502179055505b6000600a60009054906101000a900473ffffffffffffffffffffffffffffffffffffffff1673ffffffffffffffffffffffffffffffffffffffff1663a9059cbb33858a610b66919061213e565b6040518363ffffffff1660e01b8152600401610b83929190612214565b6020604051808303816000875af1158015610ba2573d6000803e3d6000fd5b505050506040513d601f19601f82011682018060405250810190610bc6919061207f565b905080610c08576040517f08c379a0000000000000000000000000000000000000000000000000000000008152600401610bff906122f4565b60405180910390fd5b6000600d60008a8152602001908152602001600020905087610c298a61134d565b610c33919061213e565b81600101819055506000610c4633610dd8565b03610ca4576000600260003373ffffffffffffffffffffffffffffffffffffffff1673ffffffffffffffffffffffffffffffffffffffff16815260200190815260200160002060006101000a81548160ff0219169083151502179055505b6001965050505050505092915050565b600d6020528060005260406000206000915090508060000160009054906101000a900473ffffffffffffffffffffffffffffffffffffffff16908060010154908060020154908060030154905084565b6000806000905060005b838111610d4957601060008281526020019081526020016000205482610d349190612314565b91508080610d419061200b565b915050610d0e565b5080915050919050565b6000806000905060005b838111610db6576011600082815260200190815260200160002054601060008381526020019081526020016000205483610d979190612314565b610da1919061213e565b91508080610dae9061200b565b915050610d5d565b5080915050919050565b60116020528060005260406000206000915090505481565b6000806000905060005b600e60008573ffffffffffffffffffffffffffffffffffffffff1673ffffffffffffffffffffffffffffffffffffffff16815260200190815260200160002080549050811015610eb6576000610e92600e60008773ffffffffffffffffffffffffffffffffffffffff1673ffffffffffffffffffffffffffffffffffffffff1681526020019081526020016000208381548110610e8257610e81612348565b5b906000526020600020015461134d565b90508083610ea09190612314565b9250508080610eae9061200b565b915050610de2565b5080915050919050565b60606000610ecd83610dd8565b9050600c54811015610f16576040518060400160405280600481526020017f6e6f6e65000000000000000000000000000000000000000000000000000000008152509150611049565b6103e8600c54610f269190612172565b8110610f69576040518060400160405280600881526020017f706c6174696e756d0000000000000000000000000000000000000000000000008152509150611048565b6064600c54610f789190612172565b8110610fbb576040518060400160405280600781526020017f6469616d6f6e64000000000000000000000000000000000000000000000000008152509150611047565b600a600c54610fca9190612172565b811061100d576040518060400160405280600481526020017f676f6c64000000000000000000000000000000000000000000000000000000008152509150611046565b6040518060400160405280600681526020017f736c69766572000000000000000000000000000000000000000000000000000081525091505b5b5b5b50919050565b600080600d60008481526020019081526020016000206040518060800160405290816000820160009054906101000a900473ffffffffffffffffffffffffffffffffffffffff1673ffffffffffffffffffffffffffffffffffffffff1673ffffffffffffffffffffffffffffffffffffffff1681526020016001820154815260200160028201548152602001600382015481525050905060008160400151036110fc576000915050611102565b60019150505b919050565b600080600d60008481526020019081526020016000206040518060800160405290816000820160009054906101000a900473ffffffffffffffffffffffffffffffffffffffff1673ffffffffffffffffffffffffffffffffffffffff1673ffffffffffffffffffffffffffffffffffffffff168152602001600182015481526020016002820154815260200160038201548152505090508060600151915050919050565b60106020528060005260406000206000915090505481565b60026020528060005260406000206000915054906101000a900460ff1681565b600060086000838152602001908152602001600020549050919050565b611208611958565b61121260006119d6565b565b600061121e611958565b81600960006101000a81548173ffffffffffffffffffffffffffffffffffffffff021916908373ffffffffffffffffffffffffffffffffffffffff16021790555060019050919050565b600f6020528060005260406000206000915090505481565b600080600d60008481526020019081526020016000206040518060800160405290816000820160009054906101000a900473ffffffffffffffffffffffffffffffffffffffff1673ffffffffffffffffffffffffffffffffffffffff1673ffffffffffffffffffffffffffffffffffffffff168152602001600182015481526020016002820154815260200160038201548152505090508060400151915050919050565b60008060009054906101000a900473ffffffffffffffffffffffffffffffffffffffff16905090565b600080600d60008481526020019081526020016000206040518060800160405290816000820160009054906101000a900473ffffffffffffffffffffffffffffffffffffffff1673ffffffffffffffffffffffffffffffffffffffff1673ffffffffffffffffffffffffffffffffffffffff168152602001600182015481526020016002820154815260200160038201548152505090508060200151915050919050565b600e602052816000526040600020818154811061140d57600080fd5b90600052602060002001600091509150505481565b600073ffffffffffffffffffffffffffffffffffffffff16600960009054906101000a900473ffffffffffffffffffffffffffffffffffffffff1673ffffffffffffffffffffffffffffffffffffffff16036114b3576040517f08c379a00000000000000000000000000000000000000000000000000000000081526004016114aa906123c3565b60405180910390fd5b6000600960009054906101000a900473ffffffffffffffffffffffffffffffffffffffff1673ffffffffffffffffffffffffffffffffffffffff1663b97dd9e26040518163ffffffff1660e01b8152600401602060405180830381865afa158015611522573d6000803e3d6000fd5b505050506040513d601f19601f820116820180604052508101906115469190611faf565b905080600860006001548152602001908152602001600020819055506010600082815260200190815260200160002060008154809291906115869061200b565b91905055506000600a60009054906101000a900473ffffffffffffffffffffffffffffffffffffffff1673ffffffffffffffffffffffffffffffffffffffff166323b872dd3330876040518463ffffffff1660e01b81526004016115ec939291906123e3565b6020604051808303816000875af115801561160b573d6000803e3d6000fd5b505050506040513d601f19601f8201168201806040525081019061162f919061207f565b905080611671576040517f08c379a000000000000000000000000000000000000000000000000000000000815260040161166890612466565b60405180910390fd5b6000600d600060015481526020019081526020016000209050338160000160006101000a81548173ffffffffffffffffffffffffffffffffffffffff021916908373ffffffffffffffffffffffffffffffffffffffff160217905550848160010181905550838160020181905550428160030181905550600e60003373ffffffffffffffffffffffffffffffffffffffff1673ffffffffffffffffffffffffffffffffffffffff1681526020019081526020016000206001549080600181540180825580915050600190039060005260206000200160009091909190915055600160008154809291906117639061200b565b919050555061177133610ec0565b600560003373ffffffffffffffffffffffffffffffffffffffff1673ffffffffffffffffffffffffffffffffffffffff16815260200190815260200160002090816117bc91906126c1565b506001600260003373ffffffffffffffffffffffffffffffffffffffff1673ffffffffffffffffffffffffffffffffffffffff16815260200190815260200160002060006101000a81548160ff0219169083151502179055505050505050565b611824611958565b600073ffffffffffffffffffffffffffffffffffffffff168173ffffffffffffffffffffffffffffffffffffffff1603611893576040517f08c379a000000000000000000000000000000000000000000000000000000000815260040161188a90612805565b60405180910390fd5b61189c816119d6565b50565b6060600e60008373ffffffffffffffffffffffffffffffffffffffff1673ffffffffffffffffffffffffffffffffffffffff16815260200190815260200160002080548060200260200160405190810160405280929190818152602001828054801561192a57602002820191906000526020600020905b815481526020019060010190808311611916575b50505050509050919050565b600060646005836119479190612172565b61195191906121e3565b9050919050565b611960611a9a565b73ffffffffffffffffffffffffffffffffffffffff1661197e611324565b73ffffffffffffffffffffffffffffffffffffffff16146119d4576040517f08c379a00000000000000000000000000000000000000000000000000000000081526004016119cb90612871565b60405180910390fd5b565b60008060009054906101000a900473ffffffffffffffffffffffffffffffffffffffff169050816000806101000a81548173ffffffffffffffffffffffffffffffffffffffff021916908373ffffffffffffffffffffffffffffffffffffffff1602179055508173ffffffffffffffffffffffffffffffffffffffff168173ffffffffffffffffffffffffffffffffffffffff167f8be0079c531659141344cd1fd0a4f28419497f9722a3daafe3b4186f6b6457e060405160405180910390a35050565b600033905090565b6000819050919050565b611ab581611aa2565b82525050565b6000602082019050611ad06000830184611aac565b92915050565b600080fd5b611ae481611aa2565b8114611aef57600080fd5b50565b600081359050611b0181611adb565b92915050565b600060208284031215611b1d57611b1c611ad6565b5b6000611b2b84828501611af2565b91505092915050565b600073ffffffffffffffffffffffffffffffffffffffff82169050919050565b6000611b5f82611b34565b9050919050565b611b6f81611b54565b82525050565b6000602082019050611b8a6000830184611b66565b92915050565b60008060408385031215611ba757611ba6611ad6565b5b6000611bb585828601611af2565b9250506020611bc685828601611af2565b9150509250929050565b60008115159050919050565b611be581611bd0565b82525050565b6000602082019050611c006000830184611bdc565b92915050565b6000608082019050611c1b6000830187611b66565b611c286020830186611aac565b611c356040830185611aac565b611c426060830184611aac565b95945050505050565b611c5481611b54565b8114611c5f57600080fd5b50565b600081359050611c7181611c4b565b92915050565b600060208284031215611c8d57611c8c611ad6565b5b6000611c9b84828501611c62565b91505092915050565b600081519050919050565b600082825260208201905092915050565b60005b83811015611cde578082015181840152602081019050611cc3565b60008484015250505050565b6000601f19601f8301169050919050565b6000611d0682611ca4565b611d108185611caf565b9350611d20818560208601611cc0565b611d2981611cea565b840191505092915050565b60006020820190508181036000830152611d4e8184611cfb565b905092915050565b60008060408385031215611d6d57611d6c611ad6565b5b6000611d7b85828601611c62565b9250506020611d8c85828601611af2565b9150509250929050565b600081519050919050565b600082825260208201905092915050565b6000819050602082019050919050565b611dcb81611aa2565b82525050565b6000611ddd8383611dc2565b60208301905092915050565b6000602082019050919050565b6000611e0182611d96565b611e0b8185611da1565b9350611e1683611db2565b8060005b83811015611e47578151611e2e8882611dd1565b9750611e3983611de9565b925050600181019050611e1a565b5085935050505092915050565b60006020820190508181036000830152611e6e8184611df6565b905092915050565b7f6f6e6c79207374616b6520686f6c6465722063616e2072656d6f76652074686560008201527f207374616b650000000000000000000000000000000000000000000000000000602082015250565b6000611ed2602683611caf565b9150611edd82611e76565b604082019050919050565b60006020820190508181036000830152611f0181611ec5565b9050919050565b7f63616e2072656d6f7665206f6e6c7920616d6f756e74206c657373207468616e60008201527f207374616b656400000000000000000000000000000000000000000000000000602082015250565b6000611f64602783611caf565b9150611f6f82611f08565b604082019050919050565b60006020820190508181036000830152611f9381611f57565b9050919050565b600081519050611fa981611adb565b92915050565b600060208284031215611fc557611fc4611ad6565b5b6000611fd384828501611f9a565b91505092915050565b7f4e487b7100000000000000000000000000000000000000000000000000000000600052601160045260246000fd5b600061201682611aa2565b91507fffffffffffffffffffffffffffffffffffffffffffffffffffffffffffffffff820361204857612047611fdc565b5b600182019050919050565b61205c81611bd0565b811461206757600080fd5b50565b60008151905061207981612053565b92915050565b60006020828403121561209557612094611ad6565b5b60006120a38482850161206a565b91505092915050565b7f7374616b696e67203a206572726f72207768696c652072656d6f76696e67206560008201527f6e74697265207374616b65000000000000000000000000000000000000000000602082015250565b6000612108602b83611caf565b9150612113826120ac565b604082019050919050565b60006020820190508181036000830152612137816120fb565b9050919050565b600061214982611aa2565b915061215483611aa2565b925082820390508181111561216c5761216b611fdc565b5b92915050565b600061217d82611aa2565b915061218883611aa2565b925082820261219681611aa2565b915082820484148315176121ad576121ac611fdc565b5b5092915050565b7f4e487b7100000000000000000000000000000000000000000000000000000000600052601260045260246000fd5b60006121ee82611aa2565b91506121f983611aa2565b925082612209576122086121b4565b5b828204905092915050565b60006040820190506122296000830185611b66565b6122366020830184611aac565b9392505050565b60006080820190506122526000830187611aac565b61225f6020830186611aac565b61226c6040830185611aac565b6122796060830184611aac565b95945050505050565b7f6572726f72207472616e73666572696e6720746f6b656e7320746f20686f6c6460008201527f6572000000000000000000000000000000000000000000000000000000000000602082015250565b60006122de602283611caf565b91506122e982612282565b604082019050919050565b6000602082019050818103600083015261230d816122d1565b9050919050565b600061231f82611aa2565b915061232a83611aa2565b925082820190508082111561234257612341611fdc565b5b92915050565b7f4e487b7100000000000000000000000000000000000000000000000000000000600052603260045260246000fd5b7f52455741524420504f4f4c204e4f542041444445440000000000000000000000600082015250565b60006123ad601583611caf565b91506123b882612377565b602082019050919050565b600060208201905081810360008301526123dc816123a0565b9050919050565b60006060820190506123f86000830186611b66565b6124056020830185611b66565b6124126040830184611aac565b949350505050565b7f7374616b65207472616e73666572206661696c65640000000000000000000000600082015250565b6000612450601583611caf565b915061245b8261241a565b602082019050919050565b6000602082019050818103600083015261247f81612443565b9050919050565b7f4e487b7100000000000000000000000000000000000000000000000000000000600052604160045260246000fd5b7f4e487b7100000000000000000000000000000000000000000000000000000000600052602260045260246000fd5b600060028204905060018216806124fc57607f821691505b60208210810361250f5761250e6124b5565b5b50919050565b60008190508160005260206000209050919050565b60006020601f8301049050919050565b600082821b905092915050565b6000600883026125777fffffffffffffffffffffffffffffffffffffffffffffffffffffffffffffffff8261253a565b612581868361253a565b95508019841693508086168417925050509392505050565b6000819050919050565b60006125be6125b96125b484611aa2565b612599565b611aa2565b9050919050565b6000819050919050565b6125d8836125a3565b6125ec6125e4826125c5565b848454612547565b825550505050565b600090565b6126016125f4565b61260c8184846125cf565b505050565b5b81811015612630576126256000826125f9565b600181019050612612565b5050565b601f8211156126755761264681612515565b61264f8461252a565b8101602085101561265e578190505b61267261266a8561252a565b830182612611565b50505b505050565b600082821c905092915050565b60006126986000198460080261267a565b1980831691505092915050565b60006126b18383612687565b9150826002028217905092915050565b6126ca82611ca4565b67ffffffffffffffff8111156126e3576126e2612486565b5b6126ed82546124e4565b6126f8828285612634565b600060209050601f83116001811461272b5760008415612719578287015190505b61272385826126a5565b86555061278b565b601f19841661273986612515565b60005b828110156127615784890151825560018201915060208501945060208101905061273c565b8683101561277e578489015161277a601f891682612687565b8355505b6001600288020188555050505b505050505050565b7f4f776e61626c653a206e6577206f776e657220697320746865207a65726f206160008201527f6464726573730000000000000000000000000000000000000000000000000000602082015250565b60006127ef602683611caf565b91506127fa82612793565b604082019050919050565b6000602082019050818103600083015261281e816127e2565b9050919050565b7f4f776e61626c653a2063616c6c6572206973206e6f7420746865206f776e6572600082015250565b600061285b602083611caf565b915061286682612825565b602082019050919050565b6000602082019050818103600083015261288a8161284e565b905091905056fea2646970667358221220b836bb388ffcfb284879fa940c001bf90d4594869b94611d858a21de9f3427c764736f6c63430008110033",
  "linkReferences": {},
  "deployedLinkReferences": {}
}